{
  "_format": "hh-sol-artifact-1",
  "contractName": "GoalSight",
  "sourceName": "contracts/GoalSight.sol",
  "abi": [
    {
      "inputs": [
        {
          "internalType": "uint256",
          "name": "initialSupply",
          "type": "uint256"
        }
      ],
      "stateMutability": "nonpayable",
      "type": "constructor"
    },
    {
      "anonymous": false,
      "inputs": [
        {
          "indexed": true,
          "internalType": "address",
          "name": "owner",
          "type": "address"
        },
        {
          "indexed": true,
          "internalType": "address",
          "name": "spender",
          "type": "address"
        },
        {
          "indexed": false,
          "internalType": "uint256",
          "name": "value",
          "type": "uint256"
        }
      ],
      "name": "Approval",
      "type": "event"
    },
    {
      "anonymous": false,
      "inputs": [
        {
          "indexed": true,
          "internalType": "uint256",
          "name": "id",
          "type": "uint256"
        },
        {
          "indexed": true,
          "internalType": "address",
          "name": "to",
          "type": "address"
        },
        {
          "indexed": false,
          "internalType": "uint256",
          "name": "partnerID",
          "type": "uint256"
        },
        {
          "indexed": false,
          "internalType": "uint256",
          "name": "amount",
          "type": "uint256"
        },
        {
          "indexed": false,
          "internalType": "string",
          "name": "purpose",
          "type": "string"
        }
      ],
      "name": "Ledger",
      "type": "event"
    },
    {
      "anonymous": false,
      "inputs": [
        {
          "indexed": true,
          "internalType": "address",
          "name": "from",
          "type": "address"
        },
        {
          "indexed": true,
          "internalType": "address",
          "name": "to",
          "type": "address"
        },
        {
          "indexed": false,
          "internalType": "uint256",
          "name": "value",
          "type": "uint256"
        }
      ],
      "name": "Transfer",
      "type": "event"
    },
    {
      "inputs": [
        {
          "internalType": "uint256",
          "name": "_id",
          "type": "uint256"
        }
      ],
      "name": "acceptPartnership",
      "outputs": [],
      "stateMutability": "nonpayable",
      "type": "function"
    },
    {
      "inputs": [
        {
          "internalType": "address",
          "name": "owner",
          "type": "address"
        },
        {
          "internalType": "address",
          "name": "spender",
          "type": "address"
        }
      ],
      "name": "allowance",
      "outputs": [
        {
          "internalType": "uint256",
          "name": "",
          "type": "uint256"
        }
      ],
      "stateMutability": "view",
      "type": "function"
    },
    {
      "inputs": [
        {
          "internalType": "address",
          "name": "spender",
          "type": "address"
        },
        {
          "internalType": "uint256",
          "name": "amount",
          "type": "uint256"
        }
      ],
      "name": "approve",
      "outputs": [
        {
          "internalType": "bool",
          "name": "",
          "type": "bool"
        }
      ],
      "stateMutability": "nonpayable",
      "type": "function"
    },
    {
      "inputs": [],
      "name": "balance",
      "outputs": [
        {
          "internalType": "uint256",
          "name": "",
          "type": "uint256"
        }
      ],
      "stateMutability": "view",
      "type": "function"
    },
    {
      "inputs": [
        {
          "internalType": "address",
          "name": "account",
          "type": "address"
        }
      ],
      "name": "balanceOf",
      "outputs": [
        {
          "internalType": "uint256",
          "name": "",
          "type": "uint256"
        }
      ],
      "stateMutability": "view",
      "type": "function"
    },
    {
      "inputs": [
        {
          "internalType": "string",
          "name": "name",
          "type": "string"
        },
        {
          "internalType": "string",
          "name": "email",
          "type": "string"
        },
        {
          "internalType": "uint256",
          "name": "number",
          "type": "uint256"
        },
        {
          "components": [
            {
              "internalType": "string",
              "name": "country",
              "type": "string"
            },
            {
              "internalType": "string",
              "name": "state",
              "type": "string"
            },
            {
              "internalType": "string",
              "name": "city",
              "type": "string"
            },
            {
              "internalType": "string",
              "name": "locationAddress",
              "type": "string"
            },
            {
              "internalType": "string",
              "name": "locationAddress2",
              "type": "string"
            }
          ],
          "internalType": "struct ILocation",
          "name": "location",
          "type": "tuple"
        },
        {
          "internalType": "string",
          "name": "description",
          "type": "string"
        },
        {
          "internalType": "string",
          "name": "goal",
          "type": "string"
        }
      ],
      "name": "becomePartner",
      "outputs": [],
      "stateMutability": "nonpayable",
      "type": "function"
    },
    {
      "inputs": [
        {
          "internalType": "uint256",
          "name": "_id",
          "type": "uint256"
        }
      ],
      "name": "contribute",
      "outputs": [],
      "stateMutability": "payable",
      "type": "function"
    },
    {
      "inputs": [
        {
          "internalType": "string",
          "name": "_aim",
          "type": "string"
        },
        {
          "internalType": "string",
          "name": "_email",
          "type": "string"
        },
        {
          "components": [
            {
              "internalType": "string",
              "name": "country",
              "type": "string"
            },
            {
              "internalType": "string",
              "name": "state",
              "type": "string"
            },
            {
              "internalType": "string",
              "name": "city",
              "type": "string"
            },
            {
              "internalType": "string",
              "name": "locationAddress",
              "type": "string"
            },
            {
              "internalType": "string",
              "name": "locationAddress2",
              "type": "string"
            }
          ],
          "internalType": "struct ILocation",
          "name": "_location",
          "type": "tuple"
        },
        {
          "internalType": "string",
          "name": "_description",
          "type": "string"
        },
        {
          "internalType": "string",
          "name": "_goal",
          "type": "string"
        },
        {
          "internalType": "uint256[]",
          "name": "_partners",
          "type": "uint256[]"
        }
      ],
      "name": "createGoal",
      "outputs": [],
      "stateMutability": "nonpayable",
      "type": "function"
    },
    {
      "inputs": [],
      "name": "daoLibrary",
      "outputs": [
        {
          "internalType": "contract Dao",
          "name": "",
          "type": "address"
        }
      ],
      "stateMutability": "view",
      "type": "function"
    },
    {
      "inputs": [],
      "name": "decimals",
      "outputs": [
        {
          "internalType": "uint8",
          "name": "",
          "type": "uint8"
        }
      ],
      "stateMutability": "view",
      "type": "function"
    },
    {
      "inputs": [
        {
          "internalType": "address",
          "name": "spender",
          "type": "address"
        },
        {
          "internalType": "uint256",
          "name": "subtractedValue",
          "type": "uint256"
        }
      ],
      "name": "decreaseAllowance",
      "outputs": [
        {
          "internalType": "bool",
          "name": "",
          "type": "bool"
        }
      ],
      "stateMutability": "nonpayable",
      "type": "function"
    },
    {
      "inputs": [
        {
          "internalType": "uint256",
          "name": "_id",
          "type": "uint256"
        }
      ],
      "name": "endGoal",
      "outputs": [],
      "stateMutability": "nonpayable",
      "type": "function"
    },
    {
      "inputs": [
        {
          "internalType": "uint256",
          "name": "_id",
          "type": "uint256"
        }
      ],
      "name": "endGoalVote",
      "outputs": [],
      "stateMutability": "nonpayable",
      "type": "function"
    },
    {
      "inputs": [
        {
          "internalType": "uint256",
          "name": "_id",
          "type": "uint256"
        }
      ],
      "name": "endPartnerVote",
      "outputs": [],
      "stateMutability": "nonpayable",
      "type": "function"
    },
    {
      "inputs": [
        {
          "internalType": "uint256",
          "name": "_amount",
          "type": "uint256"
        }
      ],
      "name": "getConversion",
      "outputs": [
        {
          "internalType": "uint256",
          "name": "",
          "type": "uint256"
        }
      ],
      "stateMutability": "view",
      "type": "function"
    },
    {
      "inputs": [
        {
          "internalType": "uint256",
          "name": "_id",
          "type": "uint256"
        }
      ],
      "name": "getGoal",
      "outputs": [
        {
          "components": [
            {
              "internalType": "string",
              "name": "aim",
              "type": "string"
            },
            {
              "internalType": "address",
              "name": "owner",
              "type": "address"
            },
            {
              "internalType": "string",
              "name": "email",
              "type": "string"
            },
            {
              "components": [
                {
                  "internalType": "string",
                  "name": "country",
                  "type": "string"
                },
                {
                  "internalType": "string",
                  "name": "state",
                  "type": "string"
                },
                {
                  "internalType": "string",
                  "name": "city",
                  "type": "string"
                },
                {
                  "internalType": "string",
                  "name": "locationAddress",
                  "type": "string"
                },
                {
                  "internalType": "string",
                  "name": "locationAddress2",
                  "type": "string"
                }
              ],
              "internalType": "struct ILocation",
              "name": "location",
              "type": "tuple"
            },
            {
              "internalType": "string",
              "name": "description",
              "type": "string"
            },
            {
              "internalType": "string",
              "name": "goal",
              "type": "string"
            },
            {
              "internalType": "uint256[]",
              "name": "partners",
              "type": "uint256[]"
            },
            {
              "internalType": "uint256[]",
              "name": "onWait",
              "type": "uint256[]"
            },
            {
              "internalType": "uint256",
              "name": "createdAt",
              "type": "uint256"
            },
            {
              "internalType": "uint256",
              "name": "balance",
              "type": "uint256"
            },
            {
              "internalType": "bool",
              "name": "approved",
              "type": "bool"
            },
            {
              "internalType": "bool",
              "name": "hasEnded",
              "type": "bool"
            }
          ],
          "internalType": "struct IGoal",
          "name": "",
          "type": "tuple"
        }
      ],
      "stateMutability": "view",
      "type": "function"
    },
    {
      "inputs": [],
      "name": "getGoals",
      "outputs": [
        {
          "components": [
            {
              "internalType": "string",
              "name": "aim",
              "type": "string"
            },
            {
              "internalType": "address",
              "name": "owner",
              "type": "address"
            },
            {
              "internalType": "string",
              "name": "email",
              "type": "string"
            },
            {
              "components": [
                {
                  "internalType": "string",
                  "name": "country",
                  "type": "string"
                },
                {
                  "internalType": "string",
                  "name": "state",
                  "type": "string"
                },
                {
                  "internalType": "string",
                  "name": "city",
                  "type": "string"
                },
                {
                  "internalType": "string",
                  "name": "locationAddress",
                  "type": "string"
                },
                {
                  "internalType": "string",
                  "name": "locationAddress2",
                  "type": "string"
                }
              ],
              "internalType": "struct ILocation",
              "name": "location",
              "type": "tuple"
            },
            {
              "internalType": "string",
              "name": "description",
              "type": "string"
            },
            {
              "internalType": "string",
              "name": "goal",
              "type": "string"
            },
            {
              "internalType": "uint256[]",
              "name": "partners",
              "type": "uint256[]"
            },
            {
              "internalType": "uint256[]",
              "name": "onWait",
              "type": "uint256[]"
            },
            {
              "internalType": "uint256",
              "name": "createdAt",
              "type": "uint256"
            },
            {
              "internalType": "uint256",
              "name": "balance",
              "type": "uint256"
            },
            {
              "internalType": "bool",
              "name": "approved",
              "type": "bool"
            },
            {
              "internalType": "bool",
              "name": "hasEnded",
              "type": "bool"
            }
          ],
          "internalType": "struct IGoal[]",
          "name": "",
          "type": "tuple[]"
        }
      ],
      "stateMutability": "view",
      "type": "function"
    },
    {
      "inputs": [
        {
          "internalType": "uint256",
          "name": "_id",
          "type": "uint256"
        }
      ],
      "name": "getPartner",
      "outputs": [
        {
          "components": [
            {
              "internalType": "string",
              "name": "name",
              "type": "string"
            },
            {
              "internalType": "address",
              "name": "owner",
              "type": "address"
            },
            {
              "internalType": "string",
              "name": "email",
              "type": "string"
            },
            {
              "internalType": "uint256",
              "name": "number",
              "type": "uint256"
            },
            {
              "components": [
                {
                  "internalType": "string",
                  "name": "country",
                  "type": "string"
                },
                {
                  "internalType": "string",
                  "name": "state",
                  "type": "string"
                },
                {
                  "internalType": "string",
                  "name": "city",
                  "type": "string"
                },
                {
                  "internalType": "string",
                  "name": "locationAddress",
                  "type": "string"
                },
                {
                  "internalType": "string",
                  "name": "locationAddress2",
                  "type": "string"
                }
              ],
              "internalType": "struct ILocation",
              "name": "location",
              "type": "tuple"
            },
            {
              "internalType": "string",
              "name": "description",
              "type": "string"
            },
            {
              "internalType": "string",
              "name": "goal",
              "type": "string"
            },
            {
              "internalType": "uint256",
              "name": "createdAt",
              "type": "uint256"
            },
            {
              "internalType": "bool",
              "name": "approved",
              "type": "bool"
            }
          ],
          "internalType": "struct IPartner",
          "name": "",
          "type": "tuple"
        }
      ],
      "stateMutability": "view",
      "type": "function"
    },
    {
      "inputs": [],
      "name": "getPartners",
      "outputs": [
        {
          "components": [
            {
              "internalType": "string",
              "name": "name",
              "type": "string"
            },
            {
              "internalType": "address",
              "name": "owner",
              "type": "address"
            },
            {
              "internalType": "string",
              "name": "email",
              "type": "string"
            },
            {
              "internalType": "uint256",
              "name": "number",
              "type": "uint256"
            },
            {
              "components": [
                {
                  "internalType": "string",
                  "name": "country",
                  "type": "string"
                },
                {
                  "internalType": "string",
                  "name": "state",
                  "type": "string"
                },
                {
                  "internalType": "string",
                  "name": "city",
                  "type": "string"
                },
                {
                  "internalType": "string",
                  "name": "locationAddress",
                  "type": "string"
                },
                {
                  "internalType": "string",
                  "name": "locationAddress2",
                  "type": "string"
                }
              ],
              "internalType": "struct ILocation",
              "name": "location",
              "type": "tuple"
            },
            {
              "internalType": "string",
              "name": "description",
              "type": "string"
            },
            {
              "internalType": "string",
              "name": "goal",
              "type": "string"
            },
            {
              "internalType": "uint256",
              "name": "createdAt",
              "type": "uint256"
            },
            {
              "internalType": "bool",
              "name": "approved",
              "type": "bool"
            }
          ],
          "internalType": "struct IPartner[]",
          "name": "",
          "type": "tuple[]"
        }
      ],
      "stateMutability": "view",
      "type": "function"
    },
    {
      "inputs": [],
      "name": "getReputation",
      "outputs": [
        {
          "internalType": "uint256",
          "name": "",
          "type": "uint256"
        }
      ],
      "stateMutability": "view",
      "type": "function"
    },
    {
      "inputs": [
        {
          "internalType": "address",
          "name": "spender",
          "type": "address"
        },
        {
          "internalType": "uint256",
          "name": "addedValue",
          "type": "uint256"
        }
      ],
      "name": "increaseAllowance",
      "outputs": [
        {
          "internalType": "bool",
          "name": "",
          "type": "bool"
        }
      ],
      "stateMutability": "nonpayable",
      "type": "function"
    },
    {
      "inputs": [],
      "name": "name",
      "outputs": [
        {
          "internalType": "string",
          "name": "",
          "type": "string"
        }
      ],
      "stateMutability": "view",
      "type": "function"
    },
    {
      "inputs": [],
      "name": "owner",
      "outputs": [
        {
          "internalType": "address",
          "name": "",
          "type": "address"
        }
      ],
      "stateMutability": "view",
      "type": "function"
    },
    {
      "inputs": [
        {
          "internalType": "uint256",
          "name": "_id",
          "type": "uint256"
        }
      ],
      "name": "reward",
      "outputs": [],
      "stateMutability": "nonpayable",
      "type": "function"
    },
    {
      "inputs": [],
      "name": "symbol",
      "outputs": [
        {
          "internalType": "string",
          "name": "",
          "type": "string"
        }
      ],
      "stateMutability": "view",
      "type": "function"
    },
    {
      "inputs": [],
      "name": "totalSupply",
      "outputs": [
        {
          "internalType": "uint256",
          "name": "",
          "type": "uint256"
        }
      ],
      "stateMutability": "view",
      "type": "function"
    },
    {
      "inputs": [
        {
          "internalType": "address",
          "name": "to",
          "type": "address"
        },
        {
          "internalType": "uint256",
          "name": "amount",
          "type": "uint256"
        }
      ],
      "name": "transfer",
      "outputs": [
        {
          "internalType": "bool",
          "name": "",
          "type": "bool"
        }
      ],
      "stateMutability": "nonpayable",
      "type": "function"
    },
    {
      "inputs": [
        {
          "internalType": "address",
          "name": "from",
          "type": "address"
        },
        {
          "internalType": "address",
          "name": "to",
          "type": "address"
        },
        {
          "internalType": "uint256",
          "name": "amount",
          "type": "uint256"
        }
      ],
      "name": "transferFrom",
      "outputs": [
        {
          "internalType": "bool",
          "name": "",
          "type": "bool"
        }
      ],
      "stateMutability": "nonpayable",
      "type": "function"
    },
    {
      "inputs": [
        {
          "internalType": "uint256",
          "name": "_id",
          "type": "uint256"
        },
        {
          "internalType": "string",
          "name": "_purpose",
          "type": "string"
        }
      ],
      "name": "withdraw",
      "outputs": [],
      "stateMutability": "payable",
      "type": "function"
    }
  ],
  "bytecode": "0x60806040523480156200001157600080fd5b50604051620053a1380380620053a1833981016040819052620000349162000209565b6040518060400160405280600481526020016311dbd85b60e21b815250604051806040016040528060018152602001604760f81b81525081600390816200007c9190620002c9565b5060046200008b8282620002c9565b5050600780546001600160a01b0319163317905550604051620000ae90620001fb565b604051809103906000f080158015620000cb573d6000803e3d6000fd5b50600580546001600160a01b03929092166001600160a01b03199283161790556006805490911673694aa1769357215de4fac081bf1f309adc32530617905562000129336200012383670de0b6b3a7640000620003ab565b62000130565b50620003e1565b6001600160a01b0382166200018b5760405162461bcd60e51b815260206004820152601f60248201527f45524332303a206d696e7420746f20746865207a65726f206164647265737300604482015260640160405180910390fd5b80600260008282546200019f9190620003cb565b90915550506001600160a01b038216600081815260208181526040808320805486019055518481527fddf252ad1be2c89b69c2b068fc378daa952ba7f163c4a11628f55a4df523b3ef910160405180910390a35050565b505050565b610a0e806200499383390190565b6000602082840312156200021c57600080fd5b5051919050565b634e487b7160e01b600052604160045260246000fd5b600181811c908216806200024e57607f821691505b6020821081036200026f57634e487b7160e01b600052602260045260246000fd5b50919050565b601f821115620001f6576000816000526020600020601f850160051c81016020861015620002a05750805b601f850160051c820191505b81811015620002c157828155600101620002ac565b505050505050565b81516001600160401b03811115620002e557620002e562000223565b620002fd81620002f6845462000239565b8462000275565b602080601f8311600181146200033557600084156200031c5750858301515b600019600386901b1c1916600185901b178555620002c1565b600085815260208120601f198616915b82811015620003665788860151825594840194600190910190840162000345565b5085821015620003855787850151600019600388901b60f8161c191681555b5050505050600190811b01905550565b634e487b7160e01b600052601160045260246000fd5b8082028115828204841417620003c557620003c562000395565b92915050565b80820180821115620003c557620003c562000395565b6145a280620003f16000396000f3fe6080604052600436106101525760003560e01c8063047abed71461015757806306fdde031461018a578063095ea7b3146101ac57806318160ddd146101dc5780631b5c2c36146101f157806323b872dd1461021357806330218db714610233578063313ce56714610253578063395093511461026f57806370a082311461028f57806373e29b0d146102c55780637fc96619146102e7578063871f3c17146103145780638da5cb5b14610334578063912baedb1461036157806395d89b41146103815780639e656d6914610396578063a457c2d7146103b8578063a9059cbb146103d8578063a9fb763c146103f8578063ac004b9114610418578063b2b21c0614610438578063b69ef8a814610458578063c1cbbca71461046e578063dc048cf214610481578063dd62ed3e14610494578063df6ed6cb146104b4578063e11031fb146104e1578063ffe6a18e14610501575b600080fd5b34801561016357600080fd5b506101776101723660046138ff565b610516565b6040519081526020015b60405180910390f35b34801561019657600080fd5b5061019f61054a565b604051610181919061395e565b3480156101b857600080fd5b506101cc6101c7366004613994565b6105dc565b6040519015158152602001610181565b3480156101e857600080fd5b50600254610177565b3480156101fd57600080fd5b5061021161020c366004613b78565b6105f6565b005b34801561021f57600080fd5b506101cc61022e366004613c51565b610811565b34801561023f57600080fd5b5061021161024e366004613d0c565b610835565b34801561025f57600080fd5b5060405160128152602001610181565b34801561027b57600080fd5b506101cc61028a366004613994565b610abe565b34801561029b57600080fd5b506101776102aa366004613df3565b6001600160a01b031660009081526020819052604090205490565b3480156102d157600080fd5b506102da610ae0565b6040516101819190613f66565b3480156102f357600080fd5b506103076103023660046138ff565b6110b6565b6040516101819190613fca565b34801561032057600080fd5b5061021161032f3660046138ff565b611662565b34801561034057600080fd5b50600754610354906001600160a01b031681565b6040516101819190613fdd565b34801561036d57600080fd5b5061021161037c3660046138ff565b6119ac565b34801561038d57600080fd5b5061019f611ae3565b3480156103a257600080fd5b506103ab611af2565b604051610181919061412d565b3480156103c457600080fd5b506101cc6103d3366004613994565b61217f565b3480156103e457600080fd5b506101cc6103f3366004613994565b6121fa565b34801561040457600080fd5b506102116104133660046138ff565b612208565b34801561042457600080fd5b506102116104333660046138ff565b612386565b34801561044457600080fd5b50600554610354906001600160a01b031681565b34801561046457600080fd5b50610177600b5481565b61021161047c3660046138ff565b61267b565b61021161048f366004614184565b61285f565b3480156104a057600080fd5b506101776104af3660046141ca565b612a61565b3480156104c057600080fd5b506104d46104cf3660046138ff565b612a8c565b60405161018191906141fd565b3480156104ed57600080fd5b506102116104fc3660046138ff565b6130f8565b34801561050d57600080fd5b5061017761334f565b6000806105216133c6565b90506000670de0b6b3a76400006105388584614226565b610542919061423d565b949350505050565b6060600380546105599061425f565b80601f01602080910402602001604051908101604052809291908181526020018280546105859061425f565b80156105d25780601f106105a7576101008083540402835291602001916105d2565b820191906000526020600020905b8154815290600101906020018083116105b557829003601f168201915b5050505050905090565b6000336105ea81858561345d565b60019150505b92915050565b6040805161012081018252878152336020820152908101869052606081018590526080810184905260a0810183905260c081018290524260e08201526000610100820181905260098054600181018255915281518291600d027f6e1540171b6c0c960b71a7020d9f60077f6af931a8bbf590da0223dacf75c7af0190819061067e90826142e1565b5060208201516001820180546001600160a01b0319166001600160a01b03909216919091179055604082015160028201906106b990826142e1565b506060820151600382015560808201518051600483019081906106dc90826142e1565b50602082015160018201906106f190826142e1565b506040820151600282019061070690826142e1565b506060820151600382019061071b90826142e1565b506080820151600482019061073090826142e1565b50505060a0820151600982019061074790826142e1565b5060c0820151600a82019061075c90826142e1565b5060e0820151600b82015561010090910151600c909101805460ff19169115159190911790556005546009546001600160a01b0390911690639da9c593906107a6906001906143a0565b6107b24261012c6143b3565b6040516001600160e01b031960e085901b16815260048101929092526024820152604401600060405180830381600087803b1580156107f057600080fd5b505af1158015610804573d6000803e3d6000fd5b5050505050505050505050565b60003361081f858285613581565b61082a8585856135fb565b506001949350505050565b604080516101808101825287815233602082015290810186905260608181018690526080820185905260a0820184905260c0820181905260e0820183905242610100830152600061012083018190526101408301819052610160830181905260088054600181018255915282519192918291600f027ff3f7a9fe364faab93b216da50a3214154f22a0a2b415b23a84c8169e8b636ee3019081906108d990826142e1565b5060208201516001820180546001600160a01b0319166001600160a01b039092169190911790556040820151600282019061091490826142e1565b50606082015180516003830190819061092d90826142e1565b506020820151600182019061094290826142e1565b506040820151600282019061095790826142e1565b506060820151600382019061096c90826142e1565b506080820151600482019061098190826142e1565b5050506080820151600882019061099890826142e1565b5060a082015160098201906109ad90826142e1565b5060c082015180516109c991600a84019160209091019061379f565b5060e082015180516109e591600b84019160209091019061379f565b5061010082810151600c830155610120830151600d830155610140830151600e90920180546101609094015161ffff1990941692151561ff00191692909217921515029190911790556005546008546001600160a01b039091169063b803a58d90610a52906001906143a0565b610a5e4261012c6143b3565b6040516001600160e01b031960e085901b16815260048101929092526024820152604401600060405180830381600087803b158015610a9c57600080fd5b505af1158015610ab0573d6000803e3d6000fd5b505050505050505050505050565b6000336105ea818585610ad18383612a61565b610adb91906143b3565b61345d565b60606009805480602002602001604051908101604052809291908181526020016000905b828210156110ad57838290600052602060002090600d020160405180610120016040529081600082018054610b389061425f565b80601f0160208091040260200160405190810160405280929190818152602001828054610b649061425f565b8015610bb15780601f10610b8657610100808354040283529160200191610bb1565b820191906000526020600020905b815481529060010190602001808311610b9457829003601f168201915b505050918352505060018201546001600160a01b03166020820152600282018054604090920191610be19061425f565b80601f0160208091040260200160405190810160405280929190818152602001828054610c0d9061425f565b8015610c5a5780601f10610c2f57610100808354040283529160200191610c5a565b820191906000526020600020905b815481529060010190602001808311610c3d57829003601f168201915b5050505050815260200160038201548152602001600482016040518060a0016040529081600082018054610c8d9061425f565b80601f0160208091040260200160405190810160405280929190818152602001828054610cb99061425f565b8015610d065780601f10610cdb57610100808354040283529160200191610d06565b820191906000526020600020905b815481529060010190602001808311610ce957829003601f168201915b50505050508152602001600182018054610d1f9061425f565b80601f0160208091040260200160405190810160405280929190818152602001828054610d4b9061425f565b8015610d985780601f10610d6d57610100808354040283529160200191610d98565b820191906000526020600020905b815481529060010190602001808311610d7b57829003601f168201915b50505050508152602001600282018054610db19061425f565b80601f0160208091040260200160405190810160405280929190818152602001828054610ddd9061425f565b8015610e2a5780601f10610dff57610100808354040283529160200191610e2a565b820191906000526020600020905b815481529060010190602001808311610e0d57829003601f168201915b50505050508152602001600382018054610e439061425f565b80601f0160208091040260200160405190810160405280929190818152602001828054610e6f9061425f565b8015610ebc5780601f10610e9157610100808354040283529160200191610ebc565b820191906000526020600020905b815481529060010190602001808311610e9f57829003601f168201915b50505050508152602001600482018054610ed59061425f565b80601f0160208091040260200160405190810160405280929190818152602001828054610f019061425f565b8015610f4e5780601f10610f2357610100808354040283529160200191610f4e565b820191906000526020600020905b815481529060010190602001808311610f3157829003601f168201915b5050505050815250508152602001600982018054610f6b9061425f565b80601f0160208091040260200160405190810160405280929190818152602001828054610f979061425f565b8015610fe45780601f10610fb957610100808354040283529160200191610fe4565b820191906000526020600020905b815481529060010190602001808311610fc757829003601f168201915b50505050508152602001600a82018054610ffd9061425f565b80601f01602080910402602001604051908101604052809291908181526020018280546110299061425f565b80156110765780601f1061104b57610100808354040283529160200191611076565b820191906000526020600020905b81548152906001019060200180831161105957829003601f168201915b5050509183525050600b820154602080830191909152600c9092015460ff1615156040909101529082526001929092019101610b04565b50505050905090565b6110be6137ea565b600982815481106110d1576110d16143c6565b90600052602060002090600d0201604051806101200160405290816000820180546110fb9061425f565b80601f01602080910402602001604051908101604052809291908181526020018280546111279061425f565b80156111745780601f1061114957610100808354040283529160200191611174565b820191906000526020600020905b81548152906001019060200180831161115757829003601f168201915b505050918352505060018201546001600160a01b031660208201526002820180546040909201916111a49061425f565b80601f01602080910402602001604051908101604052809291908181526020018280546111d09061425f565b801561121d5780601f106111f25761010080835404028352916020019161121d565b820191906000526020600020905b81548152906001019060200180831161120057829003601f168201915b5050505050815260200160038201548152602001600482016040518060a00160405290816000820180546112509061425f565b80601f016020809104026020016040519081016040528092919081815260200182805461127c9061425f565b80156112c95780601f1061129e576101008083540402835291602001916112c9565b820191906000526020600020905b8154815290600101906020018083116112ac57829003601f168201915b505050505081526020016001820180546112e29061425f565b80601f016020809104026020016040519081016040528092919081815260200182805461130e9061425f565b801561135b5780601f106113305761010080835404028352916020019161135b565b820191906000526020600020905b81548152906001019060200180831161133e57829003601f168201915b505050505081526020016002820180546113749061425f565b80601f01602080910402602001604051908101604052809291908181526020018280546113a09061425f565b80156113ed5780601f106113c2576101008083540402835291602001916113ed565b820191906000526020600020905b8154815290600101906020018083116113d057829003601f168201915b505050505081526020016003820180546114069061425f565b80601f01602080910402602001604051908101604052809291908181526020018280546114329061425f565b801561147f5780601f106114545761010080835404028352916020019161147f565b820191906000526020600020905b81548152906001019060200180831161146257829003601f168201915b505050505081526020016004820180546114989061425f565b80601f01602080910402602001604051908101604052809291908181526020018280546114c49061425f565b80156115115780601f106114e657610100808354040283529160200191611511565b820191906000526020600020905b8154815290600101906020018083116114f457829003601f168201915b505050505081525050815260200160098201805461152e9061425f565b80601f016020809104026020016040519081016040528092919081815260200182805461155a9061425f565b80156115a75780601f1061157c576101008083540402835291602001916115a7565b820191906000526020600020905b81548152906001019060200180831161158a57829003601f168201915b50505050508152602001600a820180546115c09061425f565b80601f01602080910402602001604051908101604052809291908181526020018280546115ec9061425f565b80156116395780601f1061160e57610100808354040283529160200191611639565b820191906000526020600020905b81548152906001019060200180831161161c57829003601f168201915b5050509183525050600b8201546020820152600c9091015460ff16151560409091015292915050565b8060088181548110611676576116766143c6565b60009182526020909120600f90910201600e0154610100900460ff16156116b85760405162461bcd60e51b81526004016116af906143dc565b60405180910390fd5b336001600160a01b0316600883815481106116d5576116d56143c6565b600091825260209091206001600f9092020101546001600160a01b03161461172f5760405162461bcd60e51b815260206004820152600d60248201526c26bab9ba1031329027bbb732b960991b60448201526064016116af565b60088281548110611742576117426143c6565b90600052602060002090600f0201600d0154600b600082825461176591906143b3565b92505081905550600060088381548110611781576117816143c6565b60009182526020909120600d600f90920201015560055460405163589060b560e11b81526001600160a01b039091169063b120c16a906117c8903390600290600401614404565b600060405180830381600087803b1580156117e257600080fd5b505af11580156117f6573d6000803e3d6000fd5b505050506118053360036121fa565b5060005b6008838154811061181c5761181c6143c6565b90600052602060002090600f0201600a018054905081101561196a5760006008848154811061184d5761184d6143c6565b90600052602060002090600f0201600a01828154811061186f5761186f6143c6565b90600052602060002001549050600560009054906101000a90046001600160a01b03166001600160a01b031663b120c16a600983815481106118b3576118b36143c6565b600091825260209091206001600d9092020101546040516001600160e01b031960e084901b1681526118f4916001600160a01b031690600290600401614404565b600060405180830381600087803b15801561190e57600080fd5b505af1158015611922573d6000803e3d6000fd5b505050506119606009828154811061193c5761193c6143c6565b600091825260209091206001600d9092020101546001600160a01b031660026121fa565b5050600101611809565b50600160088381548110611980576119806143c6565b90600052602060002090600f0201600e0160016101000a81548160ff0219169083151502179055505050565b60005b600882815481106119c2576119c26143c6565b90600052602060002090600f0201600b0180549050811015611adf576000600883815481106119f3576119f36143c6565b90600052602060002090600f0201600b018281548110611a1557611a156143c6565b9060005260206000200154905060098181548110611a3557611a356143c6565b600091825260209091206001600d9092020101546001600160a01b03163303611ad65760088381548110611a6b57611a6b6143c6565b90600052602060002090600f0201600b018281548110611a8d57611a8d6143c6565b906000526020600020016000905560088381548110611aae57611aae6143c6565b60009182526020808320600a600f909302019190910180546001810182559083529120018190555b506001016119af565b5050565b6060600480546105599061425f565b60606008805480602002602001604051908101604052809291908181526020016000905b828210156110ad57838290600052602060002090600f020160405180610180016040529081600082018054611b4a9061425f565b80601f0160208091040260200160405190810160405280929190818152602001828054611b769061425f565b8015611bc35780601f10611b9857610100808354040283529160200191611bc3565b820191906000526020600020905b815481529060010190602001808311611ba657829003601f168201915b505050918352505060018201546001600160a01b03166020820152600282018054604090920191611bf39061425f565b80601f0160208091040260200160405190810160405280929190818152602001828054611c1f9061425f565b8015611c6c5780601f10611c4157610100808354040283529160200191611c6c565b820191906000526020600020905b815481529060010190602001808311611c4f57829003601f168201915b50505050508152602001600382016040518060a0016040529081600082018054611c959061425f565b80601f0160208091040260200160405190810160405280929190818152602001828054611cc19061425f565b8015611d0e5780601f10611ce357610100808354040283529160200191611d0e565b820191906000526020600020905b815481529060010190602001808311611cf157829003601f168201915b50505050508152602001600182018054611d279061425f565b80601f0160208091040260200160405190810160405280929190818152602001828054611d539061425f565b8015611da05780601f10611d7557610100808354040283529160200191611da0565b820191906000526020600020905b815481529060010190602001808311611d8357829003601f168201915b50505050508152602001600282018054611db99061425f565b80601f0160208091040260200160405190810160405280929190818152602001828054611de59061425f565b8015611e325780601f10611e0757610100808354040283529160200191611e32565b820191906000526020600020905b815481529060010190602001808311611e1557829003601f168201915b50505050508152602001600382018054611e4b9061425f565b80601f0160208091040260200160405190810160405280929190818152602001828054611e779061425f565b8015611ec45780601f10611e9957610100808354040283529160200191611ec4565b820191906000526020600020905b815481529060010190602001808311611ea757829003601f168201915b50505050508152602001600482018054611edd9061425f565b80601f0160208091040260200160405190810160405280929190818152602001828054611f099061425f565b8015611f565780601f10611f2b57610100808354040283529160200191611f56565b820191906000526020600020905b815481529060010190602001808311611f3957829003601f168201915b5050505050815250508152602001600882018054611f739061425f565b80601f0160208091040260200160405190810160405280929190818152602001828054611f9f9061425f565b8015611fec5780601f10611fc157610100808354040283529160200191611fec565b820191906000526020600020905b815481529060010190602001808311611fcf57829003601f168201915b505050505081526020016009820180546120059061425f565b80601f01602080910402602001604051908101604052809291908181526020018280546120319061425f565b801561207e5780601f106120535761010080835404028352916020019161207e565b820191906000526020600020905b81548152906001019060200180831161206157829003601f168201915b50505050508152602001600a82018054806020026020016040519081016040528092919081815260200182805480156120d657602002820191906000526020600020905b8154815260200190600101908083116120c2575b50505050508152602001600b820180548060200260200160405190810160405280929190818152602001828054801561212e57602002820191906000526020600020905b81548152602001906001019080831161211a575b5050509183525050600c820154602080830191909152600d8301546040830152600e9092015460ff808216151560608401526101009091041615156080909101529082526001929092019101611b16565b6000338161218d8286612a61565b9050838110156121ed5760405162461bcd60e51b815260206004820152602560248201527f45524332303a2064656372656173656420616c6c6f77616e63652062656c6f77604482015264207a65726f60d81b60648201526084016116af565b61082a828686840361345d565b6000336105ea8185856135fb565b6000818152600a6020908152604080832033845290915290206001015460ff161561227f5760405162461bcd60e51b815260206004820152602160248201527f53656e6465722068617320616c7265616479206265696e6720726577617264656044820152601960fa1b60648201526084016116af565b60088181548110612292576122926143c6565b60009182526020909120600e600f90920201015460ff6101009091041615156001146122f95760405162461bcd60e51b815260206004820152601660248201527511dbd85b081a185cc81b9bdd08195b991959081e595d60521b60448201526064016116af565b6000818152600a602090815260408083203384529091529020548061236b5760405162461bcd60e51b815260206004820152602260248201527f4e6f20636f6e747269627574696f6e73206d61646520746f207468697320676f604482015261185b60f21b60648201526084016116af565b612381336103f383670429d069189e0000614226565b505050565b600554604051635cbffa5160e11b81526004810183905282916000916001600160a01b039091169063b97ff4a290602401608060405180830381865afa1580156123d4573d6000803e3d6000fd5b505050506040513d601f19601f820116820180604052508101906123f8919061441d565b9350508215915061244690505760405162461bcd60e51b815260206004820152601660248201527514185c9d1b995c88159bdd19481a185cc8195b99195960521b60448201526064016116af565b600554604051635cbffa5160e11b815260048101859052600091829182916001600160a01b03169063b97ff4a290602401608060405180830381865afa158015612494573d6000803e3d6000fd5b505050506040513d601f19601f820116820180604052508101906124b8919061441d565b50925092509250804210156124df5760405162461bcd60e51b81526004016116af90614463565b81831115612588576001600987815481106124fc576124fc6143c6565b60009182526020909120600d90910201600c01805460ff191691151591909117905560055460405163b23e33dd60e01b81526001600160a01b039091169063b23e33dd9061255190899060019060040161448d565b600060405180830381600087803b15801561256b57600080fd5b505af115801561257f573d6000803e3d6000fd5b50505050612673565b8183036125d6576005546001600160a01b0316639da9c593876125ad4261012c6143b3565b6040516001600160e01b031960e085901b16815260048101929092526024820152604401612551565b6000600987815481106125eb576125eb6143c6565b60009182526020909120600d90910201600c01805460ff191691151591909117905560055460405163b23e33dd60e01b81526001600160a01b039091169063b23e33dd9061264090899060019060040161448d565b600060405180830381600087803b15801561265a57600080fd5b505af115801561266e573d6000803e3d6000fd5b505050505b505050505050565b806008818154811061268f5761268f6143c6565b60009182526020909120600f90910201600e0154610100900460ff16156126c85760405162461bcd60e51b81526004016116af906143dc565b81600881815481106126dc576126dc6143c6565b60009182526020909120600e600f90920201015460ff16151560011461273b5760405162461bcd60e51b815260206004820152601460248201527311dbd85b081a5cc81b9bdd08185c1c1c9bdd995960621b60448201526064016116af565b6000838152600a6020908152604080832033845290915281205461275e90610516565b6000858152600a6020908152604080832033845290915281208054929350349290919061278c9084906143b3565b909155505060c88111612820576000848152600a6020908152604080832033845290915290205460c8116128205760055460405163589060b560e11b81526001600160a01b039091169063b120c16a906127ed903390600190600401614404565b600060405180830381600087803b15801561280757600080fd5b505af115801561281b573d6000803e3d6000fd5b505050505b3460088581548110612834576128346143c6565b90600052602060002090600f0201600d01600082825461285491906143b3565b909155505050505050565b60005b60088381548110612875576128756143c6565b90600052602060002090600f0201600a0180549050811015612381576000600884815481106128a6576128a66143c6565b90600052602060002090600f0201600a0182815481106128c8576128c86143c6565b90600052602060002001549050336001600160a01b0316600982815481106128f2576128f26143c6565b600091825260209091206001600d9092020101546001600160a01b031603612a5857600034118015612947575060088481548110612932576129326143c6565b90600052602060002090600f0201600d015434105b6129ab5760405162461bcd60e51b815260206004820152602f60248201527f5769746864726177616c20616d6f756e74206d7573742062652062657477656560448201526e6e203020616e642062616c616e636560881b60648201526084016116af565b60405133903480156108fc02916000818181858888f193505050501580156129d7573d6000803e3d6000fd5b50336001600160a01b0316847fc2efd65628bffdae5ea1eb20fbc01a4616b03e5c5a8c444a711d6fd3e723a09e833487604051612a169392919061449d565b60405180910390a33460088581548110612a3257612a326143c6565b90600052602060002090600f0201600d016000828254612a5291906143a0565b90915550505b50600101612862565b6001600160a01b03918216600090815260016020908152604080832093909416825291909152205490565b612a94613847565b60088281548110612aa757612aa76143c6565b90600052602060002090600f020160405180610180016040529081600082018054612ad19061425f565b80601f0160208091040260200160405190810160405280929190818152602001828054612afd9061425f565b8015612b4a5780601f10612b1f57610100808354040283529160200191612b4a565b820191906000526020600020905b815481529060010190602001808311612b2d57829003601f168201915b505050918352505060018201546001600160a01b03166020820152600282018054604090920191612b7a9061425f565b80601f0160208091040260200160405190810160405280929190818152602001828054612ba69061425f565b8015612bf35780601f10612bc857610100808354040283529160200191612bf3565b820191906000526020600020905b815481529060010190602001808311612bd657829003601f168201915b50505050508152602001600382016040518060a0016040529081600082018054612c1c9061425f565b80601f0160208091040260200160405190810160405280929190818152602001828054612c489061425f565b8015612c955780601f10612c6a57610100808354040283529160200191612c95565b820191906000526020600020905b815481529060010190602001808311612c7857829003601f168201915b50505050508152602001600182018054612cae9061425f565b80601f0160208091040260200160405190810160405280929190818152602001828054612cda9061425f565b8015612d275780601f10612cfc57610100808354040283529160200191612d27565b820191906000526020600020905b815481529060010190602001808311612d0a57829003601f168201915b50505050508152602001600282018054612d409061425f565b80601f0160208091040260200160405190810160405280929190818152602001828054612d6c9061425f565b8015612db95780601f10612d8e57610100808354040283529160200191612db9565b820191906000526020600020905b815481529060010190602001808311612d9c57829003601f168201915b50505050508152602001600382018054612dd29061425f565b80601f0160208091040260200160405190810160405280929190818152602001828054612dfe9061425f565b8015612e4b5780601f10612e2057610100808354040283529160200191612e4b565b820191906000526020600020905b815481529060010190602001808311612e2e57829003601f168201915b50505050508152602001600482018054612e649061425f565b80601f0160208091040260200160405190810160405280929190818152602001828054612e909061425f565b8015612edd5780601f10612eb257610100808354040283529160200191612edd565b820191906000526020600020905b815481529060010190602001808311612ec057829003601f168201915b5050505050815250508152602001600882018054612efa9061425f565b80601f0160208091040260200160405190810160405280929190818152602001828054612f269061425f565b8015612f735780601f10612f4857610100808354040283529160200191612f73565b820191906000526020600020905b815481529060010190602001808311612f5657829003601f168201915b50505050508152602001600982018054612f8c9061425f565b80601f0160208091040260200160405190810160405280929190818152602001828054612fb89061425f565b80156130055780601f10612fda57610100808354040283529160200191613005565b820191906000526020600020905b815481529060010190602001808311612fe857829003601f168201915b50505050508152602001600a820180548060200260200160405190810160405280929190818152602001828054801561305d57602002820191906000526020600020905b815481526020019060010190808311613049575b50505050508152602001600b82018054806020026020016040519081016040528092919081815260200182805480156130b557602002820191906000526020600020905b8154815260200190600101908083116130a1575b5050509183525050600c8201546020820152600d8201546040820152600e9091015460ff8082161515606084015261010090910416151560809091015292915050565b600554604051630121b93f60e01b81526004810183905282916000916001600160a01b0390911690630121b93f90602401608060405180830381865afa158015613146573d6000803e3d6000fd5b505050506040513d601f19601f8201168201806040525081019061316a919061441d565b935050821591506131b590505760405162461bcd60e51b815260206004820152601360248201527211dbd85b08159bdd19481a185cc8195b991959606a1b60448201526064016116af565b600554604051630121b93f60e01b815260048101859052600091829182916001600160a01b031690630121b93f90602401608060405180830381865afa158015613203573d6000803e3d6000fd5b505050506040513d601f19601f82011682018060405250810190613227919061441d565b509250925092508042101561324e5760405162461bcd60e51b81526004016116af90614463565b818311156132c05760016008878154811061326b5761326b6143c6565b60009182526020909120600f90910201600e01805460ff1916911515919091179055600554604051631232d0a560e31b81526001600160a01b039091169063919685289061255190899060019060040161448d565b8183036132e5576005546001600160a01b031663b803a58d876125ad4261012c6143b3565b6000600887815481106132fa576132fa6143c6565b60009182526020909120600f90910201600e01805460ff1916911515919091179055600554604051631232d0a560e31b81526001600160a01b039091169063919685289061264090899060019060040161448d565b60055460405163b9f7945160e01b81526000916001600160a01b03169063b9f7945190613380903390600401613fdd565b602060405180830381865afa15801561339d573d6000803e3d6000fd5b505050506040513d601f19601f820116820180604052508101906133c191906144bc565b905090565b600080600660009054906101000a90046001600160a01b03166001600160a01b031663feaf968c6040518163ffffffff1660e01b815260040160a060405180830381865afa15801561341c573d6000803e3d6000fd5b505050506040513d601f19601f8201168201806040525081019061344091906144ec565b505050915050806402540be400613457919061453c565b91505090565b6001600160a01b0383166134bf5760405162461bcd60e51b8152602060048201526024808201527f45524332303a20617070726f76652066726f6d20746865207a65726f206164646044820152637265737360e01b60648201526084016116af565b6001600160a01b0382166135205760405162461bcd60e51b815260206004820152602260248201527f45524332303a20617070726f766520746f20746865207a65726f206164647265604482015261737360f01b60648201526084016116af565b6001600160a01b0383811660008181526001602090815260408083209487168084529482529182902085905590518481527f8c5be1e5ebec7d5bd14f71427d1e84f3dd0314c0f7b2291e5b200ac8c7c3b925910160405180910390a3505050565b600061358d8484612a61565b905060001981146135f557818110156135e85760405162461bcd60e51b815260206004820152601d60248201527f45524332303a20696e73756666696369656e7420616c6c6f77616e636500000060448201526064016116af565b6135f5848484840361345d565b50505050565b6001600160a01b03831661365f5760405162461bcd60e51b815260206004820152602560248201527f45524332303a207472616e736665722066726f6d20746865207a65726f206164604482015264647265737360d81b60648201526084016116af565b6001600160a01b0382166136c15760405162461bcd60e51b815260206004820152602360248201527f45524332303a207472616e7366657220746f20746865207a65726f206164647260448201526265737360e81b60648201526084016116af565b6001600160a01b038316600090815260208190526040902054818110156137395760405162461bcd60e51b815260206004820152602660248201527f45524332303a207472616e7366657220616d6f756e7420657863656564732062604482015265616c616e636560d01b60648201526084016116af565b6001600160a01b03848116600081815260208181526040808320878703905593871680835291849020805487019055925185815290927fddf252ad1be2c89b69c2b068fc378daa952ba7f163c4a11628f55a4df523b3ef910160405180910390a36135f5565b8280548282559060005260206000209081019282156137da579160200282015b828111156137da5782518255916020019190600101906137bf565b506137e69291506138bb565b5090565b6040518061012001604052806060815260200160006001600160a01b0316815260200160608152602001600081526020016138236138d0565b81526020016060815260200160608152602001600081526020016000151581525090565b6040518061018001604052806060815260200160006001600160a01b03168152602001606081526020016138796138d0565b81526020016060815260200160608152602001606081526020016060815260200160008152602001600081526020016000151581526020016000151581525090565b5b808211156137e657600081556001016138bc565b6040518060a0016040528060608152602001606081526020016060815260200160608152602001606081525090565b60006020828403121561391157600080fd5b5035919050565b6000815180845260005b8181101561393e57602081850181015186830182015201613922565b506000602082860101526020601f19601f83011685010191505092915050565b6020815260006139716020830184613918565b9392505050565b80356001600160a01b038116811461398f57600080fd5b919050565b600080604083850312156139a757600080fd5b6139b083613978565b946020939093013593505050565b634e487b7160e01b600052604160045260246000fd5b60405160a081016001600160401b03811182821017156139f6576139f66139be565b60405290565b604051601f8201601f191681016001600160401b0381118282101715613a2457613a246139be565b604052919050565b600082601f830112613a3d57600080fd5b81356001600160401b03811115613a5657613a566139be565b613a69601f8201601f19166020016139fc565b818152846020838601011115613a7e57600080fd5b816020850160208301376000918101602001919091529392505050565b600060a08284031215613aad57600080fd5b613ab56139d4565b905081356001600160401b0380821115613ace57600080fd5b613ada85838601613a2c565b83526020840135915080821115613af057600080fd5b613afc85838601613a2c565b60208401526040840135915080821115613b1557600080fd5b613b2185838601613a2c565b60408401526060840135915080821115613b3a57600080fd5b613b4685838601613a2c565b60608401526080840135915080821115613b5f57600080fd5b50613b6c84828501613a2c565b60808301525092915050565b60008060008060008060c08789031215613b9157600080fd5b86356001600160401b0380821115613ba857600080fd5b613bb48a838b01613a2c565b97506020890135915080821115613bca57600080fd5b613bd68a838b01613a2c565b9650604089013595506060890135915080821115613bf357600080fd5b613bff8a838b01613a9b565b94506080890135915080821115613c1557600080fd5b613c218a838b01613a2c565b935060a0890135915080821115613c3757600080fd5b50613c4489828a01613a2c565b9150509295509295509295565b600080600060608486031215613c6657600080fd5b613c6f84613978565b9250613c7d60208501613978565b9150604084013590509250925092565b600082601f830112613c9e57600080fd5b813560206001600160401b03821115613cb957613cb96139be565b8160051b613cc88282016139fc565b9283528481018201928281019087851115613ce257600080fd5b83870192505b84831015613d0157823582529183019190830190613ce8565b979650505050505050565b60008060008060008060c08789031215613d2557600080fd5b86356001600160401b0380821115613d3c57600080fd5b613d488a838b01613a2c565b97506020890135915080821115613d5e57600080fd5b613d6a8a838b01613a2c565b96506040890135915080821115613d8057600080fd5b613d8c8a838b01613a9b565b95506060890135915080821115613da257600080fd5b613dae8a838b01613a2c565b94506080890135915080821115613dc457600080fd5b613dd08a838b01613a2c565b935060a0890135915080821115613de657600080fd5b50613c4489828a01613c8d565b600060208284031215613e0557600080fd5b61397182613978565b6001600160a01b03169052565b6000815160a08452613e3060a0850182613918565b905060208301518482036020860152613e498282613918565b91505060408301518482036040860152613e638282613918565b91505060608301518482036060860152613e7d8282613918565b91505060808301518482036080860152613e978282613918565b95945050505050565b60006101208251818552613eb682860182613918565b9150506020830151613ecb6020860182613e0e565b5060408301518482036040860152613ee38282613918565b9150506060830151606085015260808301518482036080860152613f078282613e1b565b91505060a083015184820360a0860152613f218282613918565b91505060c083015184820360c0860152613f3b8282613918565b91505060e083015160e085015261010080840151613f5c8287018215159052565b5090949350505050565b600060208083016020845280855180835260408601915060408160051b87010192506020870160005b82811015613fbd57603f19888603018452613fab858351613ea0565b94509285019290850190600101613f8f565b5092979650505050505050565b6020815260006139716020830184613ea0565b6001600160a01b0391909116815260200190565b60008151808452602080850194506020840160005b8381101561402257815187529582019590820190600101614006565b509495945050505050565b6000610180825181855261404382860182613918565b91505060208301516140586020860182613e0e565b50604083015184820360408601526140708282613918565b9150506060830151848203606086015261408a8282613e1b565b915050608083015184820360808601526140a48282613918565b91505060a083015184820360a08601526140be8282613918565b91505060c083015184820360c08601526140d88282613ff1565b91505060e083015184820360e08601526140f28282613ff1565b610100858101519087015261012080860151908701526101408086015115159087015261016080860151801515828901529193509150613f5c565b600060208083016020845280855180835260408601915060408160051b87010192506020870160005b82811015613fbd57603f1988860301845261417285835161402d565b94509285019290850190600101614156565b6000806040838503121561419757600080fd5b8235915060208301356001600160401b038111156141b457600080fd5b6141c085828601613a2c565b9150509250929050565b600080604083850312156141dd57600080fd5b6141e683613978565b91506141f460208401613978565b90509250929050565b602081526000613971602083018461402d565b634e487b7160e01b600052601160045260246000fd5b80820281158282048414176105f0576105f0614210565b60008261425a57634e487b7160e01b600052601260045260246000fd5b500490565b600181811c9082168061427357607f821691505b60208210810361429357634e487b7160e01b600052602260045260246000fd5b50919050565b601f821115612381576000816000526020600020601f850160051c810160208610156142c25750805b601f850160051c820191505b81811015612673578281556001016142ce565b81516001600160401b038111156142fa576142fa6139be565b61430e81614308845461425f565b84614299565b602080601f831160018114614343576000841561432b5750858301515b600019600386901b1c1916600185901b178555612673565b600085815260208120601f198616915b8281101561437257888601518255948401946001909101908401614353565b50858210156143905787850151600019600388901b60f8161c191681555b5050505050600190811b01905550565b818103818111156105f0576105f0614210565b808201808211156105f0576105f0614210565b634e487b7160e01b600052603260045260246000fd5b6020808252600e908201526d11dbd85b081a185cc8195b99195960921b604082015260600190565b6001600160a01b03929092168252602082015260400190565b6000806000806080858703121561443357600080fd5b8451935060208501519250604085015191506060850151801515811461445857600080fd5b939692955090935050565b60208082526010908201526f159bdd19481b9bdd08195e1c1a5c995960821b604082015260600190565b9182521515602082015260400190565b838152826020820152606060408201526000613e976060830184613918565b6000602082840312156144ce57600080fd5b5051919050565b80516001600160501b038116811461398f57600080fd5b600080600080600060a0868803121561450457600080fd5b61450d866144d5565b9450602086015193506040860151925060608601519150614530608087016144d5565b90509295509295909350565b80820260008212600160ff1b8414161561455857614558614210565b81810583148215176105f0576105f061421056fea2646970667358221220d8f82e3e9b5e78bd82181e4f8aaa35f1a29816182426d52f29d0e9e5501ffb4964736f6c63430008180033608060405234801561001057600080fd5b506109ee806100206000396000f3fe608060405234801561001057600080fd5b50600436106100e65760003560e01c80630121b93f146100eb5780630a1f548a1461014a57806326f39058146101885780633ca4bc5e1461019d5780635277b4ae146101e557806365410fe8146102135780637746036014610226578063919685281461023957806397dd799f1461026a5780639da9c5931461027d578063b120c16a146102a2578063b23e33dd146102b5578063b803a58d146102e6578063b97ff4a214610309578063b9df883e14610343578063b9f7945114610371578063bbf3fb781461039f578063bc143c96146103cd575b600080fd5b6101236100f93660046107b8565b60006020819052908152604090208054600182015460028301546003909301549192909160ff1684565b60408051948552602085019390935291830152151560608201526080015b60405180910390f35b6101786101583660046107ed565b600360209081526000928352604080842090915290825290205460ff1681565b6040519015158152602001610141565b61019b6101963660046107b8565b6103e0565b005b6101b06101ab3660046107b8565b6104d2565b604051610141919081518152602080830151908201526040808301519082015260609182015115159181019190915260800190565b6101786101f33660046107ed565b600160209081526000928352604080842090915290825290205460ff1681565b6101b06102213660046107b8565b610522565b61019b6102343660046107b8565b610571565b61019b610247366004610819565b600091825260208290526040909120600301805460ff1916911515919091179055565b61019b6102783660046107b8565b610662565b61019b61028b36600461084e565b600091825260026020819052604090922090910155565b61019b6102b0366004610870565b6106d0565b61019b6102c3366004610819565b600091825260026020526040909120600301805460ff1916911515919091179055565b61019b6102f436600461084e565b60009182526020829052604090912060020155565b6101236103173660046107b8565b600260208190526000918252604090912080546001820154928201546003909201549092919060ff1684565b6101786103513660046107b8565b600090815260036020908152604080832033845290915290205460ff1690565b61039161037f36600461089a565b60046020526000908152604090205481565b604051908152602001610141565b6101786103ad3660046107b8565b600090815260016020908152604080832033845290915290205460ff1690565b61019b6103db3660046107b8565b610701565b6000818152600360209081526040808320338452909152902054819060ff16156104255760405162461bcd60e51b815260040161041c906108bc565b60405180910390fd5b336000908152600460205260409020546002106104545760405162461bcd60e51b815260040161041c906108ec565b600082815260208190526040902060020154829042106104865760405162461bcd60e51b815260040161041c90610930565b60008381526002602052604081208054600192906104a5908490610962565b9091555050506000918252506003602090815260408083203384529091529020805460ff19166001179055565b6104da61078e565b506000908152602081815260409182902082516080810184528154815260018201549281019290925260028101549282019290925260039091015460ff161515606082015290565b61052a61078e565b5060009081526002602081815260409283902083516080810185528154815260018201549281019290925291820154928101929092526003015460ff161515606082015290565b6000818152600360209081526040808320338452909152902054819060ff16156105ad5760405162461bcd60e51b815260040161041c906108bc565b336000908152600460205260409020546002106105dc5760405162461bcd60e51b815260040161041c906108ec565b6000828152602081905260409020600201548290421061060e5760405162461bcd60e51b815260040161041c90610930565b600160008085815260200190815260200160002060010160008282546106349190610962565b909155505050600091825250600160208181526040808420338552909152909120805460ff19169091179055565b6000818152600160209081526040808320338452909152902054819060ff161561069e5760405162461bcd60e51b815260040161041c906108bc565b6000828152602081905260409020600201548290421061060e5760405162461bcd60e51b815260040161041c90610989565b6001600160a01b038216600090815260046020526040812080548392906106f8908490610962565b90915550505050565b6000818152600160209081526040808320338452909152902054819060ff161561073d5760405162461bcd60e51b815260040161041c906108bc565b6000828152602081905260409020600201548290421061076f5760405162461bcd60e51b815260040161041c90610989565b6000838152602081905260408120805460019290610634908490610962565b60405180608001604052806000815260200160008152602001600081526020016000151581525090565b6000602082840312156107ca57600080fd5b5035919050565b80356001600160a01b03811681146107e857600080fd5b919050565b6000806040838503121561080057600080fd5b82359150610810602084016107d1565b90509250929050565b6000806040838503121561082c57600080fd5b823591506020830135801515811461084357600080fd5b809150509250929050565b6000806040838503121561086157600080fd5b50508035926020909101359150565b6000806040838503121561088357600080fd5b61088c836107d1565b946020939093013593505050565b6000602082840312156108ac57600080fd5b6108b5826107d1565b9392505050565b602080825260169082015275557365722068617320766f74656420616c726561647960501b604082015260600190565b60208082526024908201527f5573657220646f6573206e6f74206861766520656e6f756768207265707574616040820152633a34b7b760e11b606082015260800190565b60208082526018908201527714185c9d1b995c88159bdd19481a185cc8195e1c1a5c995960421b604082015260600190565b8082018082111561098357634e487b7160e01b600052601160045260246000fd5b92915050565b60208082526015908201527411dbd85b08159bdd19481a185cc8195e1c1a5c9959605a1b60408201526060019056fea26469706673582212201729ad6a54df25b99a59464885c62a4400ee2f79ec4b568e86675e4971801c4b64736f6c63430008180033",
  "linkReferences": {},
  "deployedLinkReferences": {}
}