{
  "_format": "hh-sol-artifact-1",
  "contractName": "Dao",
  "sourceName": "contracts/Dao.sol",
  "abi": [
    {
      "inputs": [
        {
          "internalType": "uint256",
          "name": "_id",
          "type": "uint256"
        }
      ],
      "name": "approveGoal",
      "outputs": [],
      "stateMutability": "nonpayable",
      "type": "function"
    },
    {
      "inputs": [
        {
          "internalType": "uint256",
          "name": "_id",
          "type": "uint256"
        }
      ],
      "name": "approvePartner",
      "outputs": [],
      "stateMutability": "nonpayable",
      "type": "function"
    },
    {
      "inputs": [
        {
          "internalType": "uint256",
          "name": "_id",
          "type": "uint256"
        }
      ],
      "name": "getGoalVote",
      "outputs": [
        {
          "components": [
            {
              "internalType": "uint256",
              "name": "approve",
              "type": "uint256"
            },
            {
              "internalType": "uint256",
              "name": "reject",
              "type": "uint256"
            },
            {
              "internalType": "uint256",
              "name": "expire",
              "type": "uint256"
            },
            {
              "internalType": "bool",
              "name": "checked",
              "type": "bool"
            }
          ],
          "internalType": "struct Dao.IVote",
          "name": "",
          "type": "tuple"
        }
      ],
      "stateMutability": "view",
      "type": "function"
    },
    {
      "inputs": [
        {
          "internalType": "uint256",
          "name": "_id",
          "type": "uint256"
        }
      ],
      "name": "getPartnerVote",
      "outputs": [
        {
          "components": [
            {
              "internalType": "uint256",
              "name": "approve",
              "type": "uint256"
            },
            {
              "internalType": "uint256",
              "name": "reject",
              "type": "uint256"
            },
            {
              "internalType": "uint256",
              "name": "expire",
              "type": "uint256"
            },
            {
              "internalType": "bool",
              "name": "checked",
              "type": "bool"
            }
          ],
          "internalType": "struct Dao.IVote",
          "name": "",
          "type": "tuple"
        }
      ],
      "stateMutability": "view",
      "type": "function"
    },
    {
      "inputs": [
        {
          "internalType": "uint256",
          "name": "_id",
          "type": "uint256"
        }
      ],
      "name": "hasVotedOnGoal",
      "outputs": [
        {
          "internalType": "bool",
          "name": "",
          "type": "bool"
        }
      ],
      "stateMutability": "view",
      "type": "function"
    },
    {
      "inputs": [
        {
          "internalType": "uint256",
          "name": "_id",
          "type": "uint256"
        }
      ],
      "name": "hasVotedOnPartner",
      "outputs": [
        {
          "internalType": "bool",
          "name": "",
          "type": "bool"
        }
      ],
      "stateMutability": "view",
      "type": "function"
    },
    {
      "inputs": [
        {
          "internalType": "uint256",
          "name": "",
          "type": "uint256"
        }
      ],
      "name": "partnerVote",
      "outputs": [
        {
          "internalType": "uint256",
          "name": "approve",
          "type": "uint256"
        },
        {
          "internalType": "uint256",
          "name": "reject",
          "type": "uint256"
        },
        {
          "internalType": "uint256",
          "name": "expire",
          "type": "uint256"
        },
        {
          "internalType": "bool",
          "name": "checked",
          "type": "bool"
        }
      ],
      "stateMutability": "view",
      "type": "function"
    },
    {
      "inputs": [
        {
          "internalType": "uint256",
          "name": "",
          "type": "uint256"
        },
        {
          "internalType": "address",
          "name": "",
          "type": "address"
        }
      ],
      "name": "partnerVoted",
      "outputs": [
        {
          "internalType": "bool",
          "name": "",
          "type": "bool"
        }
      ],
      "stateMutability": "view",
      "type": "function"
    },
    {
      "inputs": [
        {
          "internalType": "uint256",
          "name": "_id",
          "type": "uint256"
        }
      ],
      "name": "rejectGoal",
      "outputs": [],
      "stateMutability": "nonpayable",
      "type": "function"
    },
    {
      "inputs": [
        {
          "internalType": "uint256",
          "name": "_id",
          "type": "uint256"
        }
      ],
      "name": "rejectPartner",
      "outputs": [],
      "stateMutability": "nonpayable",
      "type": "function"
    },
    {
      "inputs": [
        {
          "internalType": "address",
          "name": "",
          "type": "address"
        }
      ],
      "name": "reputation",
      "outputs": [
        {
          "internalType": "uint256",
          "name": "",
          "type": "uint256"
        }
      ],
      "stateMutability": "view",
      "type": "function"
    },
    {
      "inputs": [
        {
          "internalType": "uint256",
          "name": "_id",
          "type": "uint256"
        },
        {
          "internalType": "bool",
          "name": "boolean",
          "type": "bool"
        }
      ],
      "name": "setGoalCheck",
      "outputs": [],
      "stateMutability": "nonpayable",
      "type": "function"
    },
    {
      "inputs": [
        {
          "internalType": "uint256",
          "name": "_id",
          "type": "uint256"
        },
        {
          "internalType": "uint256",
          "name": "time",
          "type": "uint256"
        }
      ],
      "name": "setGoalExpire",
      "outputs": [],
      "stateMutability": "nonpayable",
      "type": "function"
    },
    {
      "inputs": [
        {
          "internalType": "uint256",
          "name": "_id",
          "type": "uint256"
        },
        {
          "internalType": "bool",
          "name": "boolean",
          "type": "bool"
        }
      ],
      "name": "setPartnerCheck",
      "outputs": [],
      "stateMutability": "nonpayable",
      "type": "function"
    },
    {
      "inputs": [
        {
          "internalType": "uint256",
          "name": "_id",
          "type": "uint256"
        },
        {
          "internalType": "uint256",
          "name": "time",
          "type": "uint256"
        }
      ],
      "name": "setPartnerExpire",
      "outputs": [],
      "stateMutability": "nonpayable",
      "type": "function"
    },
    {
      "inputs": [
        {
          "internalType": "address",
          "name": "caller",
          "type": "address"
        },
        {
          "internalType": "uint256",
          "name": "number",
          "type": "uint256"
        }
      ],
      "name": "setReputation",
      "outputs": [],
      "stateMutability": "nonpayable",
      "type": "function"
    },
    {
      "inputs": [
        {
          "internalType": "uint256",
          "name": "",
          "type": "uint256"
        }
      ],
      "name": "vote",
      "outputs": [
        {
          "internalType": "uint256",
          "name": "approve",
          "type": "uint256"
        },
        {
          "internalType": "uint256",
          "name": "reject",
          "type": "uint256"
        },
        {
          "internalType": "uint256",
          "name": "expire",
          "type": "uint256"
        },
        {
          "internalType": "bool",
          "name": "checked",
          "type": "bool"
        }
      ],
      "stateMutability": "view",
      "type": "function"
    },
    {
      "inputs": [
        {
          "internalType": "uint256",
          "name": "",
          "type": "uint256"
        },
        {
          "internalType": "address",
          "name": "",
          "type": "address"
        }
      ],
      "name": "voted",
      "outputs": [
        {
          "internalType": "bool",
          "name": "",
          "type": "bool"
        }
      ],
      "stateMutability": "view",
      "type": "function"
    }
  ],
  "bytecode": "0x608060405234801561001057600080fd5b506109ee806100206000396000f3fe608060405234801561001057600080fd5b50600436106100e65760003560e01c80630121b93f146100eb5780630a1f548a1461014a57806326f39058146101885780633ca4bc5e1461019d5780635277b4ae146101e557806365410fe8146102135780637746036014610226578063919685281461023957806397dd799f1461026a5780639da9c5931461027d578063b120c16a146102a2578063b23e33dd146102b5578063b803a58d146102e6578063b97ff4a214610309578063b9df883e14610343578063b9f7945114610371578063bbf3fb781461039f578063bc143c96146103cd575b600080fd5b6101236100f93660046107b8565b60006020819052908152604090208054600182015460028301546003909301549192909160ff1684565b60408051948552602085019390935291830152151560608201526080015b60405180910390f35b6101786101583660046107ed565b600360209081526000928352604080842090915290825290205460ff1681565b6040519015158152602001610141565b61019b6101963660046107b8565b6103e0565b005b6101b06101ab3660046107b8565b6104d2565b604051610141919081518152602080830151908201526040808301519082015260609182015115159181019190915260800190565b6101786101f33660046107ed565b600160209081526000928352604080842090915290825290205460ff1681565b6101b06102213660046107b8565b610522565b61019b6102343660046107b8565b610571565b61019b610247366004610819565b600091825260208290526040909120600301805460ff1916911515919091179055565b61019b6102783660046107b8565b610662565b61019b61028b36600461084e565b600091825260026020819052604090922090910155565b61019b6102b0366004610870565b6106d0565b61019b6102c3366004610819565b600091825260026020526040909120600301805460ff1916911515919091179055565b61019b6102f436600461084e565b60009182526020829052604090912060020155565b6101236103173660046107b8565b600260208190526000918252604090912080546001820154928201546003909201549092919060ff1684565b6101786103513660046107b8565b600090815260036020908152604080832033845290915290205460ff1690565b61039161037f36600461089a565b60046020526000908152604090205481565b604051908152602001610141565b6101786103ad3660046107b8565b600090815260016020908152604080832033845290915290205460ff1690565b61019b6103db3660046107b8565b610701565b6000818152600360209081526040808320338452909152902054819060ff16156104255760405162461bcd60e51b815260040161041c906108bc565b60405180910390fd5b336000908152600460205260409020546002106104545760405162461bcd60e51b815260040161041c906108ec565b600082815260208190526040902060020154829042106104865760405162461bcd60e51b815260040161041c90610930565b60008381526002602052604081208054600192906104a5908490610962565b9091555050506000918252506003602090815260408083203384529091529020805460ff19166001179055565b6104da61078e565b506000908152602081815260409182902082516080810184528154815260018201549281019290925260028101549282019290925260039091015460ff161515606082015290565b61052a61078e565b5060009081526002602081815260409283902083516080810185528154815260018201549281019290925291820154928101929092526003015460ff161515606082015290565b6000818152600360209081526040808320338452909152902054819060ff16156105ad5760405162461bcd60e51b815260040161041c906108bc565b336000908152600460205260409020546002106105dc5760405162461bcd60e51b815260040161041c906108ec565b6000828152602081905260409020600201548290421061060e5760405162461bcd60e51b815260040161041c90610930565b600160008085815260200190815260200160002060010160008282546106349190610962565b909155505050600091825250600160208181526040808420338552909152909120805460ff19169091179055565b6000818152600160209081526040808320338452909152902054819060ff161561069e5760405162461bcd60e51b815260040161041c906108bc565b6000828152602081905260409020600201548290421061060e5760405162461bcd60e51b815260040161041c90610989565b6001600160a01b038216600090815260046020526040812080548392906106f8908490610962565b90915550505050565b6000818152600160209081526040808320338452909152902054819060ff161561073d5760405162461bcd60e51b815260040161041c906108bc565b6000828152602081905260409020600201548290421061076f5760405162461bcd60e51b815260040161041c90610989565b6000838152602081905260408120805460019290610634908490610962565b60405180608001604052806000815260200160008152602001600081526020016000151581525090565b6000602082840312156107ca57600080fd5b5035919050565b80356001600160a01b03811681146107e857600080fd5b919050565b6000806040838503121561080057600080fd5b82359150610810602084016107d1565b90509250929050565b6000806040838503121561082c57600080fd5b823591506020830135801515811461084357600080fd5b809150509250929050565b6000806040838503121561086157600080fd5b50508035926020909101359150565b6000806040838503121561088357600080fd5b61088c836107d1565b946020939093013593505050565b6000602082840312156108ac57600080fd5b6108b5826107d1565b9392505050565b602080825260169082015275557365722068617320766f74656420616c726561647960501b604082015260600190565b60208082526024908201527f5573657220646f6573206e6f74206861766520656e6f756768207265707574616040820152633a34b7b760e11b606082015260800190565b60208082526018908201527714185c9d1b995c88159bdd19481a185cc8195e1c1a5c995960421b604082015260600190565b8082018082111561098357634e487b7160e01b600052601160045260246000fd5b92915050565b60208082526015908201527411dbd85b08159bdd19481a185cc8195e1c1a5c9959605a1b60408201526060019056fea26469706673582212201729ad6a54df25b99a59464885c62a4400ee2f79ec4b568e86675e4971801c4b64736f6c63430008180033",
  "linkReferences": {},
  "deployedLinkReferences": {}
}