{
  "_format": "hh-sol-artifact-1",
  "contractName": "GoalSight",
  "sourceName": "contracts/GoalSight.sol",
  "abi": [
    {
      "inputs": [
        {
          "internalType": "uint256",
          "name": "initialSupply",
          "type": "uint256"
        }
      ],
      "stateMutability": "nonpayable",
      "type": "constructor"
    },
    {
      "anonymous": false,
      "inputs": [
        {
          "indexed": true,
          "internalType": "address",
          "name": "owner",
          "type": "address"
        },
        {
          "indexed": true,
          "internalType": "address",
          "name": "spender",
          "type": "address"
        },
        {
          "indexed": false,
          "internalType": "uint256",
          "name": "value",
          "type": "uint256"
        }
      ],
      "name": "Approval",
      "type": "event"
    },
    {
      "anonymous": false,
      "inputs": [
        {
          "indexed": true,
          "internalType": "uint256",
          "name": "id",
          "type": "uint256"
        },
        {
          "indexed": true,
          "internalType": "address",
          "name": "to",
          "type": "address"
        },
        {
          "indexed": false,
          "internalType": "uint256",
          "name": "partnerID",
          "type": "uint256"
        },
        {
          "indexed": false,
          "internalType": "uint256",
          "name": "amount",
          "type": "uint256"
        },
        {
          "indexed": false,
          "internalType": "string",
          "name": "purpose",
          "type": "string"
        }
      ],
      "name": "Ledger",
      "type": "event"
    },
    {
      "anonymous": false,
      "inputs": [
        {
          "indexed": true,
          "internalType": "address",
          "name": "from",
          "type": "address"
        },
        {
          "indexed": true,
          "internalType": "address",
          "name": "to",
          "type": "address"
        },
        {
          "indexed": false,
          "internalType": "uint256",
          "name": "value",
          "type": "uint256"
        }
      ],
      "name": "Transfer",
      "type": "event"
    },
    {
      "inputs": [
        {
          "internalType": "uint256",
          "name": "_id",
          "type": "uint256"
        }
      ],
      "name": "acceptPartnership",
      "outputs": [],
      "stateMutability": "nonpayable",
      "type": "function"
    },
    {
      "inputs": [
        {
          "internalType": "address",
          "name": "owner",
          "type": "address"
        },
        {
          "internalType": "address",
          "name": "spender",
          "type": "address"
        }
      ],
      "name": "allowance",
      "outputs": [
        {
          "internalType": "uint256",
          "name": "",
          "type": "uint256"
        }
      ],
      "stateMutability": "view",
      "type": "function"
    },
    {
      "inputs": [
        {
          "internalType": "address",
          "name": "spender",
          "type": "address"
        },
        {
          "internalType": "uint256",
          "name": "amount",
          "type": "uint256"
        }
      ],
      "name": "approve",
      "outputs": [
        {
          "internalType": "bool",
          "name": "",
          "type": "bool"
        }
      ],
      "stateMutability": "nonpayable",
      "type": "function"
    },
    {
      "inputs": [],
      "name": "balance",
      "outputs": [
        {
          "internalType": "uint256",
          "name": "",
          "type": "uint256"
        }
      ],
      "stateMutability": "view",
      "type": "function"
    },
    {
      "inputs": [
        {
          "internalType": "address",
          "name": "account",
          "type": "address"
        }
      ],
      "name": "balanceOf",
      "outputs": [
        {
          "internalType": "uint256",
          "name": "",
          "type": "uint256"
        }
      ],
      "stateMutability": "view",
      "type": "function"
    },
    {
      "inputs": [
        {
          "internalType": "string",
          "name": "name",
          "type": "string"
        },
        {
          "internalType": "string",
          "name": "email",
          "type": "string"
        },
        {
          "internalType": "uint256",
          "name": "number",
          "type": "uint256"
        },
        {
          "components": [
            {
              "internalType": "string",
              "name": "country",
              "type": "string"
            },
            {
              "internalType": "string",
              "name": "state",
              "type": "string"
            },
            {
              "internalType": "string",
              "name": "city",
              "type": "string"
            },
            {
              "internalType": "string",
              "name": "locationAddress",
              "type": "string"
            },
            {
              "internalType": "string",
              "name": "locationAddress2",
              "type": "string"
            }
          ],
          "internalType": "struct ILocation",
          "name": "location",
          "type": "tuple"
        },
        {
          "internalType": "string",
          "name": "description",
          "type": "string"
        },
        {
          "internalType": "string",
          "name": "goal",
          "type": "string"
        }
      ],
      "name": "becomePartner",
      "outputs": [],
      "stateMutability": "nonpayable",
      "type": "function"
    },
    {
      "inputs": [
        {
          "internalType": "uint256",
          "name": "_id",
          "type": "uint256"
        }
      ],
      "name": "contribute",
      "outputs": [],
      "stateMutability": "payable",
      "type": "function"
    },
    {
      "inputs": [
        {
          "internalType": "string",
          "name": "_aim",
          "type": "string"
        },
        {
          "internalType": "string",
          "name": "_email",
          "type": "string"
        },
        {
          "components": [
            {
              "internalType": "string",
              "name": "country",
              "type": "string"
            },
            {
              "internalType": "string",
              "name": "state",
              "type": "string"
            },
            {
              "internalType": "string",
              "name": "city",
              "type": "string"
            },
            {
              "internalType": "string",
              "name": "locationAddress",
              "type": "string"
            },
            {
              "internalType": "string",
              "name": "locationAddress2",
              "type": "string"
            }
          ],
          "internalType": "struct ILocation",
          "name": "_location",
          "type": "tuple"
        },
        {
          "internalType": "string",
          "name": "_description",
          "type": "string"
        },
        {
          "internalType": "string",
          "name": "_goal",
          "type": "string"
        },
        {
          "internalType": "uint256[]",
          "name": "_partners",
          "type": "uint256[]"
        }
      ],
      "name": "createGoal",
      "outputs": [],
      "stateMutability": "nonpayable",
      "type": "function"
    },
    {
      "inputs": [],
      "name": "daoLibrary",
      "outputs": [
        {
          "internalType": "contract Dao",
          "name": "",
          "type": "address"
        }
      ],
      "stateMutability": "view",
      "type": "function"
    },
    {
      "inputs": [],
      "name": "decimals",
      "outputs": [
        {
          "internalType": "uint8",
          "name": "",
          "type": "uint8"
        }
      ],
      "stateMutability": "view",
      "type": "function"
    },
    {
      "inputs": [
        {
          "internalType": "address",
          "name": "spender",
          "type": "address"
        },
        {
          "internalType": "uint256",
          "name": "subtractedValue",
          "type": "uint256"
        }
      ],
      "name": "decreaseAllowance",
      "outputs": [
        {
          "internalType": "bool",
          "name": "",
          "type": "bool"
        }
      ],
      "stateMutability": "nonpayable",
      "type": "function"
    },
    {
      "inputs": [
        {
          "internalType": "uint256",
          "name": "_id",
          "type": "uint256"
        }
      ],
      "name": "endGoal",
      "outputs": [],
      "stateMutability": "nonpayable",
      "type": "function"
    },
    {
      "inputs": [
        {
          "internalType": "uint256",
          "name": "_id",
          "type": "uint256"
        }
      ],
      "name": "endGoalVote",
      "outputs": [],
      "stateMutability": "nonpayable",
      "type": "function"
    },
    {
      "inputs": [
        {
          "internalType": "uint256",
          "name": "_id",
          "type": "uint256"
        }
      ],
      "name": "endPartnerVote",
      "outputs": [],
      "stateMutability": "nonpayable",
      "type": "function"
    },
    {
      "inputs": [
        {
          "internalType": "uint256",
          "name": "_amount",
          "type": "uint256"
        }
      ],
      "name": "getConversion",
      "outputs": [
        {
          "internalType": "uint256",
          "name": "",
          "type": "uint256"
        }
      ],
      "stateMutability": "view",
      "type": "function"
    },
    {
      "inputs": [
        {
          "internalType": "uint256",
          "name": "_id",
          "type": "uint256"
        }
      ],
      "name": "getGoal",
      "outputs": [
        {
          "components": [
            {
              "internalType": "string",
              "name": "aim",
              "type": "string"
            },
            {
              "internalType": "address",
              "name": "owner",
              "type": "address"
            },
            {
              "internalType": "string",
              "name": "email",
              "type": "string"
            },
            {
              "components": [
                {
                  "internalType": "string",
                  "name": "country",
                  "type": "string"
                },
                {
                  "internalType": "string",
                  "name": "state",
                  "type": "string"
                },
                {
                  "internalType": "string",
                  "name": "city",
                  "type": "string"
                },
                {
                  "internalType": "string",
                  "name": "locationAddress",
                  "type": "string"
                },
                {
                  "internalType": "string",
                  "name": "locationAddress2",
                  "type": "string"
                }
              ],
              "internalType": "struct ILocation",
              "name": "location",
              "type": "tuple"
            },
            {
              "internalType": "string",
              "name": "description",
              "type": "string"
            },
            {
              "internalType": "string",
              "name": "goal",
              "type": "string"
            },
            {
              "internalType": "uint256[]",
              "name": "partners",
              "type": "uint256[]"
            },
            {
              "internalType": "uint256[]",
              "name": "onWait",
              "type": "uint256[]"
            },
            {
              "internalType": "uint256",
              "name": "createdAt",
              "type": "uint256"
            },
            {
              "internalType": "uint256",
              "name": "balance",
              "type": "uint256"
            },
            {
              "internalType": "bool",
              "name": "approved",
              "type": "bool"
            },
            {
              "internalType": "bool",
              "name": "hasEnded",
              "type": "bool"
            }
          ],
          "internalType": "struct IGoal",
          "name": "",
          "type": "tuple"
        }
      ],
      "stateMutability": "view",
      "type": "function"
    },
    {
      "inputs": [],
      "name": "getGoals",
      "outputs": [
        {
          "components": [
            {
              "internalType": "string",
              "name": "aim",
              "type": "string"
            },
            {
              "internalType": "address",
              "name": "owner",
              "type": "address"
            },
            {
              "internalType": "string",
              "name": "email",
              "type": "string"
            },
            {
              "components": [
                {
                  "internalType": "string",
                  "name": "country",
                  "type": "string"
                },
                {
                  "internalType": "string",
                  "name": "state",
                  "type": "string"
                },
                {
                  "internalType": "string",
                  "name": "city",
                  "type": "string"
                },
                {
                  "internalType": "string",
                  "name": "locationAddress",
                  "type": "string"
                },
                {
                  "internalType": "string",
                  "name": "locationAddress2",
                  "type": "string"
                }
              ],
              "internalType": "struct ILocation",
              "name": "location",
              "type": "tuple"
            },
            {
              "internalType": "string",
              "name": "description",
              "type": "string"
            },
            {
              "internalType": "string",
              "name": "goal",
              "type": "string"
            },
            {
              "internalType": "uint256[]",
              "name": "partners",
              "type": "uint256[]"
            },
            {
              "internalType": "uint256[]",
              "name": "onWait",
              "type": "uint256[]"
            },
            {
              "internalType": "uint256",
              "name": "createdAt",
              "type": "uint256"
            },
            {
              "internalType": "uint256",
              "name": "balance",
              "type": "uint256"
            },
            {
              "internalType": "bool",
              "name": "approved",
              "type": "bool"
            },
            {
              "internalType": "bool",
              "name": "hasEnded",
              "type": "bool"
            }
          ],
          "internalType": "struct IGoal[]",
          "name": "",
          "type": "tuple[]"
        }
      ],
      "stateMutability": "view",
      "type": "function"
    },
    {
      "inputs": [
        {
          "internalType": "uint256",
          "name": "_id",
          "type": "uint256"
        }
      ],
      "name": "getPartner",
      "outputs": [
        {
          "components": [
            {
              "internalType": "string",
              "name": "name",
              "type": "string"
            },
            {
              "internalType": "address",
              "name": "owner",
              "type": "address"
            },
            {
              "internalType": "string",
              "name": "email",
              "type": "string"
            },
            {
              "internalType": "uint256",
              "name": "number",
              "type": "uint256"
            },
            {
              "components": [
                {
                  "internalType": "string",
                  "name": "country",
                  "type": "string"
                },
                {
                  "internalType": "string",
                  "name": "state",
                  "type": "string"
                },
                {
                  "internalType": "string",
                  "name": "city",
                  "type": "string"
                },
                {
                  "internalType": "string",
                  "name": "locationAddress",
                  "type": "string"
                },
                {
                  "internalType": "string",
                  "name": "locationAddress2",
                  "type": "string"
                }
              ],
              "internalType": "struct ILocation",
              "name": "location",
              "type": "tuple"
            },
            {
              "internalType": "string",
              "name": "description",
              "type": "string"
            },
            {
              "internalType": "string",
              "name": "goal",
              "type": "string"
            },
            {
              "internalType": "uint256",
              "name": "createdAt",
              "type": "uint256"
            },
            {
              "internalType": "bool",
              "name": "approved",
              "type": "bool"
            }
          ],
          "internalType": "struct IPartner",
          "name": "",
          "type": "tuple"
        }
      ],
      "stateMutability": "view",
      "type": "function"
    },
    {
      "inputs": [],
      "name": "getPartners",
      "outputs": [
        {
          "components": [
            {
              "internalType": "string",
              "name": "name",
              "type": "string"
            },
            {
              "internalType": "address",
              "name": "owner",
              "type": "address"
            },
            {
              "internalType": "string",
              "name": "email",
              "type": "string"
            },
            {
              "internalType": "uint256",
              "name": "number",
              "type": "uint256"
            },
            {
              "components": [
                {
                  "internalType": "string",
                  "name": "country",
                  "type": "string"
                },
                {
                  "internalType": "string",
                  "name": "state",
                  "type": "string"
                },
                {
                  "internalType": "string",
                  "name": "city",
                  "type": "string"
                },
                {
                  "internalType": "string",
                  "name": "locationAddress",
                  "type": "string"
                },
                {
                  "internalType": "string",
                  "name": "locationAddress2",
                  "type": "string"
                }
              ],
              "internalType": "struct ILocation",
              "name": "location",
              "type": "tuple"
            },
            {
              "internalType": "string",
              "name": "description",
              "type": "string"
            },
            {
              "internalType": "string",
              "name": "goal",
              "type": "string"
            },
            {
              "internalType": "uint256",
              "name": "createdAt",
              "type": "uint256"
            },
            {
              "internalType": "bool",
              "name": "approved",
              "type": "bool"
            }
          ],
          "internalType": "struct IPartner[]",
          "name": "",
          "type": "tuple[]"
        }
      ],
      "stateMutability": "view",
      "type": "function"
    },
    {
      "inputs": [],
      "name": "getReputation",
      "outputs": [
        {
          "internalType": "uint256",
          "name": "",
          "type": "uint256"
        }
      ],
      "stateMutability": "view",
      "type": "function"
    },
    {
      "inputs": [
        {
          "internalType": "address",
          "name": "spender",
          "type": "address"
        },
        {
          "internalType": "uint256",
          "name": "addedValue",
          "type": "uint256"
        }
      ],
      "name": "increaseAllowance",
      "outputs": [
        {
          "internalType": "bool",
          "name": "",
          "type": "bool"
        }
      ],
      "stateMutability": "nonpayable",
      "type": "function"
    },
    {
      "inputs": [],
      "name": "name",
      "outputs": [
        {
          "internalType": "string",
          "name": "",
          "type": "string"
        }
      ],
      "stateMutability": "view",
      "type": "function"
    },
    {
      "inputs": [],
      "name": "owner",
      "outputs": [
        {
          "internalType": "address",
          "name": "",
          "type": "address"
        }
      ],
      "stateMutability": "view",
      "type": "function"
    },
    {
      "inputs": [
        {
          "internalType": "uint256",
          "name": "_id",
          "type": "uint256"
        }
      ],
      "name": "reward",
      "outputs": [],
      "stateMutability": "nonpayable",
      "type": "function"
    },
    {
      "inputs": [],
      "name": "symbol",
      "outputs": [
        {
          "internalType": "string",
          "name": "",
          "type": "string"
        }
      ],
      "stateMutability": "view",
      "type": "function"
    },
    {
      "inputs": [],
      "name": "totalSupply",
      "outputs": [
        {
          "internalType": "uint256",
          "name": "",
          "type": "uint256"
        }
      ],
      "stateMutability": "view",
      "type": "function"
    },
    {
      "inputs": [
        {
          "internalType": "address",
          "name": "to",
          "type": "address"
        },
        {
          "internalType": "uint256",
          "name": "amount",
          "type": "uint256"
        }
      ],
      "name": "transfer",
      "outputs": [
        {
          "internalType": "bool",
          "name": "",
          "type": "bool"
        }
      ],
      "stateMutability": "nonpayable",
      "type": "function"
    },
    {
      "inputs": [
        {
          "internalType": "address",
          "name": "from",
          "type": "address"
        },
        {
          "internalType": "address",
          "name": "to",
          "type": "address"
        },
        {
          "internalType": "uint256",
          "name": "amount",
          "type": "uint256"
        }
      ],
      "name": "transferFrom",
      "outputs": [
        {
          "internalType": "bool",
          "name": "",
          "type": "bool"
        }
      ],
      "stateMutability": "nonpayable",
      "type": "function"
    },
    {
      "inputs": [
        {
          "internalType": "uint256",
          "name": "_id",
          "type": "uint256"
        },
        {
          "internalType": "string",
          "name": "_purpose",
          "type": "string"
        }
      ],
      "name": "withdraw",
      "outputs": [],
      "stateMutability": "payable",
      "type": "function"
    }
  ],
  "bytecode": "0x60806040523480156200001157600080fd5b506040516200535638038062005356833981016040819052620000349162000209565b6040518060400160405280600481526020016311dbd85b60e21b815250604051806040016040528060018152602001604760f81b81525081600390816200007c9190620002c9565b5060046200008b8282620002c9565b5050600780546001600160a01b0319163317905550604051620000ae90620001fb565b604051809103906000f080158015620000cb573d6000803e3d6000fd5b50600580546001600160a01b03929092166001600160a01b03199283161790556006805490911673694aa1769357215de4fac081bf1f309adc32530617905562000129336200012383670de0b6b3a7640000620003ab565b62000130565b50620003e1565b6001600160a01b0382166200018b5760405162461bcd60e51b815260206004820152601f60248201527f45524332303a206d696e7420746f20746865207a65726f206164647265737300604482015260640160405180910390fd5b80600260008282546200019f9190620003cb565b90915550506001600160a01b038216600081815260208181526040808320805486019055518481527fddf252ad1be2c89b69c2b068fc378daa952ba7f163c4a11628f55a4df523b3ef910160405180910390a35050565b505050565b6109c4806200499283390190565b6000602082840312156200021c57600080fd5b5051919050565b634e487b7160e01b600052604160045260246000fd5b600181811c908216806200024e57607f821691505b6020821081036200026f57634e487b7160e01b600052602260045260246000fd5b50919050565b601f821115620001f6576000816000526020600020601f850160051c81016020861015620002a05750805b601f850160051c820191505b81811015620002c157828155600101620002ac565b505050505050565b81516001600160401b03811115620002e557620002e562000223565b620002fd81620002f6845462000239565b8462000275565b602080601f8311600181146200033557600084156200031c5750858301515b600019600386901b1c1916600185901b178555620002c1565b600085815260208120601f198616915b82811015620003665788860151825594840194600190910190840162000345565b5085821015620003855787850151600019600388901b60f8161c191681555b5050505050600190811b01905550565b634e487b7160e01b600052601160045260246000fd5b8082028115828204841417620003c557620003c562000395565b92915050565b80820180821115620003c557620003c562000395565b6145a180620003f16000396000f3fe6080604052600436106101525760003560e01c8063047abed71461015757806306fdde031461018a578063095ea7b3146101ac57806318160ddd146101dc5780631b5c2c36146101f157806323b872dd1461021357806330218db714610233578063313ce56714610253578063395093511461026f57806370a082311461028f57806373e29b0d146102c55780637fc96619146102e7578063871f3c17146103145780638da5cb5b14610334578063912baedb1461036157806395d89b41146103815780639e656d6914610396578063a457c2d7146103b8578063a9059cbb146103d8578063a9fb763c146103f8578063ac004b9114610418578063b2b21c0614610438578063b69ef8a814610458578063c1cbbca71461046e578063dc048cf214610481578063dd62ed3e14610494578063df6ed6cb146104b4578063e11031fb146104e1578063ffe6a18e14610501575b600080fd5b34801561016357600080fd5b506101776101723660046138f0565b610516565b6040519081526020015b60405180910390f35b34801561019657600080fd5b5061019f61054a565b604051610181919061394f565b3480156101b857600080fd5b506101cc6101c7366004613985565b6105dc565b6040519015158152602001610181565b3480156101e857600080fd5b50600254610177565b3480156101fd57600080fd5b5061021161020c366004613b69565b6105f6565b005b34801561021f57600080fd5b506101cc61022e366004613c42565b610809565b34801561023f57600080fd5b5061021161024e366004613cfd565b61082d565b34801561025f57600080fd5b5060405160128152602001610181565b34801561027b57600080fd5b506101cc61028a366004613985565b610aae565b34801561029b57600080fd5b506101776102aa366004613de4565b6001600160a01b031660009081526020819052604090205490565b3480156102d157600080fd5b506102da610ad0565b6040516101819190613f57565b3480156102f357600080fd5b506103076103023660046138f0565b6110a6565b6040516101819190613fbb565b34801561032057600080fd5b5061021161032f3660046138f0565b611652565b34801561034057600080fd5b50600754610354906001600160a01b031681565b6040516101819190613fce565b34801561036d57600080fd5b5061021161037c3660046138f0565b61199c565b34801561038d57600080fd5b5061019f611ad3565b3480156103a257600080fd5b506103ab611ae2565b604051610181919061411e565b3480156103c457600080fd5b506101cc6103d3366004613985565b61216f565b3480156103e457600080fd5b506101cc6103f3366004613985565b6121ea565b34801561040457600080fd5b506102116104133660046138f0565b6121f8565b34801561042457600080fd5b506102116104333660046138f0565b612376565b34801561044457600080fd5b50600554610354906001600160a01b031681565b34801561046457600080fd5b50610177600b5481565b61021161047c3660046138f0565b612657565b61021161048f366004614175565b61283b565b3480156104a057600080fd5b506101776104af3660046141bb565b612a3d565b3480156104c057600080fd5b506104d46104cf3660046138f0565b612a68565b60405161018191906141ee565b3480156104ed57600080fd5b506102116104fc3660046138f0565b6130d4565b34801561050d57600080fd5b50610177613340565b6000806105216133b7565b90506000670de0b6b3a76400006105388584614217565b610542919061422e565b949350505050565b60606003805461055990614250565b80601f016020809104026020016040519081016040528092919081815260200182805461058590614250565b80156105d25780601f106105a7576101008083540402835291602001916105d2565b820191906000526020600020905b8154815290600101906020018083116105b557829003601f168201915b5050505050905090565b6000336105ea81858561344e565b60019150505b92915050565b6040805161012081018252878152336020820152908101869052606081018590526080810184905260a0810183905260c081018290524260e08201526000610100820181905260098054600181018255915281518291600d027f6e1540171b6c0c960b71a7020d9f60077f6af931a8bbf590da0223dacf75c7af0190819061067e90826142d2565b5060208201516001820180546001600160a01b0319166001600160a01b03909216919091179055604082015160028201906106b990826142d2565b506060820151600382015560808201518051600483019081906106dc90826142d2565b50602082015160018201906106f190826142d2565b506040820151600282019061070690826142d2565b506060820151600382019061071b90826142d2565b506080820151600482019061073090826142d2565b50505060a0820151600982019061074790826142d2565b5060c0820151600a82019061075c90826142d2565b5060e0820151600b82015561010090910151600c909101805460ff19169115159190911790556005546009546001600160a01b0390911690639da9c593906107a690600190614391565b6107b142603c6143a4565b6040518363ffffffff1660e01b81526004016107ce9291906143b7565b600060405180830381600087803b1580156107e857600080fd5b505af11580156107fc573d6000803e3d6000fd5b5050505050505050505050565b600033610817858285613572565b6108228585856135ec565b506001949350505050565b604080516101808101825287815233602082015290810186905260608181018690526080820185905260a0820184905260c0820181905260e0820183905242610100830152600061012083018190526101408301819052610160830181905260088054600181018255915282519192918291600f027ff3f7a9fe364faab93b216da50a3214154f22a0a2b415b23a84c8169e8b636ee3019081906108d190826142d2565b5060208201516001820180546001600160a01b0319166001600160a01b039092169190911790556040820151600282019061090c90826142d2565b50606082015180516003830190819061092590826142d2565b506020820151600182019061093a90826142d2565b506040820151600282019061094f90826142d2565b506060820151600382019061096490826142d2565b506080820151600482019061097990826142d2565b5050506080820151600882019061099090826142d2565b5060a082015160098201906109a590826142d2565b5060c082015180516109c191600a840191602090910190613790565b5060e082015180516109dd91600b840191602090910190613790565b5061010082810151600c830155610120830151600d830155610140830151600e90920180546101609094015161ffff1990941692151561ff00191692909217921515029190911790556005546008546001600160a01b039091169063b803a58d90610a4a90600190614391565b610a5542603c6143a4565b6040518363ffffffff1660e01b8152600401610a729291906143b7565b600060405180830381600087803b158015610a8c57600080fd5b505af1158015610aa0573d6000803e3d6000fd5b505050505050505050505050565b6000336105ea818585610ac18383612a3d565b610acb91906143a4565b61344e565b60606009805480602002602001604051908101604052809291908181526020016000905b8282101561109d57838290600052602060002090600d020160405180610120016040529081600082018054610b2890614250565b80601f0160208091040260200160405190810160405280929190818152602001828054610b5490614250565b8015610ba15780601f10610b7657610100808354040283529160200191610ba1565b820191906000526020600020905b815481529060010190602001808311610b8457829003601f168201915b505050918352505060018201546001600160a01b03166020820152600282018054604090920191610bd190614250565b80601f0160208091040260200160405190810160405280929190818152602001828054610bfd90614250565b8015610c4a5780601f10610c1f57610100808354040283529160200191610c4a565b820191906000526020600020905b815481529060010190602001808311610c2d57829003601f168201915b5050505050815260200160038201548152602001600482016040518060a0016040529081600082018054610c7d90614250565b80601f0160208091040260200160405190810160405280929190818152602001828054610ca990614250565b8015610cf65780601f10610ccb57610100808354040283529160200191610cf6565b820191906000526020600020905b815481529060010190602001808311610cd957829003601f168201915b50505050508152602001600182018054610d0f90614250565b80601f0160208091040260200160405190810160405280929190818152602001828054610d3b90614250565b8015610d885780601f10610d5d57610100808354040283529160200191610d88565b820191906000526020600020905b815481529060010190602001808311610d6b57829003601f168201915b50505050508152602001600282018054610da190614250565b80601f0160208091040260200160405190810160405280929190818152602001828054610dcd90614250565b8015610e1a5780601f10610def57610100808354040283529160200191610e1a565b820191906000526020600020905b815481529060010190602001808311610dfd57829003601f168201915b50505050508152602001600382018054610e3390614250565b80601f0160208091040260200160405190810160405280929190818152602001828054610e5f90614250565b8015610eac5780601f10610e8157610100808354040283529160200191610eac565b820191906000526020600020905b815481529060010190602001808311610e8f57829003601f168201915b50505050508152602001600482018054610ec590614250565b80601f0160208091040260200160405190810160405280929190818152602001828054610ef190614250565b8015610f3e5780601f10610f1357610100808354040283529160200191610f3e565b820191906000526020600020905b815481529060010190602001808311610f2157829003601f168201915b5050505050815250508152602001600982018054610f5b90614250565b80601f0160208091040260200160405190810160405280929190818152602001828054610f8790614250565b8015610fd45780601f10610fa957610100808354040283529160200191610fd4565b820191906000526020600020905b815481529060010190602001808311610fb757829003601f168201915b50505050508152602001600a82018054610fed90614250565b80601f016020809104026020016040519081016040528092919081815260200182805461101990614250565b80156110665780601f1061103b57610100808354040283529160200191611066565b820191906000526020600020905b81548152906001019060200180831161104957829003601f168201915b5050509183525050600b820154602080830191909152600c9092015460ff1615156040909101529082526001929092019101610af4565b50505050905090565b6110ae6137db565b600982815481106110c1576110c16143c5565b90600052602060002090600d0201604051806101200160405290816000820180546110eb90614250565b80601f016020809104026020016040519081016040528092919081815260200182805461111790614250565b80156111645780601f1061113957610100808354040283529160200191611164565b820191906000526020600020905b81548152906001019060200180831161114757829003601f168201915b505050918352505060018201546001600160a01b0316602082015260028201805460409092019161119490614250565b80601f01602080910402602001604051908101604052809291908181526020018280546111c090614250565b801561120d5780601f106111e25761010080835404028352916020019161120d565b820191906000526020600020905b8154815290600101906020018083116111f057829003601f168201915b5050505050815260200160038201548152602001600482016040518060a001604052908160008201805461124090614250565b80601f016020809104026020016040519081016040528092919081815260200182805461126c90614250565b80156112b95780601f1061128e576101008083540402835291602001916112b9565b820191906000526020600020905b81548152906001019060200180831161129c57829003601f168201915b505050505081526020016001820180546112d290614250565b80601f01602080910402602001604051908101604052809291908181526020018280546112fe90614250565b801561134b5780601f106113205761010080835404028352916020019161134b565b820191906000526020600020905b81548152906001019060200180831161132e57829003601f168201915b5050505050815260200160028201805461136490614250565b80601f016020809104026020016040519081016040528092919081815260200182805461139090614250565b80156113dd5780601f106113b2576101008083540402835291602001916113dd565b820191906000526020600020905b8154815290600101906020018083116113c057829003601f168201915b505050505081526020016003820180546113f690614250565b80601f016020809104026020016040519081016040528092919081815260200182805461142290614250565b801561146f5780601f106114445761010080835404028352916020019161146f565b820191906000526020600020905b81548152906001019060200180831161145257829003601f168201915b5050505050815260200160048201805461148890614250565b80601f01602080910402602001604051908101604052809291908181526020018280546114b490614250565b80156115015780601f106114d657610100808354040283529160200191611501565b820191906000526020600020905b8154815290600101906020018083116114e457829003601f168201915b505050505081525050815260200160098201805461151e90614250565b80601f016020809104026020016040519081016040528092919081815260200182805461154a90614250565b80156115975780601f1061156c57610100808354040283529160200191611597565b820191906000526020600020905b81548152906001019060200180831161157a57829003601f168201915b50505050508152602001600a820180546115b090614250565b80601f01602080910402602001604051908101604052809291908181526020018280546115dc90614250565b80156116295780601f106115fe57610100808354040283529160200191611629565b820191906000526020600020905b81548152906001019060200180831161160c57829003601f168201915b5050509183525050600b8201546020820152600c9091015460ff16151560409091015292915050565b8060088181548110611666576116666143c5565b60009182526020909120600f90910201600e0154610100900460ff16156116a85760405162461bcd60e51b815260040161169f906143db565b60405180910390fd5b336001600160a01b0316600883815481106116c5576116c56143c5565b600091825260209091206001600f9092020101546001600160a01b03161461171f5760405162461bcd60e51b815260206004820152600d60248201526c26bab9ba1031329027bbb732b960991b604482015260640161169f565b60088281548110611732576117326143c5565b90600052602060002090600f0201600d0154600b600082825461175591906143a4565b92505081905550600060088381548110611771576117716143c5565b60009182526020909120600d600f90920201015560055460405163589060b560e11b81526001600160a01b039091169063b120c16a906117b8903390600290600401614403565b600060405180830381600087803b1580156117d257600080fd5b505af11580156117e6573d6000803e3d6000fd5b505050506117f53360036121ea565b5060005b6008838154811061180c5761180c6143c5565b90600052602060002090600f0201600a018054905081101561195a5760006008848154811061183d5761183d6143c5565b90600052602060002090600f0201600a01828154811061185f5761185f6143c5565b90600052602060002001549050600560009054906101000a90046001600160a01b03166001600160a01b031663b120c16a600983815481106118a3576118a36143c5565b600091825260209091206001600d9092020101546040516001600160e01b031960e084901b1681526118e4916001600160a01b031690600290600401614403565b600060405180830381600087803b1580156118fe57600080fd5b505af1158015611912573d6000803e3d6000fd5b505050506119506009828154811061192c5761192c6143c5565b600091825260209091206001600d9092020101546001600160a01b031660026121ea565b50506001016117f9565b50600160088381548110611970576119706143c5565b90600052602060002090600f0201600e0160016101000a81548160ff0219169083151502179055505050565b60005b600882815481106119b2576119b26143c5565b90600052602060002090600f0201600b0180549050811015611acf576000600883815481106119e3576119e36143c5565b90600052602060002090600f0201600b018281548110611a0557611a056143c5565b9060005260206000200154905060098181548110611a2557611a256143c5565b600091825260209091206001600d9092020101546001600160a01b03163303611ac65760088381548110611a5b57611a5b6143c5565b90600052602060002090600f0201600b018281548110611a7d57611a7d6143c5565b906000526020600020016000905560088381548110611a9e57611a9e6143c5565b60009182526020808320600a600f909302019190910180546001810182559083529120018190555b5060010161199f565b5050565b60606004805461055990614250565b60606008805480602002602001604051908101604052809291908181526020016000905b8282101561109d57838290600052602060002090600f020160405180610180016040529081600082018054611b3a90614250565b80601f0160208091040260200160405190810160405280929190818152602001828054611b6690614250565b8015611bb35780601f10611b8857610100808354040283529160200191611bb3565b820191906000526020600020905b815481529060010190602001808311611b9657829003601f168201915b505050918352505060018201546001600160a01b03166020820152600282018054604090920191611be390614250565b80601f0160208091040260200160405190810160405280929190818152602001828054611c0f90614250565b8015611c5c5780601f10611c3157610100808354040283529160200191611c5c565b820191906000526020600020905b815481529060010190602001808311611c3f57829003601f168201915b50505050508152602001600382016040518060a0016040529081600082018054611c8590614250565b80601f0160208091040260200160405190810160405280929190818152602001828054611cb190614250565b8015611cfe5780601f10611cd357610100808354040283529160200191611cfe565b820191906000526020600020905b815481529060010190602001808311611ce157829003601f168201915b50505050508152602001600182018054611d1790614250565b80601f0160208091040260200160405190810160405280929190818152602001828054611d4390614250565b8015611d905780601f10611d6557610100808354040283529160200191611d90565b820191906000526020600020905b815481529060010190602001808311611d7357829003601f168201915b50505050508152602001600282018054611da990614250565b80601f0160208091040260200160405190810160405280929190818152602001828054611dd590614250565b8015611e225780601f10611df757610100808354040283529160200191611e22565b820191906000526020600020905b815481529060010190602001808311611e0557829003601f168201915b50505050508152602001600382018054611e3b90614250565b80601f0160208091040260200160405190810160405280929190818152602001828054611e6790614250565b8015611eb45780601f10611e8957610100808354040283529160200191611eb4565b820191906000526020600020905b815481529060010190602001808311611e9757829003601f168201915b50505050508152602001600482018054611ecd90614250565b80601f0160208091040260200160405190810160405280929190818152602001828054611ef990614250565b8015611f465780601f10611f1b57610100808354040283529160200191611f46565b820191906000526020600020905b815481529060010190602001808311611f2957829003601f168201915b5050505050815250508152602001600882018054611f6390614250565b80601f0160208091040260200160405190810160405280929190818152602001828054611f8f90614250565b8015611fdc5780601f10611fb157610100808354040283529160200191611fdc565b820191906000526020600020905b815481529060010190602001808311611fbf57829003601f168201915b50505050508152602001600982018054611ff590614250565b80601f016020809104026020016040519081016040528092919081815260200182805461202190614250565b801561206e5780601f106120435761010080835404028352916020019161206e565b820191906000526020600020905b81548152906001019060200180831161205157829003601f168201915b50505050508152602001600a82018054806020026020016040519081016040528092919081815260200182805480156120c657602002820191906000526020600020905b8154815260200190600101908083116120b2575b50505050508152602001600b820180548060200260200160405190810160405280929190818152602001828054801561211e57602002820191906000526020600020905b81548152602001906001019080831161210a575b5050509183525050600c820154602080830191909152600d8301546040830152600e9092015460ff808216151560608401526101009091041615156080909101529082526001929092019101611b06565b6000338161217d8286612a3d565b9050838110156121dd5760405162461bcd60e51b815260206004820152602560248201527f45524332303a2064656372656173656420616c6c6f77616e63652062656c6f77604482015264207a65726f60d81b606482015260840161169f565b610822828686840361344e565b6000336105ea8185856135ec565b6000818152600a6020908152604080832033845290915290206001015460ff161561226f5760405162461bcd60e51b815260206004820152602160248201527f53656e6465722068617320616c7265616479206265696e6720726577617264656044820152601960fa1b606482015260840161169f565b60088181548110612282576122826143c5565b60009182526020909120600e600f90920201015460ff6101009091041615156001146122e95760405162461bcd60e51b815260206004820152601660248201527511dbd85b081a185cc81b9bdd08195b991959081e595d60521b604482015260640161169f565b6000818152600a602090815260408083203384529091529020548061235b5760405162461bcd60e51b815260206004820152602260248201527f4e6f20636f6e747269627574696f6e73206d61646520746f207468697320676f604482015261185b60f21b606482015260840161169f565b612371336103f383670429d069189e0000614217565b505050565b600554604051635cbffa5160e11b81526004810183905282916000916001600160a01b039091169063b97ff4a290602401608060405180830381865afa1580156123c4573d6000803e3d6000fd5b505050506040513d601f19601f820116820180604052508101906123e8919061441c565b9350508215915061243690505760405162461bcd60e51b815260206004820152601660248201527514185c9d1b995c88159bdd19481a185cc8195b99195960521b604482015260640161169f565b600554604051635cbffa5160e11b815260048101859052600091829182916001600160a01b03169063b97ff4a290602401608060405180830381865afa158015612484573d6000803e3d6000fd5b505050506040513d601f19601f820116820180604052508101906124a8919061441c565b50925092509250804210156124cf5760405162461bcd60e51b815260040161169f90614462565b81831115612578576001600987815481106124ec576124ec6143c5565b60009182526020909120600d90910201600c01805460ff191691151591909117905560055460405163b23e33dd60e01b81526001600160a01b039091169063b23e33dd9061254190899060019060040161448c565b600060405180830381600087803b15801561255b57600080fd5b505af115801561256f573d6000803e3d6000fd5b5050505061264f565b8183036125b257600554604051639da9c59360e01b81526001600160a01b0390911690639da9c59390612541908990603c906004016143b7565b6000600987815481106125c7576125c76143c5565b60009182526020909120600d90910201600c01805460ff191691151591909117905560055460405163b23e33dd60e01b81526001600160a01b039091169063b23e33dd9061261c90899060019060040161448c565b600060405180830381600087803b15801561263657600080fd5b505af115801561264a573d6000803e3d6000fd5b505050505b505050505050565b806008818154811061266b5761266b6143c5565b60009182526020909120600f90910201600e0154610100900460ff16156126a45760405162461bcd60e51b815260040161169f906143db565b81600881815481106126b8576126b86143c5565b60009182526020909120600e600f90920201015460ff1615156001146127175760405162461bcd60e51b815260206004820152601460248201527311dbd85b081a5cc81b9bdd08185c1c1c9bdd995960621b604482015260640161169f565b6000838152600a6020908152604080832033845290915281205461273a90610516565b6000858152600a602090815260408083203384529091528120805492935034929091906127689084906143a4565b909155505060c881116127fc576000848152600a6020908152604080832033845290915290205460c8116127fc5760055460405163589060b560e11b81526001600160a01b039091169063b120c16a906127c9903390600190600401614403565b600060405180830381600087803b1580156127e357600080fd5b505af11580156127f7573d6000803e3d6000fd5b505050505b3460088581548110612810576128106143c5565b90600052602060002090600f0201600d01600082825461283091906143a4565b909155505050505050565b60005b60088381548110612851576128516143c5565b90600052602060002090600f0201600a018054905081101561237157600060088481548110612882576128826143c5565b90600052602060002090600f0201600a0182815481106128a4576128a46143c5565b90600052602060002001549050336001600160a01b0316600982815481106128ce576128ce6143c5565b600091825260209091206001600d9092020101546001600160a01b031603612a345760003411801561292357506008848154811061290e5761290e6143c5565b90600052602060002090600f0201600d015434105b6129875760405162461bcd60e51b815260206004820152602f60248201527f5769746864726177616c20616d6f756e74206d7573742062652062657477656560448201526e6e203020616e642062616c616e636560881b606482015260840161169f565b60405133903480156108fc02916000818181858888f193505050501580156129b3573d6000803e3d6000fd5b50336001600160a01b0316847fc2efd65628bffdae5ea1eb20fbc01a4616b03e5c5a8c444a711d6fd3e723a09e8334876040516129f29392919061449c565b60405180910390a33460088581548110612a0e57612a0e6143c5565b90600052602060002090600f0201600d016000828254612a2e9190614391565b90915550505b5060010161283e565b6001600160a01b03918216600090815260016020908152604080832093909416825291909152205490565b612a70613838565b60088281548110612a8357612a836143c5565b90600052602060002090600f020160405180610180016040529081600082018054612aad90614250565b80601f0160208091040260200160405190810160405280929190818152602001828054612ad990614250565b8015612b265780601f10612afb57610100808354040283529160200191612b26565b820191906000526020600020905b815481529060010190602001808311612b0957829003601f168201915b505050918352505060018201546001600160a01b03166020820152600282018054604090920191612b5690614250565b80601f0160208091040260200160405190810160405280929190818152602001828054612b8290614250565b8015612bcf5780601f10612ba457610100808354040283529160200191612bcf565b820191906000526020600020905b815481529060010190602001808311612bb257829003601f168201915b50505050508152602001600382016040518060a0016040529081600082018054612bf890614250565b80601f0160208091040260200160405190810160405280929190818152602001828054612c2490614250565b8015612c715780601f10612c4657610100808354040283529160200191612c71565b820191906000526020600020905b815481529060010190602001808311612c5457829003601f168201915b50505050508152602001600182018054612c8a90614250565b80601f0160208091040260200160405190810160405280929190818152602001828054612cb690614250565b8015612d035780601f10612cd857610100808354040283529160200191612d03565b820191906000526020600020905b815481529060010190602001808311612ce657829003601f168201915b50505050508152602001600282018054612d1c90614250565b80601f0160208091040260200160405190810160405280929190818152602001828054612d4890614250565b8015612d955780601f10612d6a57610100808354040283529160200191612d95565b820191906000526020600020905b815481529060010190602001808311612d7857829003601f168201915b50505050508152602001600382018054612dae90614250565b80601f0160208091040260200160405190810160405280929190818152602001828054612dda90614250565b8015612e275780601f10612dfc57610100808354040283529160200191612e27565b820191906000526020600020905b815481529060010190602001808311612e0a57829003601f168201915b50505050508152602001600482018054612e4090614250565b80601f0160208091040260200160405190810160405280929190818152602001828054612e6c90614250565b8015612eb95780601f10612e8e57610100808354040283529160200191612eb9565b820191906000526020600020905b815481529060010190602001808311612e9c57829003601f168201915b5050505050815250508152602001600882018054612ed690614250565b80601f0160208091040260200160405190810160405280929190818152602001828054612f0290614250565b8015612f4f5780601f10612f2457610100808354040283529160200191612f4f565b820191906000526020600020905b815481529060010190602001808311612f3257829003601f168201915b50505050508152602001600982018054612f6890614250565b80601f0160208091040260200160405190810160405280929190818152602001828054612f9490614250565b8015612fe15780601f10612fb657610100808354040283529160200191612fe1565b820191906000526020600020905b815481529060010190602001808311612fc457829003601f168201915b50505050508152602001600a820180548060200260200160405190810160405280929190818152602001828054801561303957602002820191906000526020600020905b815481526020019060010190808311613025575b50505050508152602001600b820180548060200260200160405190810160405280929190818152602001828054801561309157602002820191906000526020600020905b81548152602001906001019080831161307d575b5050509183525050600c8201546020820152600d8201546040820152600e9091015460ff8082161515606084015261010090910416151560809091015292915050565b600554604051630121b93f60e01b81526004810183905282916000916001600160a01b0390911690630121b93f90602401608060405180830381865afa158015613122573d6000803e3d6000fd5b505050506040513d601f19601f82011682018060405250810190613146919061441c565b9350508215915061319190505760405162461bcd60e51b815260206004820152601360248201527211dbd85b08159bdd19481a185cc8195b991959606a1b604482015260640161169f565b600554604051630121b93f60e01b815260048101859052600091829182916001600160a01b031690630121b93f90602401608060405180830381865afa1580156131df573d6000803e3d6000fd5b505050506040513d601f19601f82011682018060405250810190613203919061441c565b509250925092508042101561322a5760405162461bcd60e51b815260040161169f90614462565b8183111561329c57600160088781548110613247576132476143c5565b60009182526020909120600f90910201600e01805460ff1916911515919091179055600554604051631232d0a560e31b81526001600160a01b039091169063919685289061254190899060019060040161448c565b8183036132d65760055460405163b803a58d60e01b81526001600160a01b039091169063b803a58d90612541908990603c906004016143b7565b6000600887815481106132eb576132eb6143c5565b60009182526020909120600f90910201600e01805460ff1916911515919091179055600554604051631232d0a560e31b81526001600160a01b039091169063919685289061261c90899060019060040161448c565b60055460405163b9f7945160e01b81526000916001600160a01b03169063b9f7945190613371903390600401613fce565b602060405180830381865afa15801561338e573d6000803e3d6000fd5b505050506040513d601f19601f820116820180604052508101906133b291906144bb565b905090565b600080600660009054906101000a90046001600160a01b03166001600160a01b031663feaf968c6040518163ffffffff1660e01b815260040160a060405180830381865afa15801561340d573d6000803e3d6000fd5b505050506040513d601f19601f8201168201806040525081019061343191906144eb565b505050915050806402540be400613448919061453b565b91505090565b6001600160a01b0383166134b05760405162461bcd60e51b8152602060048201526024808201527f45524332303a20617070726f76652066726f6d20746865207a65726f206164646044820152637265737360e01b606482015260840161169f565b6001600160a01b0382166135115760405162461bcd60e51b815260206004820152602260248201527f45524332303a20617070726f766520746f20746865207a65726f206164647265604482015261737360f01b606482015260840161169f565b6001600160a01b0383811660008181526001602090815260408083209487168084529482529182902085905590518481527f8c5be1e5ebec7d5bd14f71427d1e84f3dd0314c0f7b2291e5b200ac8c7c3b925910160405180910390a3505050565b600061357e8484612a3d565b905060001981146135e657818110156135d95760405162461bcd60e51b815260206004820152601d60248201527f45524332303a20696e73756666696369656e7420616c6c6f77616e6365000000604482015260640161169f565b6135e6848484840361344e565b50505050565b6001600160a01b0383166136505760405162461bcd60e51b815260206004820152602560248201527f45524332303a207472616e736665722066726f6d20746865207a65726f206164604482015264647265737360d81b606482015260840161169f565b6001600160a01b0382166136b25760405162461bcd60e51b815260206004820152602360248201527f45524332303a207472616e7366657220746f20746865207a65726f206164647260448201526265737360e81b606482015260840161169f565b6001600160a01b0383166000908152602081905260409020548181101561372a5760405162461bcd60e51b815260206004820152602660248201527f45524332303a207472616e7366657220616d6f756e7420657863656564732062604482015265616c616e636560d01b606482015260840161169f565b6001600160a01b03848116600081815260208181526040808320878703905593871680835291849020805487019055925185815290927fddf252ad1be2c89b69c2b068fc378daa952ba7f163c4a11628f55a4df523b3ef910160405180910390a36135e6565b8280548282559060005260206000209081019282156137cb579160200282015b828111156137cb5782518255916020019190600101906137b0565b506137d79291506138ac565b5090565b6040518061012001604052806060815260200160006001600160a01b0316815260200160608152602001600081526020016138146138c1565b81526020016060815260200160608152602001600081526020016000151581525090565b6040518061018001604052806060815260200160006001600160a01b031681526020016060815260200161386a6138c1565b81526020016060815260200160608152602001606081526020016060815260200160008152602001600081526020016000151581526020016000151581525090565b5b808211156137d757600081556001016138ad565b6040518060a0016040528060608152602001606081526020016060815260200160608152602001606081525090565b60006020828403121561390257600080fd5b5035919050565b6000815180845260005b8181101561392f57602081850181015186830182015201613913565b506000602082860101526020601f19601f83011685010191505092915050565b6020815260006139626020830184613909565b9392505050565b80356001600160a01b038116811461398057600080fd5b919050565b6000806040838503121561399857600080fd5b6139a183613969565b946020939093013593505050565b634e487b7160e01b600052604160045260246000fd5b60405160a081016001600160401b03811182821017156139e7576139e76139af565b60405290565b604051601f8201601f191681016001600160401b0381118282101715613a1557613a156139af565b604052919050565b600082601f830112613a2e57600080fd5b81356001600160401b03811115613a4757613a476139af565b613a5a601f8201601f19166020016139ed565b818152846020838601011115613a6f57600080fd5b816020850160208301376000918101602001919091529392505050565b600060a08284031215613a9e57600080fd5b613aa66139c5565b905081356001600160401b0380821115613abf57600080fd5b613acb85838601613a1d565b83526020840135915080821115613ae157600080fd5b613aed85838601613a1d565b60208401526040840135915080821115613b0657600080fd5b613b1285838601613a1d565b60408401526060840135915080821115613b2b57600080fd5b613b3785838601613a1d565b60608401526080840135915080821115613b5057600080fd5b50613b5d84828501613a1d565b60808301525092915050565b60008060008060008060c08789031215613b8257600080fd5b86356001600160401b0380821115613b9957600080fd5b613ba58a838b01613a1d565b97506020890135915080821115613bbb57600080fd5b613bc78a838b01613a1d565b9650604089013595506060890135915080821115613be457600080fd5b613bf08a838b01613a8c565b94506080890135915080821115613c0657600080fd5b613c128a838b01613a1d565b935060a0890135915080821115613c2857600080fd5b50613c3589828a01613a1d565b9150509295509295509295565b600080600060608486031215613c5757600080fd5b613c6084613969565b9250613c6e60208501613969565b9150604084013590509250925092565b600082601f830112613c8f57600080fd5b813560206001600160401b03821115613caa57613caa6139af565b8160051b613cb98282016139ed565b9283528481018201928281019087851115613cd357600080fd5b83870192505b84831015613cf257823582529183019190830190613cd9565b979650505050505050565b60008060008060008060c08789031215613d1657600080fd5b86356001600160401b0380821115613d2d57600080fd5b613d398a838b01613a1d565b97506020890135915080821115613d4f57600080fd5b613d5b8a838b01613a1d565b96506040890135915080821115613d7157600080fd5b613d7d8a838b01613a8c565b95506060890135915080821115613d9357600080fd5b613d9f8a838b01613a1d565b94506080890135915080821115613db557600080fd5b613dc18a838b01613a1d565b935060a0890135915080821115613dd757600080fd5b50613c3589828a01613c7e565b600060208284031215613df657600080fd5b61396282613969565b6001600160a01b03169052565b6000815160a08452613e2160a0850182613909565b905060208301518482036020860152613e3a8282613909565b91505060408301518482036040860152613e548282613909565b91505060608301518482036060860152613e6e8282613909565b91505060808301518482036080860152613e888282613909565b95945050505050565b60006101208251818552613ea782860182613909565b9150506020830151613ebc6020860182613dff565b5060408301518482036040860152613ed48282613909565b9150506060830151606085015260808301518482036080860152613ef88282613e0c565b91505060a083015184820360a0860152613f128282613909565b91505060c083015184820360c0860152613f2c8282613909565b91505060e083015160e085015261010080840151613f4d8287018215159052565b5090949350505050565b600060208083016020845280855180835260408601915060408160051b87010192506020870160005b82811015613fae57603f19888603018452613f9c858351613e91565b94509285019290850190600101613f80565b5092979650505050505050565b6020815260006139626020830184613e91565b6001600160a01b0391909116815260200190565b60008151808452602080850194506020840160005b8381101561401357815187529582019590820190600101613ff7565b509495945050505050565b6000610180825181855261403482860182613909565b91505060208301516140496020860182613dff565b50604083015184820360408601526140618282613909565b9150506060830151848203606086015261407b8282613e0c565b915050608083015184820360808601526140958282613909565b91505060a083015184820360a08601526140af8282613909565b91505060c083015184820360c08601526140c98282613fe2565b91505060e083015184820360e08601526140e38282613fe2565b610100858101519087015261012080860151908701526101408086015115159087015261016080860151801515828901529193509150613f4d565b600060208083016020845280855180835260408601915060408160051b87010192506020870160005b82811015613fae57603f1988860301845261416385835161401e565b94509285019290850190600101614147565b6000806040838503121561418857600080fd5b8235915060208301356001600160401b038111156141a557600080fd5b6141b185828601613a1d565b9150509250929050565b600080604083850312156141ce57600080fd5b6141d783613969565b91506141e560208401613969565b90509250929050565b602081526000613962602083018461401e565b634e487b7160e01b600052601160045260246000fd5b80820281158282048414176105f0576105f0614201565b60008261424b57634e487b7160e01b600052601260045260246000fd5b500490565b600181811c9082168061426457607f821691505b60208210810361428457634e487b7160e01b600052602260045260246000fd5b50919050565b601f821115612371576000816000526020600020601f850160051c810160208610156142b35750805b601f850160051c820191505b8181101561264f578281556001016142bf565b81516001600160401b038111156142eb576142eb6139af565b6142ff816142f98454614250565b8461428a565b602080601f831160018114614334576000841561431c5750858301515b600019600386901b1c1916600185901b17855561264f565b600085815260208120601f198616915b8281101561436357888601518255948401946001909101908401614344565b50858210156143815787850151600019600388901b60f8161c191681555b5050505050600190811b01905550565b818103818111156105f0576105f0614201565b808201808211156105f0576105f0614201565b918252602082015260400190565b634e487b7160e01b600052603260045260246000fd5b6020808252600e908201526d11dbd85b081a185cc8195b99195960921b604082015260600190565b6001600160a01b03929092168252602082015260400190565b6000806000806080858703121561443257600080fd5b8451935060208501519250604085015191506060850151801515811461445757600080fd5b939692955090935050565b60208082526010908201526f159bdd19481b9bdd08195e1c1a5c995960821b604082015260600190565b9182521515602082015260400190565b838152826020820152606060408201526000613e886060830184613909565b6000602082840312156144cd57600080fd5b5051919050565b80516001600160501b038116811461398057600080fd5b600080600080600060a0868803121561450357600080fd5b61450c866144d4565b945060208601519350604086015192506060860151915061452f608087016144d4565b90509295509295909350565b80820260008212600160ff1b8414161561455757614557614201565b81810583148215176105f0576105f061420156fea2646970667358221220b382b9831e00c36ca47d50dfa246fc45ec576d00e4dbcbd9c61810d041ad59ce64736f6c63430008180033608060405234801561001057600080fd5b506109a4806100206000396000f3fe608060405234801561001057600080fd5b50600436106100e65760003560e01c80630121b93f146100eb5780630a1f548a1461014a57806326f39058146101885780633ca4bc5e1461019d5780635277b4ae146101e557806365410fe8146102135780637746036014610226578063919685281461023957806397dd799f1461026a5780639da9c5931461027d578063b120c16a14610290578063b23e33dd146102a3578063b803a58d146102d4578063b97ff4a2146102e7578063b9df883e14610321578063b9f794511461034f578063bbf3fb781461037d578063bc143c96146103ab575b600080fd5b6101236100f93660046107a6565b60006020819052908152604090208054600182015460028301546003909301549192909160ff1684565b60408051948552602085019390935291830152151560608201526080015b60405180910390f35b6101786101583660046107db565b600360209081526000928352604080842090915290825290205460ff1681565b6040519015158152602001610141565b61019b6101963660046107a6565b6103be565b005b6101b06101ab3660046107a6565b6104b0565b604051610141919081518152602080830151908201526040808301519082015260609182015115159181019190915260800190565b6101786101f33660046107db565b600160209081526000928352604080842090915290825290205460ff1681565b6101b06102213660046107a6565b610500565b61019b6102343660046107a6565b61054f565b61019b610247366004610807565b600091825260208290526040909120600301805460ff1916911515919091179055565b61019b6102783660046107a6565b610640565b61019b61028b36600461083c565b61067c565b61019b61029e36600461085e565b6106a6565b61019b6102b1366004610807565b600091825260026020526040909120600301805460ff1916911515919091179055565b61019b6102e236600461083c565b6106ce565b6101236102f53660046107a6565b600260208190526000918252604090912080546001820154928201546003909201549092919060ff1684565b61017861032f3660046107a6565b600090815260036020908152604080832033845290915290205460ff1690565b61036f61035d366004610888565b60046020526000908152604090205481565b604051908152602001610141565b61017861038b3660046107a6565b600090815260016020908152604080832033845290915290205460ff1690565b61019b6103b93660046107a6565b6106ef565b6000818152600360209081526040808320338452909152902054819060ff16156104035760405162461bcd60e51b81526004016103fa906108aa565b60405180910390fd5b336000908152600460205260409020546002106104325760405162461bcd60e51b81526004016103fa906108da565b600082815260208190526040902060020154829042106104645760405162461bcd60e51b81526004016103fa9061091d565b6000838152600260205260408120805460019290610483908490610947565b9091555050506000918252506003602090815260408083203384529091529020805460ff19166001179055565b6104b861077c565b506000908152602081815260409182902082516080810184528154815260018201549281019290925260028101549282019290925260039091015460ff161515606082015290565b61050861077c565b5060009081526002602081815260409283902083516080810185528154815260018201549281019290925291820154928101929092526003015460ff161515606082015290565b6000818152600360209081526040808320338452909152902054819060ff161561058b5760405162461bcd60e51b81526004016103fa906108aa565b336000908152600460205260409020546002106105ba5760405162461bcd60e51b81526004016103fa906108da565b600082815260208190526040902060020154829042106105ec5760405162461bcd60e51b81526004016103fa9061091d565b600160008085815260200190815260200160002060010160008282546106129190610947565b909155505050600091825250600160208181526040808420338552909152909120805460ff19169091179055565b6000818152600160209081526040808320338452909152902054819060ff16156105ba5760405162461bcd60e51b81526004016103fa906108aa565b6000828152600260208190526040822001805483929061069d908490610947565b90915550505050565b6001600160a01b0382166000908152600460205260408120805483929061069d908490610947565b6000828152602081905260408120600201805483929061069d908490610947565b6000818152600160209081526040808320338452909152902054819060ff161561072b5760405162461bcd60e51b81526004016103fa906108aa565b6000828152602081905260409020600201548290421061075d5760405162461bcd60e51b81526004016103fa9061091d565b6000838152602081905260408120805460019290610612908490610947565b60405180608001604052806000815260200160008152602001600081526020016000151581525090565b6000602082840312156107b857600080fd5b5035919050565b80356001600160a01b03811681146107d657600080fd5b919050565b600080604083850312156107ee57600080fd5b823591506107fe602084016107bf565b90509250929050565b6000806040838503121561081a57600080fd5b823591506020830135801515811461083157600080fd5b809150509250929050565b6000806040838503121561084f57600080fd5b50508035926020909101359150565b6000806040838503121561087157600080fd5b61087a836107bf565b946020939093013593505050565b60006020828403121561089a57600080fd5b6108a3826107bf565b9392505050565b602080825260169082015275557365722068617320766f74656420616c726561647960501b604082015260600190565b60208082526023908201527f5573657220646f65736e6f74206861766520656e6f756768207265707574617460408201526234b7b760e91b606082015260800190565b60208082526010908201526f11dbd85b081a185cc8195e1c1a5c995960821b604082015260600190565b8082018082111561096857634e487b7160e01b600052601160045260246000fd5b9291505056fea26469706673582212201c04aacaf7c84ee7e9034d77b286d56a138b29125cdffdfa00871893e3151f9264736f6c63430008180033",
  "linkReferences": {},
  "deployedLinkReferences": {}
}