{
  "_format": "hh-sol-artifact-1",
  "contractName": "GoalSight",
  "sourceName": "contracts/GoalSight.sol",
  "abi": [
    {
      "inputs": [
        {
          "internalType": "uint256",
          "name": "initialSupply",
          "type": "uint256"
        }
      ],
      "stateMutability": "nonpayable",
      "type": "constructor"
    },
    {
      "anonymous": false,
      "inputs": [
        {
          "indexed": true,
          "internalType": "address",
          "name": "owner",
          "type": "address"
        },
        {
          "indexed": true,
          "internalType": "address",
          "name": "spender",
          "type": "address"
        },
        {
          "indexed": false,
          "internalType": "uint256",
          "name": "value",
          "type": "uint256"
        }
      ],
      "name": "Approval",
      "type": "event"
    },
    {
      "anonymous": false,
      "inputs": [
        {
          "indexed": true,
          "internalType": "uint256",
          "name": "id",
          "type": "uint256"
        },
        {
          "indexed": true,
          "internalType": "address",
          "name": "to",
          "type": "address"
        },
        {
          "indexed": false,
          "internalType": "uint256",
          "name": "partnerID",
          "type": "uint256"
        },
        {
          "indexed": false,
          "internalType": "uint256",
          "name": "amount",
          "type": "uint256"
        },
        {
          "indexed": false,
          "internalType": "string",
          "name": "purpose",
          "type": "string"
        }
      ],
      "name": "Ledger",
      "type": "event"
    },
    {
      "anonymous": false,
      "inputs": [
        {
          "indexed": true,
          "internalType": "address",
          "name": "from",
          "type": "address"
        },
        {
          "indexed": true,
          "internalType": "address",
          "name": "to",
          "type": "address"
        },
        {
          "indexed": false,
          "internalType": "uint256",
          "name": "value",
          "type": "uint256"
        }
      ],
      "name": "Transfer",
      "type": "event"
    },
    {
      "inputs": [
        {
          "internalType": "uint256",
          "name": "_id",
          "type": "uint256"
        }
      ],
      "name": "acceptPartnership",
      "outputs": [],
      "stateMutability": "nonpayable",
      "type": "function"
    },
    {
      "inputs": [
        {
          "internalType": "address",
          "name": "owner",
          "type": "address"
        },
        {
          "internalType": "address",
          "name": "spender",
          "type": "address"
        }
      ],
      "name": "allowance",
      "outputs": [
        {
          "internalType": "uint256",
          "name": "",
          "type": "uint256"
        }
      ],
      "stateMutability": "view",
      "type": "function"
    },
    {
      "inputs": [
        {
          "internalType": "address",
          "name": "spender",
          "type": "address"
        },
        {
          "internalType": "uint256",
          "name": "amount",
          "type": "uint256"
        }
      ],
      "name": "approve",
      "outputs": [
        {
          "internalType": "bool",
          "name": "",
          "type": "bool"
        }
      ],
      "stateMutability": "nonpayable",
      "type": "function"
    },
    {
      "inputs": [],
      "name": "balance",
      "outputs": [
        {
          "internalType": "uint256",
          "name": "",
          "type": "uint256"
        }
      ],
      "stateMutability": "view",
      "type": "function"
    },
    {
      "inputs": [
        {
          "internalType": "address",
          "name": "account",
          "type": "address"
        }
      ],
      "name": "balanceOf",
      "outputs": [
        {
          "internalType": "uint256",
          "name": "",
          "type": "uint256"
        }
      ],
      "stateMutability": "view",
      "type": "function"
    },
    {
      "inputs": [
        {
          "internalType": "string",
          "name": "name",
          "type": "string"
        },
        {
          "internalType": "string",
          "name": "email",
          "type": "string"
        },
        {
          "internalType": "uint256",
          "name": "number",
          "type": "uint256"
        },
        {
          "components": [
            {
              "internalType": "string",
              "name": "country",
              "type": "string"
            },
            {
              "internalType": "string",
              "name": "state",
              "type": "string"
            },
            {
              "internalType": "string",
              "name": "city",
              "type": "string"
            },
            {
              "internalType": "string",
              "name": "locationAddress",
              "type": "string"
            },
            {
              "internalType": "string",
              "name": "locationAddress2",
              "type": "string"
            }
          ],
          "internalType": "struct ILocation",
          "name": "location",
          "type": "tuple"
        },
        {
          "internalType": "string",
          "name": "description",
          "type": "string"
        },
        {
          "internalType": "string",
          "name": "goal",
          "type": "string"
        }
      ],
      "name": "becomePartner",
      "outputs": [],
      "stateMutability": "nonpayable",
      "type": "function"
    },
    {
      "inputs": [
        {
          "internalType": "uint256",
          "name": "_id",
          "type": "uint256"
        }
      ],
      "name": "contribute",
      "outputs": [],
      "stateMutability": "payable",
      "type": "function"
    },
    {
      "inputs": [
        {
          "internalType": "string",
          "name": "_aim",
          "type": "string"
        },
        {
          "internalType": "string",
          "name": "_email",
          "type": "string"
        },
        {
          "components": [
            {
              "internalType": "string",
              "name": "country",
              "type": "string"
            },
            {
              "internalType": "string",
              "name": "state",
              "type": "string"
            },
            {
              "internalType": "string",
              "name": "city",
              "type": "string"
            },
            {
              "internalType": "string",
              "name": "locationAddress",
              "type": "string"
            },
            {
              "internalType": "string",
              "name": "locationAddress2",
              "type": "string"
            }
          ],
          "internalType": "struct ILocation",
          "name": "_location",
          "type": "tuple"
        },
        {
          "internalType": "string",
          "name": "_description",
          "type": "string"
        },
        {
          "internalType": "string",
          "name": "_goal",
          "type": "string"
        },
        {
          "internalType": "uint256[]",
          "name": "_partners",
          "type": "uint256[]"
        }
      ],
      "name": "createGoal",
      "outputs": [],
      "stateMutability": "nonpayable",
      "type": "function"
    },
    {
      "inputs": [],
      "name": "daoLibrary",
      "outputs": [
        {
          "internalType": "contract Dao",
          "name": "",
          "type": "address"
        }
      ],
      "stateMutability": "view",
      "type": "function"
    },
    {
      "inputs": [],
      "name": "decimals",
      "outputs": [
        {
          "internalType": "uint8",
          "name": "",
          "type": "uint8"
        }
      ],
      "stateMutability": "view",
      "type": "function"
    },
    {
      "inputs": [
        {
          "internalType": "address",
          "name": "spender",
          "type": "address"
        },
        {
          "internalType": "uint256",
          "name": "subtractedValue",
          "type": "uint256"
        }
      ],
      "name": "decreaseAllowance",
      "outputs": [
        {
          "internalType": "bool",
          "name": "",
          "type": "bool"
        }
      ],
      "stateMutability": "nonpayable",
      "type": "function"
    },
    {
      "inputs": [
        {
          "internalType": "uint256",
          "name": "_id",
          "type": "uint256"
        }
      ],
      "name": "endGoal",
      "outputs": [],
      "stateMutability": "nonpayable",
      "type": "function"
    },
    {
      "inputs": [
        {
          "internalType": "uint256",
          "name": "_id",
          "type": "uint256"
        }
      ],
      "name": "endGoalVote",
      "outputs": [],
      "stateMutability": "nonpayable",
      "type": "function"
    },
    {
      "inputs": [
        {
          "internalType": "uint256",
          "name": "_id",
          "type": "uint256"
        }
      ],
      "name": "endPartnerVote",
      "outputs": [],
      "stateMutability": "nonpayable",
      "type": "function"
    },
    {
      "inputs": [
        {
          "internalType": "uint256",
          "name": "_amount",
          "type": "uint256"
        }
      ],
      "name": "getConversion",
      "outputs": [
        {
          "internalType": "uint256",
          "name": "",
          "type": "uint256"
        }
      ],
      "stateMutability": "view",
      "type": "function"
    },
    {
      "inputs": [
        {
          "internalType": "uint256",
          "name": "_id",
          "type": "uint256"
        }
      ],
      "name": "getGoal",
      "outputs": [
        {
          "components": [
            {
              "internalType": "string",
              "name": "aim",
              "type": "string"
            },
            {
              "internalType": "address",
              "name": "owner",
              "type": "address"
            },
            {
              "internalType": "string",
              "name": "email",
              "type": "string"
            },
            {
              "components": [
                {
                  "internalType": "string",
                  "name": "country",
                  "type": "string"
                },
                {
                  "internalType": "string",
                  "name": "state",
                  "type": "string"
                },
                {
                  "internalType": "string",
                  "name": "city",
                  "type": "string"
                },
                {
                  "internalType": "string",
                  "name": "locationAddress",
                  "type": "string"
                },
                {
                  "internalType": "string",
                  "name": "locationAddress2",
                  "type": "string"
                }
              ],
              "internalType": "struct ILocation",
              "name": "location",
              "type": "tuple"
            },
            {
              "internalType": "string",
              "name": "description",
              "type": "string"
            },
            {
              "internalType": "string",
              "name": "goal",
              "type": "string"
            },
            {
              "internalType": "uint256[]",
              "name": "partners",
              "type": "uint256[]"
            },
            {
              "internalType": "uint256[]",
              "name": "onWait",
              "type": "uint256[]"
            },
            {
              "internalType": "uint256",
              "name": "createdAt",
              "type": "uint256"
            },
            {
              "internalType": "uint256",
              "name": "balance",
              "type": "uint256"
            },
            {
              "internalType": "bool",
              "name": "approved",
              "type": "bool"
            },
            {
              "internalType": "bool",
              "name": "hasEnded",
              "type": "bool"
            }
          ],
          "internalType": "struct IGoal",
          "name": "",
          "type": "tuple"
        }
      ],
      "stateMutability": "view",
      "type": "function"
    },
    {
      "inputs": [],
      "name": "getGoals",
      "outputs": [
        {
          "components": [
            {
              "internalType": "string",
              "name": "aim",
              "type": "string"
            },
            {
              "internalType": "address",
              "name": "owner",
              "type": "address"
            },
            {
              "internalType": "string",
              "name": "email",
              "type": "string"
            },
            {
              "components": [
                {
                  "internalType": "string",
                  "name": "country",
                  "type": "string"
                },
                {
                  "internalType": "string",
                  "name": "state",
                  "type": "string"
                },
                {
                  "internalType": "string",
                  "name": "city",
                  "type": "string"
                },
                {
                  "internalType": "string",
                  "name": "locationAddress",
                  "type": "string"
                },
                {
                  "internalType": "string",
                  "name": "locationAddress2",
                  "type": "string"
                }
              ],
              "internalType": "struct ILocation",
              "name": "location",
              "type": "tuple"
            },
            {
              "internalType": "string",
              "name": "description",
              "type": "string"
            },
            {
              "internalType": "string",
              "name": "goal",
              "type": "string"
            },
            {
              "internalType": "uint256[]",
              "name": "partners",
              "type": "uint256[]"
            },
            {
              "internalType": "uint256[]",
              "name": "onWait",
              "type": "uint256[]"
            },
            {
              "internalType": "uint256",
              "name": "createdAt",
              "type": "uint256"
            },
            {
              "internalType": "uint256",
              "name": "balance",
              "type": "uint256"
            },
            {
              "internalType": "bool",
              "name": "approved",
              "type": "bool"
            },
            {
              "internalType": "bool",
              "name": "hasEnded",
              "type": "bool"
            }
          ],
          "internalType": "struct IGoal[]",
          "name": "",
          "type": "tuple[]"
        }
      ],
      "stateMutability": "view",
      "type": "function"
    },
    {
      "inputs": [
        {
          "internalType": "uint256",
          "name": "_id",
          "type": "uint256"
        }
      ],
      "name": "getPartner",
      "outputs": [
        {
          "components": [
            {
              "internalType": "string",
              "name": "name",
              "type": "string"
            },
            {
              "internalType": "address",
              "name": "owner",
              "type": "address"
            },
            {
              "internalType": "string",
              "name": "email",
              "type": "string"
            },
            {
              "internalType": "uint256",
              "name": "number",
              "type": "uint256"
            },
            {
              "components": [
                {
                  "internalType": "string",
                  "name": "country",
                  "type": "string"
                },
                {
                  "internalType": "string",
                  "name": "state",
                  "type": "string"
                },
                {
                  "internalType": "string",
                  "name": "city",
                  "type": "string"
                },
                {
                  "internalType": "string",
                  "name": "locationAddress",
                  "type": "string"
                },
                {
                  "internalType": "string",
                  "name": "locationAddress2",
                  "type": "string"
                }
              ],
              "internalType": "struct ILocation",
              "name": "location",
              "type": "tuple"
            },
            {
              "internalType": "string",
              "name": "description",
              "type": "string"
            },
            {
              "internalType": "string",
              "name": "goal",
              "type": "string"
            },
            {
              "internalType": "uint256",
              "name": "createdAt",
              "type": "uint256"
            },
            {
              "internalType": "bool",
              "name": "approved",
              "type": "bool"
            }
          ],
          "internalType": "struct IPartner",
          "name": "",
          "type": "tuple"
        }
      ],
      "stateMutability": "view",
      "type": "function"
    },
    {
      "inputs": [],
      "name": "getPartners",
      "outputs": [
        {
          "components": [
            {
              "internalType": "string",
              "name": "name",
              "type": "string"
            },
            {
              "internalType": "address",
              "name": "owner",
              "type": "address"
            },
            {
              "internalType": "string",
              "name": "email",
              "type": "string"
            },
            {
              "internalType": "uint256",
              "name": "number",
              "type": "uint256"
            },
            {
              "components": [
                {
                  "internalType": "string",
                  "name": "country",
                  "type": "string"
                },
                {
                  "internalType": "string",
                  "name": "state",
                  "type": "string"
                },
                {
                  "internalType": "string",
                  "name": "city",
                  "type": "string"
                },
                {
                  "internalType": "string",
                  "name": "locationAddress",
                  "type": "string"
                },
                {
                  "internalType": "string",
                  "name": "locationAddress2",
                  "type": "string"
                }
              ],
              "internalType": "struct ILocation",
              "name": "location",
              "type": "tuple"
            },
            {
              "internalType": "string",
              "name": "description",
              "type": "string"
            },
            {
              "internalType": "string",
              "name": "goal",
              "type": "string"
            },
            {
              "internalType": "uint256",
              "name": "createdAt",
              "type": "uint256"
            },
            {
              "internalType": "bool",
              "name": "approved",
              "type": "bool"
            }
          ],
          "internalType": "struct IPartner[]",
          "name": "",
          "type": "tuple[]"
        }
      ],
      "stateMutability": "view",
      "type": "function"
    },
    {
      "inputs": [],
      "name": "getReputation",
      "outputs": [
        {
          "internalType": "uint256",
          "name": "",
          "type": "uint256"
        }
      ],
      "stateMutability": "view",
      "type": "function"
    },
    {
      "inputs": [
        {
          "internalType": "address",
          "name": "spender",
          "type": "address"
        },
        {
          "internalType": "uint256",
          "name": "addedValue",
          "type": "uint256"
        }
      ],
      "name": "increaseAllowance",
      "outputs": [
        {
          "internalType": "bool",
          "name": "",
          "type": "bool"
        }
      ],
      "stateMutability": "nonpayable",
      "type": "function"
    },
    {
      "inputs": [],
      "name": "name",
      "outputs": [
        {
          "internalType": "string",
          "name": "",
          "type": "string"
        }
      ],
      "stateMutability": "view",
      "type": "function"
    },
    {
      "inputs": [],
      "name": "owner",
      "outputs": [
        {
          "internalType": "address",
          "name": "",
          "type": "address"
        }
      ],
      "stateMutability": "view",
      "type": "function"
    },
    {
      "inputs": [
        {
          "internalType": "uint256",
          "name": "_id",
          "type": "uint256"
        }
      ],
      "name": "reward",
      "outputs": [],
      "stateMutability": "nonpayable",
      "type": "function"
    },
    {
      "inputs": [],
      "name": "symbol",
      "outputs": [
        {
          "internalType": "string",
          "name": "",
          "type": "string"
        }
      ],
      "stateMutability": "view",
      "type": "function"
    },
    {
      "inputs": [],
      "name": "totalSupply",
      "outputs": [
        {
          "internalType": "uint256",
          "name": "",
          "type": "uint256"
        }
      ],
      "stateMutability": "view",
      "type": "function"
    },
    {
      "inputs": [
        {
          "internalType": "address",
          "name": "to",
          "type": "address"
        },
        {
          "internalType": "uint256",
          "name": "amount",
          "type": "uint256"
        }
      ],
      "name": "transfer",
      "outputs": [
        {
          "internalType": "bool",
          "name": "",
          "type": "bool"
        }
      ],
      "stateMutability": "nonpayable",
      "type": "function"
    },
    {
      "inputs": [
        {
          "internalType": "address",
          "name": "from",
          "type": "address"
        },
        {
          "internalType": "address",
          "name": "to",
          "type": "address"
        },
        {
          "internalType": "uint256",
          "name": "amount",
          "type": "uint256"
        }
      ],
      "name": "transferFrom",
      "outputs": [
        {
          "internalType": "bool",
          "name": "",
          "type": "bool"
        }
      ],
      "stateMutability": "nonpayable",
      "type": "function"
    },
    {
      "inputs": [
        {
          "internalType": "uint256",
          "name": "_id",
          "type": "uint256"
        },
        {
          "internalType": "string",
          "name": "_purpose",
          "type": "string"
        },
        {
          "internalType": "uint256",
          "name": "_amount",
          "type": "uint256"
        }
      ],
      "name": "withdraw",
      "outputs": [],
      "stateMutability": "nonpayable",
      "type": "function"
    }
  ],
  "bytecode": "0x60806040523480156200001157600080fd5b506040516200552738038062005527833981016040819052620000349162000209565b6040518060400160405280600481526020016311dbd85b60e21b815250604051806040016040528060018152602001604760f81b81525081600390816200007c9190620002c9565b5060046200008b8282620002c9565b5050600780546001600160a01b0319163317905550604051620000ae90620001fb565b604051809103906000f080158015620000cb573d6000803e3d6000fd5b50600580546001600160a01b03929092166001600160a01b03199283161790556006805490911673694aa1769357215de4fac081bf1f309adc32530617905562000129336200012383670de0b6b3a7640000620003ab565b62000130565b50620003e1565b6001600160a01b0382166200018b5760405162461bcd60e51b815260206004820152601f60248201527f45524332303a206d696e7420746f20746865207a65726f206164647265737300604482015260640160405180910390fd5b80600260008282546200019f9190620003cb565b90915550506001600160a01b038216600081815260208181526040808320805486019055518481527fddf252ad1be2c89b69c2b068fc378daa952ba7f163c4a11628f55a4df523b3ef910160405180910390a35050565b505050565b610a0e8062004b1983390190565b6000602082840312156200021c57600080fd5b5051919050565b634e487b7160e01b600052604160045260246000fd5b600181811c908216806200024e57607f821691505b6020821081036200026f57634e487b7160e01b600052602260045260246000fd5b50919050565b601f821115620001f6576000816000526020600020601f850160051c81016020861015620002a05750805b601f850160051c820191505b81811015620002c157828155600101620002ac565b505050505050565b81516001600160401b03811115620002e557620002e562000223565b620002fd81620002f6845462000239565b8462000275565b602080601f8311600181146200033557600084156200031c5750858301515b600019600386901b1c1916600185901b178555620002c1565b600085815260208120601f198616915b82811015620003665788860151825594840194600190910190840162000345565b5085821015620003855787850151600019600388901b60f8161c191681555b5050505050600190811b01905550565b634e487b7160e01b600052601160045260246000fd5b8082028115828204841417620003c557620003c562000395565b92915050565b80820180821115620003c557620003c562000395565b61472880620003f16000396000f3fe6080604052600436106101525760003560e01c8063047abed714610157578063060e94441461018a57806306fdde03146101ac578063095ea7b3146101ce57806318160ddd146101fe5780631b5c2c361461021357806323b872dd1461023357806330218db714610253578063313ce56714610273578063395093511461028f57806370a08231146102af57806373e29b0d146102e55780637fc9661914610307578063871f3c17146103345780638da5cb5b14610354578063912baedb1461038157806395d89b41146103a15780639e656d69146103b6578063a457c2d7146103d8578063a9059cbb146103f8578063a9fb763c14610418578063ac004b9114610438578063b2b21c0614610458578063b69ef8a814610478578063c1cbbca71461048e578063dd62ed3e146104a1578063df6ed6cb146104c1578063e11031fb146104ee578063ffe6a18e1461050e575b600080fd5b34801561016357600080fd5b50610177610172366004613a63565b610523565b6040519081526020015b60405180910390f35b34801561019657600080fd5b506101aa6101a5366004613b59565b610557565b005b3480156101b857600080fd5b506101c1610765565b6040516101819190613bee565b3480156101da57600080fd5b506101ee6101e9366004613c24565b6107f7565b6040519015158152602001610181565b34801561020a57600080fd5b50600254610177565b34801561021f57600080fd5b506101aa61022e366004613d2b565b610811565b34801561023f57600080fd5b506101ee61024e366004613e04565b610a2c565b34801561025f57600080fd5b506101aa61026e366004613ebf565b610a50565b34801561027f57600080fd5b5060405160128152602001610181565b34801561029b57600080fd5b506101ee6102aa366004613c24565b610cd9565b3480156102bb57600080fd5b506101776102ca366004613fa6565b6001600160a01b031660009081526020819052604090205490565b3480156102f157600080fd5b506102fa610cfb565b6040516101819190614119565b34801561031357600080fd5b50610327610322366004613a63565b6112d1565b604051610181919061417d565b34801561034057600080fd5b506101aa61034f366004613a63565b61187d565b34801561036057600080fd5b50600754610374906001600160a01b031681565b6040516101819190614190565b34801561038d57600080fd5b506101aa61039c366004613a63565b611bca565b3480156103ad57600080fd5b506101c1611e4d565b3480156103c257600080fd5b506103cb611e5c565b60405161018191906142e0565b3480156103e457600080fd5b506101ee6103f3366004613c24565b6124e9565b34801561040457600080fd5b506101ee610413366004613c24565b612564565b34801561042457600080fd5b506101aa610433366004613a63565b612572565b34801561044457600080fd5b506101aa610453366004613a63565b6126e4565b34801561046457600080fd5b50600554610374906001600160a01b031681565b34801561048457600080fd5b50610177600b5481565b6101aa61049c366004613a63565b6129d9565b3480156104ad57600080fd5b506101776104bc366004614337565b612bcb565b3480156104cd57600080fd5b506104e16104dc366004613a63565b612bf6565b604051610181919061436a565b3480156104fa57600080fd5b506101aa610509366004613a63565b613262565b34801561051a57600080fd5b506101776134b9565b60008061052e613530565b90506000670de0b6b3a76400006105458584614393565b61054f91906143aa565b949350505050565b60005b6008848154811061056d5761056d6143cc565b90600052602060002090600f0201600a018054905081101561075f5760006008858154811061059e5761059e6143cc565b90600052602060002090600f0201600a0182815481106105c0576105c06143cc565b90600052602060002001549050336001600160a01b0316600982815481106105ea576105ea6143cc565b600091825260209091206001600d9092020101546001600160a01b0316036107565760008311801561063f57506008858154811061062a5761062a6143cc565b90600052602060002090600f0201600d015483105b6106a85760405162461bcd60e51b815260206004820152602f60248201527f5769746864726177616c20616d6f756e74206d7573742062652062657477656560448201526e6e203020616e642062616c616e636560881b60648201526084015b60405180910390fd5b604051339084156108fc029085906000818181858888f193505050501580156106d5573d6000803e3d6000fd5b50336001600160a01b0316857fc2efd65628bffdae5ea1eb20fbc01a4616b03e5c5a8c444a711d6fd3e723a09e838688604051610714939291906143e2565b60405180910390a38260088681548110610730576107306143cc565b90600052602060002090600f0201600d0160008282546107509190614401565b90915550505b5060010161055a565b50505050565b60606003805461077490614414565b80601f01602080910402602001604051908101604052809291908181526020018280546107a090614414565b80156107ed5780601f106107c2576101008083540402835291602001916107ed565b820191906000526020600020905b8154815290600101906020018083116107d057829003601f168201915b5050505050905090565b6000336108058185856135c7565b60019150505b92915050565b6040805161012081018252878152336020820152908101869052606081018590526080810184905260a0810183905260c081018290524260e08201526000610100820181905260098054600181018255915281518291600d027f6e1540171b6c0c960b71a7020d9f60077f6af931a8bbf590da0223dacf75c7af019081906108999082614496565b5060208201516001820180546001600160a01b0319166001600160a01b03909216919091179055604082015160028201906108d49082614496565b506060820151600382015560808201518051600483019081906108f79082614496565b506020820151600182019061090c9082614496565b50604082015160028201906109219082614496565b50606082015160038201906109369082614496565b506080820151600482019061094b9082614496565b50505060a082015160098201906109629082614496565b5060c0820151600a8201906109779082614496565b5060e0820151600b82015561010090910151600c909101805460ff19169115159190911790556005546009546001600160a01b0390911690639da9c593906109c190600190614401565b6109cd4261012c614555565b6040516001600160e01b031960e085901b16815260048101929092526024820152604401600060405180830381600087803b158015610a0b57600080fd5b505af1158015610a1f573d6000803e3d6000fd5b5050505050505050505050565b600033610a3a8582856136eb565b610a4585858561375f565b506001949350505050565b604080516101808101825287815233602082015290810186905260608181018690526080820185905260a0820184905260c0820181905260e0820183905242610100830152600061012083018190526101408301819052610160830181905260088054600181018255915282519192918291600f027ff3f7a9fe364faab93b216da50a3214154f22a0a2b415b23a84c8169e8b636ee301908190610af49082614496565b5060208201516001820180546001600160a01b0319166001600160a01b0390921691909117905560408201516002820190610b2f9082614496565b506060820151805160038301908190610b489082614496565b5060208201516001820190610b5d9082614496565b5060408201516002820190610b729082614496565b5060608201516003820190610b879082614496565b5060808201516004820190610b9c9082614496565b50505060808201516008820190610bb39082614496565b5060a08201516009820190610bc89082614496565b5060c08201518051610be491600a840191602090910190613903565b5060e08201518051610c0091600b840191602090910190613903565b5061010082810151600c830155610120830151600d830155610140830151600e90920180546101609094015161ffff1990941692151561ff00191692909217921515029190911790556005546008546001600160a01b039091169063b803a58d90610c6d90600190614401565b610c794261012c614555565b6040516001600160e01b031960e085901b16815260048101929092526024820152604401600060405180830381600087803b158015610cb757600080fd5b505af1158015610ccb573d6000803e3d6000fd5b505050505050505050505050565b600033610805818585610cec8383612bcb565b610cf69190614555565b6135c7565b60606009805480602002602001604051908101604052809291908181526020016000905b828210156112c857838290600052602060002090600d020160405180610120016040529081600082018054610d5390614414565b80601f0160208091040260200160405190810160405280929190818152602001828054610d7f90614414565b8015610dcc5780601f10610da157610100808354040283529160200191610dcc565b820191906000526020600020905b815481529060010190602001808311610daf57829003601f168201915b505050918352505060018201546001600160a01b03166020820152600282018054604090920191610dfc90614414565b80601f0160208091040260200160405190810160405280929190818152602001828054610e2890614414565b8015610e755780601f10610e4a57610100808354040283529160200191610e75565b820191906000526020600020905b815481529060010190602001808311610e5857829003601f168201915b5050505050815260200160038201548152602001600482016040518060a0016040529081600082018054610ea890614414565b80601f0160208091040260200160405190810160405280929190818152602001828054610ed490614414565b8015610f215780601f10610ef657610100808354040283529160200191610f21565b820191906000526020600020905b815481529060010190602001808311610f0457829003601f168201915b50505050508152602001600182018054610f3a90614414565b80601f0160208091040260200160405190810160405280929190818152602001828054610f6690614414565b8015610fb35780601f10610f8857610100808354040283529160200191610fb3565b820191906000526020600020905b815481529060010190602001808311610f9657829003601f168201915b50505050508152602001600282018054610fcc90614414565b80601f0160208091040260200160405190810160405280929190818152602001828054610ff890614414565b80156110455780601f1061101a57610100808354040283529160200191611045565b820191906000526020600020905b81548152906001019060200180831161102857829003601f168201915b5050505050815260200160038201805461105e90614414565b80601f016020809104026020016040519081016040528092919081815260200182805461108a90614414565b80156110d75780601f106110ac576101008083540402835291602001916110d7565b820191906000526020600020905b8154815290600101906020018083116110ba57829003601f168201915b505050505081526020016004820180546110f090614414565b80601f016020809104026020016040519081016040528092919081815260200182805461111c90614414565b80156111695780601f1061113e57610100808354040283529160200191611169565b820191906000526020600020905b81548152906001019060200180831161114c57829003601f168201915b505050505081525050815260200160098201805461118690614414565b80601f01602080910402602001604051908101604052809291908181526020018280546111b290614414565b80156111ff5780601f106111d4576101008083540402835291602001916111ff565b820191906000526020600020905b8154815290600101906020018083116111e257829003601f168201915b50505050508152602001600a8201805461121890614414565b80601f016020809104026020016040519081016040528092919081815260200182805461124490614414565b80156112915780601f1061126657610100808354040283529160200191611291565b820191906000526020600020905b81548152906001019060200180831161127457829003601f168201915b5050509183525050600b820154602080830191909152600c9092015460ff1615156040909101529082526001929092019101610d1f565b50505050905090565b6112d961394e565b600982815481106112ec576112ec6143cc565b90600052602060002090600d02016040518061012001604052908160008201805461131690614414565b80601f016020809104026020016040519081016040528092919081815260200182805461134290614414565b801561138f5780601f106113645761010080835404028352916020019161138f565b820191906000526020600020905b81548152906001019060200180831161137257829003601f168201915b505050918352505060018201546001600160a01b031660208201526002820180546040909201916113bf90614414565b80601f01602080910402602001604051908101604052809291908181526020018280546113eb90614414565b80156114385780601f1061140d57610100808354040283529160200191611438565b820191906000526020600020905b81548152906001019060200180831161141b57829003601f168201915b5050505050815260200160038201548152602001600482016040518060a001604052908160008201805461146b90614414565b80601f016020809104026020016040519081016040528092919081815260200182805461149790614414565b80156114e45780601f106114b9576101008083540402835291602001916114e4565b820191906000526020600020905b8154815290600101906020018083116114c757829003601f168201915b505050505081526020016001820180546114fd90614414565b80601f016020809104026020016040519081016040528092919081815260200182805461152990614414565b80156115765780601f1061154b57610100808354040283529160200191611576565b820191906000526020600020905b81548152906001019060200180831161155957829003601f168201915b5050505050815260200160028201805461158f90614414565b80601f01602080910402602001604051908101604052809291908181526020018280546115bb90614414565b80156116085780601f106115dd57610100808354040283529160200191611608565b820191906000526020600020905b8154815290600101906020018083116115eb57829003601f168201915b5050505050815260200160038201805461162190614414565b80601f016020809104026020016040519081016040528092919081815260200182805461164d90614414565b801561169a5780601f1061166f5761010080835404028352916020019161169a565b820191906000526020600020905b81548152906001019060200180831161167d57829003601f168201915b505050505081526020016004820180546116b390614414565b80601f01602080910402602001604051908101604052809291908181526020018280546116df90614414565b801561172c5780601f106117015761010080835404028352916020019161172c565b820191906000526020600020905b81548152906001019060200180831161170f57829003601f168201915b505050505081525050815260200160098201805461174990614414565b80601f016020809104026020016040519081016040528092919081815260200182805461177590614414565b80156117c25780601f10611797576101008083540402835291602001916117c2565b820191906000526020600020905b8154815290600101906020018083116117a557829003601f168201915b50505050508152602001600a820180546117db90614414565b80601f016020809104026020016040519081016040528092919081815260200182805461180790614414565b80156118545780601f1061182957610100808354040283529160200191611854565b820191906000526020600020905b81548152906001019060200180831161183757829003601f168201915b5050509183525050600b8201546020820152600c9091015460ff16151560409091015292915050565b8060088181548110611891576118916143cc565b60009182526020909120600f90910201600e0154610100900460ff16156118ca5760405162461bcd60e51b815260040161069f90614568565b336001600160a01b0316600883815481106118e7576118e76143cc565b600091825260209091206001600f9092020101546001600160a01b0316146119415760405162461bcd60e51b815260206004820152600d60248201526c26bab9ba1031329027bbb732b960991b604482015260640161069f565b60088281548110611954576119546143cc565b90600052602060002090600f0201600d0154600b60008282546119779190614555565b92505081905550600060088381548110611993576119936143cc565b60009182526020909120600d600f9092020101556005805460405163589060b560e11b81526001600160a01b039091169163b120c16a916119d8913391600401614590565b600060405180830381600087803b1580156119f257600080fd5b505af1158015611a06573d6000803e3d6000fd5b50505050611a1c336729a2241af62c0000612564565b5060005b60088381548110611a3357611a336143cc565b90600052602060002090600f0201600a0180549050811015611b8857600060088481548110611a6457611a646143cc565b90600052602060002090600f0201600a018281548110611a8657611a866143cc565b90600052602060002001549050600560009054906101000a90046001600160a01b03166001600160a01b031663b120c16a60098381548110611aca57611aca6143cc565b600091825260209091206001600d9092020101546040516001600160e01b031960e084901b168152611b0b916001600160a01b031690600390600401614590565b600060405180830381600087803b158015611b2557600080fd5b505af1158015611b39573d6000803e3d6000fd5b50505050611b7e60098281548110611b5357611b536143cc565b600091825260209091206001600d9092020101546001600160a01b03166729a2241af62c0000612564565b5050600101611a20565b50600160088381548110611b9e57611b9e6143cc565b90600052602060002090600f0201600e0160016101000a81548160ff0219169083151502179055505050565b60606000805b60088481548110611be357611be36143cc565b90600052602060002090600f0201600b0180549050811015611d6457600060088581548110611c1457611c146143cc565b90600052602060002090600f0201600b018281548110611c3657611c366143cc565b9060005260206000200154905060098181548110611c5657611c566143cc565b60009182526020909120600d90910201600101546001600160a01b031633148015611cac575060098181548110611c8f57611c8f6143cc565b60009182526020909120600c600d90920201015460ff1615156001145b15611cf05760088581548110611cc457611cc46143cc565b60009182526020808320600a600f90930201919091018054600181018255908352912001819055611d5b565b60088581548110611d0357611d036143cc565b90600052602060002090600f0201600b018281548110611d2557611d256143cc565b9060005260206000200154848481518110611d4257611d426143cc565b602090810291909101015282611d57816145a9565b9350505b50600101611bd0565b50806001600160401b03811115611d7d57611d7d613a7c565b604051908082528060200260200182016040528015611da6578160200160208202803683370190505b5060088481548110611dba57611dba6143cc565b90600052602060002090600f0201600b019080519060200190611dde929190613903565b5060005b8181101561075f57828181518110611dfc57611dfc6143cc565b602002602001015160088581548110611e1757611e176143cc565b90600052602060002090600f0201600b018281548110611e3957611e396143cc565b600091825260209091200155600101611de2565b60606004805461077490614414565b60606008805480602002602001604051908101604052809291908181526020016000905b828210156112c857838290600052602060002090600f020160405180610180016040529081600082018054611eb490614414565b80601f0160208091040260200160405190810160405280929190818152602001828054611ee090614414565b8015611f2d5780601f10611f0257610100808354040283529160200191611f2d565b820191906000526020600020905b815481529060010190602001808311611f1057829003601f168201915b505050918352505060018201546001600160a01b03166020820152600282018054604090920191611f5d90614414565b80601f0160208091040260200160405190810160405280929190818152602001828054611f8990614414565b8015611fd65780601f10611fab57610100808354040283529160200191611fd6565b820191906000526020600020905b815481529060010190602001808311611fb957829003601f168201915b50505050508152602001600382016040518060a0016040529081600082018054611fff90614414565b80601f016020809104026020016040519081016040528092919081815260200182805461202b90614414565b80156120785780601f1061204d57610100808354040283529160200191612078565b820191906000526020600020905b81548152906001019060200180831161205b57829003601f168201915b5050505050815260200160018201805461209190614414565b80601f01602080910402602001604051908101604052809291908181526020018280546120bd90614414565b801561210a5780601f106120df5761010080835404028352916020019161210a565b820191906000526020600020905b8154815290600101906020018083116120ed57829003601f168201915b5050505050815260200160028201805461212390614414565b80601f016020809104026020016040519081016040528092919081815260200182805461214f90614414565b801561219c5780601f106121715761010080835404028352916020019161219c565b820191906000526020600020905b81548152906001019060200180831161217f57829003601f168201915b505050505081526020016003820180546121b590614414565b80601f01602080910402602001604051908101604052809291908181526020018280546121e190614414565b801561222e5780601f106122035761010080835404028352916020019161222e565b820191906000526020600020905b81548152906001019060200180831161221157829003601f168201915b5050505050815260200160048201805461224790614414565b80601f016020809104026020016040519081016040528092919081815260200182805461227390614414565b80156122c05780601f10612295576101008083540402835291602001916122c0565b820191906000526020600020905b8154815290600101906020018083116122a357829003601f168201915b50505050508152505081526020016008820180546122dd90614414565b80601f016020809104026020016040519081016040528092919081815260200182805461230990614414565b80156123565780601f1061232b57610100808354040283529160200191612356565b820191906000526020600020905b81548152906001019060200180831161233957829003601f168201915b5050505050815260200160098201805461236f90614414565b80601f016020809104026020016040519081016040528092919081815260200182805461239b90614414565b80156123e85780601f106123bd576101008083540402835291602001916123e8565b820191906000526020600020905b8154815290600101906020018083116123cb57829003601f168201915b50505050508152602001600a820180548060200260200160405190810160405280929190818152602001828054801561244057602002820191906000526020600020905b81548152602001906001019080831161242c575b50505050508152602001600b820180548060200260200160405190810160405280929190818152602001828054801561249857602002820191906000526020600020905b815481526020019060010190808311612484575b5050509183525050600c820154602080830191909152600d8301546040830152600e9092015460ff808216151560608401526101009091041615156080909101529082526001929092019101611e80565b600033816124f78286612bcb565b9050838110156125575760405162461bcd60e51b815260206004820152602560248201527f45524332303a2064656372656173656420616c6c6f77616e63652062656c6f77604482015264207a65726f60d81b606482015260840161069f565b610a4582868684036135c7565b60003361080581858561375f565b60088181548110612585576125856143cc565b60009182526020909120600e600f90920201015460ff6101009091041615156001146125ec5760405162461bcd60e51b815260206004820152601660248201527511dbd85b081a185cc81b9bdd08195b991959081e595d60521b604482015260640161069f565b6000818152600a6020908152604080832033845290915290206001015460ff16156126635760405162461bcd60e51b815260206004820152602160248201527f53656e6465722068617320616c7265616479206265696e6720726577617264656044820152601960fa1b606482015260840161069f565b6000818152600a60209081526040808320338452909152902054806126d55760405162461bcd60e51b815260206004820152602260248201527f4e6f20636f6e747269627574696f6e73206d61646520746f207468697320676f604482015261185b60f21b606482015260840161069f565b6126df3382612564565b505050565b600554604051635cbffa5160e11b81526004810183905282916000916001600160a01b039091169063b97ff4a290602401608060405180830381865afa158015612732573d6000803e3d6000fd5b505050506040513d601f19601f8201168201806040525081019061275691906145c2565b935050821591506127a490505760405162461bcd60e51b815260206004820152601660248201527514185c9d1b995c88159bdd19481a185cc8195b99195960521b604482015260640161069f565b600554604051635cbffa5160e11b815260048101859052600091829182916001600160a01b03169063b97ff4a290602401608060405180830381865afa1580156127f2573d6000803e3d6000fd5b505050506040513d601f19601f8201168201806040525081019061281691906145c2565b509250925092508042101561283d5760405162461bcd60e51b815260040161069f90614608565b818311156128e65760016009878154811061285a5761285a6143cc565b60009182526020909120600d90910201600c01805460ff191691151591909117905560055460405163b23e33dd60e01b81526001600160a01b039091169063b23e33dd906128af908990600190600401614632565b600060405180830381600087803b1580156128c957600080fd5b505af11580156128dd573d6000803e3d6000fd5b505050506129d1565b818303612934576005546001600160a01b0316639da9c5938761290b4261012c614555565b6040516001600160e01b031960e085901b168152600481019290925260248201526044016128af565b600060098781548110612949576129496143cc565b60009182526020909120600d90910201600c01805460ff191691151591909117905560055460405163b23e33dd60e01b81526001600160a01b039091169063b23e33dd9061299e908990600190600401614632565b600060405180830381600087803b1580156129b857600080fd5b505af11580156129cc573d6000803e3d6000fd5b505050505b505050505050565b80600881815481106129ed576129ed6143cc565b60009182526020909120600f90910201600e0154610100900460ff1615612a265760405162461bcd60e51b815260040161069f90614568565b8160088181548110612a3a57612a3a6143cc565b60009182526020909120600e600f90920201015460ff161515600114612a995760405162461bcd60e51b815260206004820152601460248201527311dbd85b081a5cc81b9bdd08185c1c1c9bdd995960621b604482015260640161069f565b6000838152600a60209081526040808320338452909152812054612abc90610523565b6000858152600a60209081526040808320338452909152812080549293503492909190612aea908490614555565b909155505060c88111612b8c576000848152600a60209081526040808320338452909152812054612b1a90610523565b905060c88110612b8a5760055460405163589060b560e11b81526001600160a01b039091169063b120c16a90612b57903390600390600401614590565b600060405180830381600087803b158015612b7157600080fd5b505af1158015612b85573d6000803e3d6000fd5b505050505b505b3460088581548110612ba057612ba06143cc565b90600052602060002090600f0201600d016000828254612bc09190614555565b909155505050505050565b6001600160a01b03918216600090815260016020908152604080832093909416825291909152205490565b612bfe6139ab565b60088281548110612c1157612c116143cc565b90600052602060002090600f020160405180610180016040529081600082018054612c3b90614414565b80601f0160208091040260200160405190810160405280929190818152602001828054612c6790614414565b8015612cb45780601f10612c8957610100808354040283529160200191612cb4565b820191906000526020600020905b815481529060010190602001808311612c9757829003601f168201915b505050918352505060018201546001600160a01b03166020820152600282018054604090920191612ce490614414565b80601f0160208091040260200160405190810160405280929190818152602001828054612d1090614414565b8015612d5d5780601f10612d3257610100808354040283529160200191612d5d565b820191906000526020600020905b815481529060010190602001808311612d4057829003601f168201915b50505050508152602001600382016040518060a0016040529081600082018054612d8690614414565b80601f0160208091040260200160405190810160405280929190818152602001828054612db290614414565b8015612dff5780601f10612dd457610100808354040283529160200191612dff565b820191906000526020600020905b815481529060010190602001808311612de257829003601f168201915b50505050508152602001600182018054612e1890614414565b80601f0160208091040260200160405190810160405280929190818152602001828054612e4490614414565b8015612e915780601f10612e6657610100808354040283529160200191612e91565b820191906000526020600020905b815481529060010190602001808311612e7457829003601f168201915b50505050508152602001600282018054612eaa90614414565b80601f0160208091040260200160405190810160405280929190818152602001828054612ed690614414565b8015612f235780601f10612ef857610100808354040283529160200191612f23565b820191906000526020600020905b815481529060010190602001808311612f0657829003601f168201915b50505050508152602001600382018054612f3c90614414565b80601f0160208091040260200160405190810160405280929190818152602001828054612f6890614414565b8015612fb55780601f10612f8a57610100808354040283529160200191612fb5565b820191906000526020600020905b815481529060010190602001808311612f9857829003601f168201915b50505050508152602001600482018054612fce90614414565b80601f0160208091040260200160405190810160405280929190818152602001828054612ffa90614414565b80156130475780601f1061301c57610100808354040283529160200191613047565b820191906000526020600020905b81548152906001019060200180831161302a57829003601f168201915b505050505081525050815260200160088201805461306490614414565b80601f016020809104026020016040519081016040528092919081815260200182805461309090614414565b80156130dd5780601f106130b2576101008083540402835291602001916130dd565b820191906000526020600020905b8154815290600101906020018083116130c057829003601f168201915b505050505081526020016009820180546130f690614414565b80601f016020809104026020016040519081016040528092919081815260200182805461312290614414565b801561316f5780601f106131445761010080835404028352916020019161316f565b820191906000526020600020905b81548152906001019060200180831161315257829003601f168201915b50505050508152602001600a82018054806020026020016040519081016040528092919081815260200182805480156131c757602002820191906000526020600020905b8154815260200190600101908083116131b3575b50505050508152602001600b820180548060200260200160405190810160405280929190818152602001828054801561321f57602002820191906000526020600020905b81548152602001906001019080831161320b575b5050509183525050600c8201546020820152600d8201546040820152600e9091015460ff8082161515606084015261010090910416151560809091015292915050565b600554604051630121b93f60e01b81526004810183905282916000916001600160a01b0390911690630121b93f90602401608060405180830381865afa1580156132b0573d6000803e3d6000fd5b505050506040513d601f19601f820116820180604052508101906132d491906145c2565b9350508215915061331f90505760405162461bcd60e51b815260206004820152601360248201527211dbd85b08159bdd19481a185cc8195b991959606a1b604482015260640161069f565b600554604051630121b93f60e01b815260048101859052600091829182916001600160a01b031690630121b93f90602401608060405180830381865afa15801561336d573d6000803e3d6000fd5b505050506040513d601f19601f8201168201806040525081019061339191906145c2565b50925092509250804210156133b85760405162461bcd60e51b815260040161069f90614608565b8183111561342a576001600887815481106133d5576133d56143cc565b60009182526020909120600f90910201600e01805460ff1916911515919091179055600554604051631232d0a560e31b81526001600160a01b03909116906391968528906128af908990600190600401614632565b81830361344f576005546001600160a01b031663b803a58d8761290b4261012c614555565b600060088781548110613464576134646143cc565b60009182526020909120600f90910201600e01805460ff1916911515919091179055600554604051631232d0a560e31b81526001600160a01b039091169063919685289061299e908990600190600401614632565b60055460405163b9f7945160e01b81526000916001600160a01b03169063b9f79451906134ea903390600401614190565b602060405180830381865afa158015613507573d6000803e3d6000fd5b505050506040513d601f19601f8201168201806040525081019061352b9190614642565b905090565b600080600660009054906101000a90046001600160a01b03166001600160a01b031663feaf968c6040518163ffffffff1660e01b815260040160a060405180830381865afa158015613586573d6000803e3d6000fd5b505050506040513d601f19601f820116820180604052508101906135aa9190614672565b505050915050806402540be4006135c191906146c2565b91505090565b6001600160a01b0383166136295760405162461bcd60e51b8152602060048201526024808201527f45524332303a20617070726f76652066726f6d20746865207a65726f206164646044820152637265737360e01b606482015260840161069f565b6001600160a01b03821661368a5760405162461bcd60e51b815260206004820152602260248201527f45524332303a20617070726f766520746f20746865207a65726f206164647265604482015261737360f01b606482015260840161069f565b6001600160a01b0383811660008181526001602090815260408083209487168084529482529182902085905590518481527f8c5be1e5ebec7d5bd14f71427d1e84f3dd0314c0f7b2291e5b200ac8c7c3b925910160405180910390a3505050565b60006136f78484612bcb565b9050600019811461075f57818110156137525760405162461bcd60e51b815260206004820152601d60248201527f45524332303a20696e73756666696369656e7420616c6c6f77616e6365000000604482015260640161069f565b61075f84848484036135c7565b6001600160a01b0383166137c35760405162461bcd60e51b815260206004820152602560248201527f45524332303a207472616e736665722066726f6d20746865207a65726f206164604482015264647265737360d81b606482015260840161069f565b6001600160a01b0382166138255760405162461bcd60e51b815260206004820152602360248201527f45524332303a207472616e7366657220746f20746865207a65726f206164647260448201526265737360e81b606482015260840161069f565b6001600160a01b0383166000908152602081905260409020548181101561389d5760405162461bcd60e51b815260206004820152602660248201527f45524332303a207472616e7366657220616d6f756e7420657863656564732062604482015265616c616e636560d01b606482015260840161069f565b6001600160a01b03848116600081815260208181526040808320878703905593871680835291849020805487019055925185815290927fddf252ad1be2c89b69c2b068fc378daa952ba7f163c4a11628f55a4df523b3ef910160405180910390a361075f565b82805482825590600052602060002090810192821561393e579160200282015b8281111561393e578251825591602001919060010190613923565b5061394a929150613a1f565b5090565b6040518061012001604052806060815260200160006001600160a01b031681526020016060815260200160008152602001613987613a34565b81526020016060815260200160608152602001600081526020016000151581525090565b6040518061018001604052806060815260200160006001600160a01b03168152602001606081526020016139dd613a34565b81526020016060815260200160608152602001606081526020016060815260200160008152602001600081526020016000151581526020016000151581525090565b5b8082111561394a5760008155600101613a20565b6040518060a0016040528060608152602001606081526020016060815260200160608152602001606081525090565b600060208284031215613a7557600080fd5b5035919050565b634e487b7160e01b600052604160045260246000fd5b60405160a081016001600160401b0381118282101715613ab457613ab4613a7c565b60405290565b604051601f8201601f191681016001600160401b0381118282101715613ae257613ae2613a7c565b604052919050565b600082601f830112613afb57600080fd5b81356001600160401b03811115613b1457613b14613a7c565b613b27601f8201601f1916602001613aba565b818152846020838601011115613b3c57600080fd5b816020850160208301376000918101602001919091529392505050565b600080600060608486031215613b6e57600080fd5b8335925060208401356001600160401b03811115613b8b57600080fd5b613b9786828701613aea565b925050604084013590509250925092565b6000815180845260005b81811015613bce57602081850181015186830182015201613bb2565b506000602082860101526020601f19601f83011685010191505092915050565b602081526000613c016020830184613ba8565b9392505050565b80356001600160a01b0381168114613c1f57600080fd5b919050565b60008060408385031215613c3757600080fd5b613c4083613c08565b946020939093013593505050565b600060a08284031215613c6057600080fd5b613c68613a92565b905081356001600160401b0380821115613c8157600080fd5b613c8d85838601613aea565b83526020840135915080821115613ca357600080fd5b613caf85838601613aea565b60208401526040840135915080821115613cc857600080fd5b613cd485838601613aea565b60408401526060840135915080821115613ced57600080fd5b613cf985838601613aea565b60608401526080840135915080821115613d1257600080fd5b50613d1f84828501613aea565b60808301525092915050565b60008060008060008060c08789031215613d4457600080fd5b86356001600160401b0380821115613d5b57600080fd5b613d678a838b01613aea565b97506020890135915080821115613d7d57600080fd5b613d898a838b01613aea565b9650604089013595506060890135915080821115613da657600080fd5b613db28a838b01613c4e565b94506080890135915080821115613dc857600080fd5b613dd48a838b01613aea565b935060a0890135915080821115613dea57600080fd5b50613df789828a01613aea565b9150509295509295509295565b600080600060608486031215613e1957600080fd5b613e2284613c08565b9250613e3060208501613c08565b9150604084013590509250925092565b600082601f830112613e5157600080fd5b813560206001600160401b03821115613e6c57613e6c613a7c565b8160051b613e7b828201613aba565b9283528481018201928281019087851115613e9557600080fd5b83870192505b84831015613eb457823582529183019190830190613e9b565b979650505050505050565b60008060008060008060c08789031215613ed857600080fd5b86356001600160401b0380821115613eef57600080fd5b613efb8a838b01613aea565b97506020890135915080821115613f1157600080fd5b613f1d8a838b01613aea565b96506040890135915080821115613f3357600080fd5b613f3f8a838b01613c4e565b95506060890135915080821115613f5557600080fd5b613f618a838b01613aea565b94506080890135915080821115613f7757600080fd5b613f838a838b01613aea565b935060a0890135915080821115613f9957600080fd5b50613df789828a01613e40565b600060208284031215613fb857600080fd5b613c0182613c08565b6001600160a01b03169052565b6000815160a08452613fe360a0850182613ba8565b905060208301518482036020860152613ffc8282613ba8565b915050604083015184820360408601526140168282613ba8565b915050606083015184820360608601526140308282613ba8565b9150506080830151848203608086015261404a8282613ba8565b95945050505050565b6000610120825181855261406982860182613ba8565b915050602083015161407e6020860182613fc1565b50604083015184820360408601526140968282613ba8565b91505060608301516060850152608083015184820360808601526140ba8282613fce565b91505060a083015184820360a08601526140d48282613ba8565b91505060c083015184820360c08601526140ee8282613ba8565b91505060e083015160e08501526101008084015161410f8287018215159052565b5090949350505050565b600060208083016020845280855180835260408601915060408160051b87010192506020870160005b8281101561417057603f1988860301845261415e858351614053565b94509285019290850190600101614142565b5092979650505050505050565b602081526000613c016020830184614053565b6001600160a01b0391909116815260200190565b60008151808452602080850194506020840160005b838110156141d5578151875295820195908201906001016141b9565b509495945050505050565b600061018082518185526141f682860182613ba8565b915050602083015161420b6020860182613fc1565b50604083015184820360408601526142238282613ba8565b9150506060830151848203606086015261423d8282613fce565b915050608083015184820360808601526142578282613ba8565b91505060a083015184820360a08601526142718282613ba8565b91505060c083015184820360c086015261428b82826141a4565b91505060e083015184820360e08601526142a582826141a4565b61010085810151908701526101208086015190870152610140808601511515908701526101608086015180151582890152919350915061410f565b600060208083016020845280855180835260408601915060408160051b87010192506020870160005b8281101561417057603f198886030184526143258583516141e0565b94509285019290850190600101614309565b6000806040838503121561434a57600080fd5b61435383613c08565b915061436160208401613c08565b90509250929050565b602081526000613c0160208301846141e0565b634e487b7160e01b600052601160045260246000fd5b808202811582820484141761080b5761080b61437d565b6000826143c757634e487b7160e01b600052601260045260246000fd5b500490565b634e487b7160e01b600052603260045260246000fd5b83815282602082015260606040820152600061404a6060830184613ba8565b8181038181111561080b5761080b61437d565b600181811c9082168061442857607f821691505b60208210810361444857634e487b7160e01b600052602260045260246000fd5b50919050565b601f8211156126df576000816000526020600020601f850160051c810160208610156144775750805b601f850160051c820191505b818110156129d157828155600101614483565b81516001600160401b038111156144af576144af613a7c565b6144c3816144bd8454614414565b8461444e565b602080601f8311600181146144f857600084156144e05750858301515b600019600386901b1c1916600185901b1785556129d1565b600085815260208120601f198616915b8281101561452757888601518255948401946001909101908401614508565b50858210156145455787850151600019600388901b60f8161c191681555b5050505050600190811b01905550565b8082018082111561080b5761080b61437d565b6020808252600e908201526d11dbd85b081a185cc8195b99195960921b604082015260600190565b6001600160a01b03929092168252602082015260400190565b6000600182016145bb576145bb61437d565b5060010190565b600080600080608085870312156145d857600080fd5b845193506020850151925060408501519150606085015180151581146145fd57600080fd5b939692955090935050565b60208082526010908201526f159bdd19481b9bdd08195e1c1a5c995960821b604082015260600190565b9182521515602082015260400190565b60006020828403121561465457600080fd5b5051919050565b80516001600160501b0381168114613c1f57600080fd5b600080600080600060a0868803121561468a57600080fd5b6146938661465b565b94506020860151935060408601519250606086015191506146b66080870161465b565b90509295509295909350565b80820260008212600160ff1b841416156146de576146de61437d565b818105831482151761080b5761080b61437d56fea26469706673582212200c6fe1d705a16b56737750cfe08c1782f2325a1150c0bc9cbfee49477dc0003764736f6c63430008180033608060405234801561001057600080fd5b506109ee806100206000396000f3fe608060405234801561001057600080fd5b50600436106100e65760003560e01c80630121b93f146100eb5780630a1f548a1461014a57806326f39058146101885780633ca4bc5e1461019d5780635277b4ae146101e557806365410fe8146102135780637746036014610226578063919685281461023957806397dd799f1461026a5780639da9c5931461027d578063b120c16a146102a2578063b23e33dd146102b5578063b803a58d146102e6578063b97ff4a214610309578063b9df883e14610343578063b9f7945114610371578063bbf3fb781461039f578063bc143c96146103cd575b600080fd5b6101236100f93660046107b8565b60006020819052908152604090208054600182015460028301546003909301549192909160ff1684565b60408051948552602085019390935291830152151560608201526080015b60405180910390f35b6101786101583660046107ed565b600360209081526000928352604080842090915290825290205460ff1681565b6040519015158152602001610141565b61019b6101963660046107b8565b6103e0565b005b6101b06101ab3660046107b8565b6104d2565b604051610141919081518152602080830151908201526040808301519082015260609182015115159181019190915260800190565b6101786101f33660046107ed565b600160209081526000928352604080842090915290825290205460ff1681565b6101b06102213660046107b8565b610522565b61019b6102343660046107b8565b610571565b61019b610247366004610819565b600091825260208290526040909120600301805460ff1916911515919091179055565b61019b6102783660046107b8565b610662565b61019b61028b36600461084e565b600091825260026020819052604090922090910155565b61019b6102b0366004610870565b6106d0565b61019b6102c3366004610819565b600091825260026020526040909120600301805460ff1916911515919091179055565b61019b6102f436600461084e565b60009182526020829052604090912060020155565b6101236103173660046107b8565b600260208190526000918252604090912080546001820154928201546003909201549092919060ff1684565b6101786103513660046107b8565b600090815260036020908152604080832033845290915290205460ff1690565b61039161037f36600461089a565b60046020526000908152604090205481565b604051908152602001610141565b6101786103ad3660046107b8565b600090815260016020908152604080832033845290915290205460ff1690565b61019b6103db3660046107b8565b610701565b6000818152600360209081526040808320338452909152902054819060ff16156104255760405162461bcd60e51b815260040161041c906108bc565b60405180910390fd5b336000908152600460205260409020546002106104545760405162461bcd60e51b815260040161041c906108ec565b600082815260208190526040902060020154829042106104865760405162461bcd60e51b815260040161041c90610930565b60008381526002602052604081208054600192906104a5908490610962565b9091555050506000918252506003602090815260408083203384529091529020805460ff19166001179055565b6104da61078e565b506000908152602081815260409182902082516080810184528154815260018201549281019290925260028101549282019290925260039091015460ff161515606082015290565b61052a61078e565b5060009081526002602081815260409283902083516080810185528154815260018201549281019290925291820154928101929092526003015460ff161515606082015290565b6000818152600360209081526040808320338452909152902054819060ff16156105ad5760405162461bcd60e51b815260040161041c906108bc565b336000908152600460205260409020546002106105dc5760405162461bcd60e51b815260040161041c906108ec565b6000828152602081905260409020600201548290421061060e5760405162461bcd60e51b815260040161041c90610930565b600160008085815260200190815260200160002060010160008282546106349190610962565b909155505050600091825250600160208181526040808420338552909152909120805460ff19169091179055565b6000818152600160209081526040808320338452909152902054819060ff161561069e5760405162461bcd60e51b815260040161041c906108bc565b6000828152602081905260409020600201548290421061060e5760405162461bcd60e51b815260040161041c90610989565b6001600160a01b038216600090815260046020526040812080548392906106f8908490610962565b90915550505050565b6000818152600160209081526040808320338452909152902054819060ff161561073d5760405162461bcd60e51b815260040161041c906108bc565b6000828152602081905260409020600201548290421061076f5760405162461bcd60e51b815260040161041c90610989565b6000838152602081905260408120805460019290610634908490610962565b60405180608001604052806000815260200160008152602001600081526020016000151581525090565b6000602082840312156107ca57600080fd5b5035919050565b80356001600160a01b03811681146107e857600080fd5b919050565b6000806040838503121561080057600080fd5b82359150610810602084016107d1565b90509250929050565b6000806040838503121561082c57600080fd5b823591506020830135801515811461084357600080fd5b809150509250929050565b6000806040838503121561086157600080fd5b50508035926020909101359150565b6000806040838503121561088357600080fd5b61088c836107d1565b946020939093013593505050565b6000602082840312156108ac57600080fd5b6108b5826107d1565b9392505050565b602080825260169082015275557365722068617320766f74656420616c726561647960501b604082015260600190565b60208082526024908201527f5573657220646f6573206e6f74206861766520656e6f756768207265707574616040820152633a34b7b760e11b606082015260800190565b60208082526018908201527714185c9d1b995c88159bdd19481a185cc8195e1c1a5c995960421b604082015260600190565b8082018082111561098357634e487b7160e01b600052601160045260246000fd5b92915050565b60208082526015908201527411dbd85b08159bdd19481a185cc8195e1c1a5c9959605a1b60408201526060019056fea26469706673582212201729ad6a54df25b99a59464885c62a4400ee2f79ec4b568e86675e4971801c4b64736f6c63430008180033",
  "linkReferences": {},
  "deployedLinkReferences": {}
}