{
    "_format": "hh-sol-artifact-1",
    "contractName": "Dao",
    "sourceName": "contracts/Dao.sol",
    "abi": [
        {
            "inputs": [
                {
                    "internalType": "uint256",
                    "name": "_id",
                    "type": "uint256"
                }
            ],
            "name": "approveGoal",
            "outputs": [],
            "stateMutability": "nonpayable",
            "type": "function"
        },
        {
            "inputs": [
                {
                    "internalType": "uint256",
                    "name": "_id",
                    "type": "uint256"
                }
            ],
            "name": "approvePartner",
            "outputs": [],
            "stateMutability": "nonpayable",
            "type": "function"
        },
        {
            "inputs": [
                {
                    "internalType": "uint256",
                    "name": "_id",
                    "type": "uint256"
                }
            ],
            "name": "getGoalVote",
            "outputs": [
                {
                    "components": [
                        {
                            "internalType": "uint256",
                            "name": "approve",
                            "type": "uint256"
                        },
                        {
                            "internalType": "uint256",
                            "name": "reject",
                            "type": "uint256"
                        },
                        {
                            "internalType": "uint256",
                            "name": "expire",
                            "type": "uint256"
                        },
                        {
                            "internalType": "bool",
                            "name": "checked",
                            "type": "bool"
                        }
                    ],
                    "internalType": "struct Dao.IVote",
                    "name": "",
                    "type": "tuple"
                }
            ],
            "stateMutability": "view",
            "type": "function"
        },
        {
            "inputs": [
                {
                    "internalType": "uint256",
                    "name": "_id",
                    "type": "uint256"
                }
            ],
            "name": "getPartnerVote",
            "outputs": [
                {
                    "components": [
                        {
                            "internalType": "uint256",
                            "name": "approve",
                            "type": "uint256"
                        },
                        {
                            "internalType": "uint256",
                            "name": "reject",
                            "type": "uint256"
                        },
                        {
                            "internalType": "uint256",
                            "name": "expire",
                            "type": "uint256"
                        },
                        {
                            "internalType": "bool",
                            "name": "checked",
                            "type": "bool"
                        }
                    ],
                    "internalType": "struct Dao.IVote",
                    "name": "",
                    "type": "tuple"
                }
            ],
            "stateMutability": "view",
            "type": "function"
        },
        {
            "inputs": [
                {
                    "internalType": "uint256",
                    "name": "_id",
                    "type": "uint256"
                }
            ],
            "name": "hasVotedOnGoal",
            "outputs": [
                {
                    "internalType": "bool",
                    "name": "",
                    "type": "bool"
                }
            ],
            "stateMutability": "view",
            "type": "function"
        },
        {
            "inputs": [
                {
                    "internalType": "uint256",
                    "name": "_id",
                    "type": "uint256"
                }
            ],
            "name": "hasVotedOnPartner",
            "outputs": [
                {
                    "internalType": "bool",
                    "name": "",
                    "type": "bool"
                }
            ],
            "stateMutability": "view",
            "type": "function"
        },
        {
            "inputs": [
                {
                    "internalType": "uint256",
                    "name": "",
                    "type": "uint256"
                }
            ],
            "name": "partnerVote",
            "outputs": [
                {
                    "internalType": "uint256",
                    "name": "approve",
                    "type": "uint256"
                },
                {
                    "internalType": "uint256",
                    "name": "reject",
                    "type": "uint256"
                },
                {
                    "internalType": "uint256",
                    "name": "expire",
                    "type": "uint256"
                },
                {
                    "internalType": "bool",
                    "name": "checked",
                    "type": "bool"
                }
            ],
            "stateMutability": "view",
            "type": "function"
        },
        {
            "inputs": [
                {
                    "internalType": "uint256",
                    "name": "",
                    "type": "uint256"
                },
                {
                    "internalType": "address",
                    "name": "",
                    "type": "address"
                }
            ],
            "name": "partnerVoted",
            "outputs": [
                {
                    "internalType": "bool",
                    "name": "",
                    "type": "bool"
                }
            ],
            "stateMutability": "view",
            "type": "function"
        },
        {
            "inputs": [
                {
                    "internalType": "uint256",
                    "name": "_id",
                    "type": "uint256"
                }
            ],
            "name": "rejectGoal",
            "outputs": [],
            "stateMutability": "nonpayable",
            "type": "function"
        },
        {
            "inputs": [
                {
                    "internalType": "uint256",
                    "name": "_id",
                    "type": "uint256"
                }
            ],
            "name": "rejectPartner",
            "outputs": [],
            "stateMutability": "nonpayable",
            "type": "function"
        },
        {
            "inputs": [
                {
                    "internalType": "address",
                    "name": "",
                    "type": "address"
                }
            ],
            "name": "reputation",
            "outputs": [
                {
                    "internalType": "uint256",
                    "name": "",
                    "type": "uint256"
                }
            ],
            "stateMutability": "view",
            "type": "function"
        },
        {
            "inputs": [
                {
                    "internalType": "uint256",
                    "name": "_id",
                    "type": "uint256"
                },
                {
                    "internalType": "bool",
                    "name": "boolean",
                    "type": "bool"
                }
            ],
            "name": "setGoalCheck",
            "outputs": [],
            "stateMutability": "nonpayable",
            "type": "function"
        },
        {
            "inputs": [
                {
                    "internalType": "uint256",
                    "name": "_id",
                    "type": "uint256"
                },
                {
                    "internalType": "uint256",
                    "name": "time",
                    "type": "uint256"
                }
            ],
            "name": "setGoalExpire",
            "outputs": [],
            "stateMutability": "nonpayable",
            "type": "function"
        },
        {
            "inputs": [
                {
                    "internalType": "uint256",
                    "name": "_id",
                    "type": "uint256"
                },
                {
                    "internalType": "bool",
                    "name": "boolean",
                    "type": "bool"
                }
            ],
            "name": "setPartnerCheck",
            "outputs": [],
            "stateMutability": "nonpayable",
            "type": "function"
        },
        {
            "inputs": [
                {
                    "internalType": "uint256",
                    "name": "_id",
                    "type": "uint256"
                },
                {
                    "internalType": "uint256",
                    "name": "time",
                    "type": "uint256"
                }
            ],
            "name": "setPartnerExpire",
            "outputs": [],
            "stateMutability": "nonpayable",
            "type": "function"
        },
        {
            "inputs": [
                {
                    "internalType": "address",
                    "name": "caller",
                    "type": "address"
                },
                {
                    "internalType": "uint256",
                    "name": "number",
                    "type": "uint256"
                }
            ],
            "name": "setReputation",
            "outputs": [],
            "stateMutability": "nonpayable",
            "type": "function"
        },
        {
            "inputs": [
                {
                    "internalType": "uint256",
                    "name": "",
                    "type": "uint256"
                }
            ],
            "name": "vote",
            "outputs": [
                {
                    "internalType": "uint256",
                    "name": "approve",
                    "type": "uint256"
                },
                {
                    "internalType": "uint256",
                    "name": "reject",
                    "type": "uint256"
                },
                {
                    "internalType": "uint256",
                    "name": "expire",
                    "type": "uint256"
                },
                {
                    "internalType": "bool",
                    "name": "checked",
                    "type": "bool"
                }
            ],
            "stateMutability": "view",
            "type": "function"
        },
        {
            "inputs": [
                {
                    "internalType": "uint256",
                    "name": "",
                    "type": "uint256"
                },
                {
                    "internalType": "address",
                    "name": "",
                    "type": "address"
                }
            ],
            "name": "voted",
            "outputs": [
                {
                    "internalType": "bool",
                    "name": "",
                    "type": "bool"
                }
            ],
            "stateMutability": "view",
            "type": "function"
        }
    ],
    "bytecode": "0x608060405234801561001057600080fd5b506109a4806100206000396000f3fe608060405234801561001057600080fd5b50600436106100e65760003560e01c80630121b93f146100eb5780630a1f548a1461014a57806326f39058146101885780633ca4bc5e1461019d5780635277b4ae146101e557806365410fe8146102135780637746036014610226578063919685281461023957806397dd799f1461026a5780639da9c5931461027d578063b120c16a14610290578063b23e33dd146102a3578063b803a58d146102d4578063b97ff4a2146102e7578063b9df883e14610321578063b9f794511461034f578063bbf3fb781461037d578063bc143c96146103ab575b600080fd5b6101236100f93660046107a6565b60006020819052908152604090208054600182015460028301546003909301549192909160ff1684565b60408051948552602085019390935291830152151560608201526080015b60405180910390f35b6101786101583660046107db565b600360209081526000928352604080842090915290825290205460ff1681565b6040519015158152602001610141565b61019b6101963660046107a6565b6103be565b005b6101b06101ab3660046107a6565b6104b0565b604051610141919081518152602080830151908201526040808301519082015260609182015115159181019190915260800190565b6101786101f33660046107db565b600160209081526000928352604080842090915290825290205460ff1681565b6101b06102213660046107a6565b610500565b61019b6102343660046107a6565b61054f565b61019b610247366004610807565b600091825260208290526040909120600301805460ff1916911515919091179055565b61019b6102783660046107a6565b610640565b61019b61028b36600461083c565b61067c565b61019b61029e36600461085e565b6106a6565b61019b6102b1366004610807565b600091825260026020526040909120600301805460ff1916911515919091179055565b61019b6102e236600461083c565b6106ce565b6101236102f53660046107a6565b600260208190526000918252604090912080546001820154928201546003909201549092919060ff1684565b61017861032f3660046107a6565b600090815260036020908152604080832033845290915290205460ff1690565b61036f61035d366004610888565b60046020526000908152604090205481565b604051908152602001610141565b61017861038b3660046107a6565b600090815260016020908152604080832033845290915290205460ff1690565b61019b6103b93660046107a6565b6106ef565b6000818152600360209081526040808320338452909152902054819060ff16156104035760405162461bcd60e51b81526004016103fa906108aa565b60405180910390fd5b336000908152600460205260409020546002106104325760405162461bcd60e51b81526004016103fa906108da565b600082815260208190526040902060020154829042106104645760405162461bcd60e51b81526004016103fa9061091d565b6000838152600260205260408120805460019290610483908490610947565b9091555050506000918252506003602090815260408083203384529091529020805460ff19166001179055565b6104b861077c565b506000908152602081815260409182902082516080810184528154815260018201549281019290925260028101549282019290925260039091015460ff161515606082015290565b61050861077c565b5060009081526002602081815260409283902083516080810185528154815260018201549281019290925291820154928101929092526003015460ff161515606082015290565b6000818152600360209081526040808320338452909152902054819060ff161561058b5760405162461bcd60e51b81526004016103fa906108aa565b336000908152600460205260409020546002106105ba5760405162461bcd60e51b81526004016103fa906108da565b600082815260208190526040902060020154829042106105ec5760405162461bcd60e51b81526004016103fa9061091d565b600160008085815260200190815260200160002060010160008282546106129190610947565b909155505050600091825250600160208181526040808420338552909152909120805460ff19169091179055565b6000818152600160209081526040808320338452909152902054819060ff16156105ba5760405162461bcd60e51b81526004016103fa906108aa565b6000828152600260208190526040822001805483929061069d908490610947565b90915550505050565b6001600160a01b0382166000908152600460205260408120805483929061069d908490610947565b6000828152602081905260408120600201805483929061069d908490610947565b6000818152600160209081526040808320338452909152902054819060ff161561072b5760405162461bcd60e51b81526004016103fa906108aa565b6000828152602081905260409020600201548290421061075d5760405162461bcd60e51b81526004016103fa9061091d565b6000838152602081905260408120805460019290610612908490610947565b60405180608001604052806000815260200160008152602001600081526020016000151581525090565b6000602082840312156107b857600080fd5b5035919050565b80356001600160a01b03811681146107d657600080fd5b919050565b600080604083850312156107ee57600080fd5b823591506107fe602084016107bf565b90509250929050565b6000806040838503121561081a57600080fd5b823591506020830135801515811461083157600080fd5b809150509250929050565b6000806040838503121561084f57600080fd5b50508035926020909101359150565b6000806040838503121561087157600080fd5b61087a836107bf565b946020939093013593505050565b60006020828403121561089a57600080fd5b6108a3826107bf565b9392505050565b602080825260169082015275557365722068617320766f74656420616c726561647960501b604082015260600190565b60208082526023908201527f5573657220646f65736e6f74206861766520656e6f756768207265707574617460408201526234b7b760e91b606082015260800190565b60208082526010908201526f11dbd85b081a185cc8195e1c1a5c995960821b604082015260600190565b8082018082111561096857634e487b7160e01b600052601160045260246000fd5b9291505056fea26469706673582212201c04aacaf7c84ee7e9034d77b286d56a138b29125cdffdfa00871893e3151f9264736f6c63430008180033",
    "linkReferences": {},
    "deployedLinkReferences": {}
}