{"contracts/Dao.sol":{"Dao":{"abi":[{"inputs":[{"internalType":"uint256","name":"_id","type":"uint256"}],"name":"approveGoal","outputs":[],"stateMutability":"nonpayable","type":"function"},{"inputs":[{"internalType":"uint256","name":"_id","type":"uint256"}],"name":"approvePartner","outputs":[],"stateMutability":"nonpayable","type":"function"},{"inputs":[{"internalType":"uint256","name":"_id","type":"uint256"}],"name":"getGoalVote","outputs":[{"components":[{"internalType":"uint256","name":"approve","type":"uint256"},{"internalType":"uint256","name":"reject","type":"uint256"},{"internalType":"uint256","name":"expire","type":"uint256"},{"internalType":"bool","name":"checked","type":"bool"}],"internalType":"struct Dao.IVote","name":"","type":"tuple"}],"stateMutability":"view","type":"function"},{"inputs":[{"internalType":"uint256","name":"_id","type":"uint256"}],"name":"getPartnerVote","outputs":[{"components":[{"internalType":"uint256","name":"approve","type":"uint256"},{"internalType":"uint256","name":"reject","type":"uint256"},{"internalType":"uint256","name":"expire","type":"uint256"},{"internalType":"bool","name":"checked","type":"bool"}],"internalType":"struct Dao.IVote","name":"","type":"tuple"}],"stateMutability":"view","type":"function"},{"inputs":[{"internalType":"uint256","name":"_id","type":"uint256"}],"name":"hasVotedOnGoal","outputs":[{"internalType":"bool","name":"","type":"bool"}],"stateMutability":"view","type":"function"},{"inputs":[{"internalType":"uint256","name":"_id","type":"uint256"}],"name":"hasVotedOnPartner","outputs":[{"internalType":"bool","name":"","type":"bool"}],"stateMutability":"view","type":"function"},{"inputs":[{"internalType":"uint256","name":"","type":"uint256"}],"name":"partnerVote","outputs":[{"internalType":"uint256","name":"approve","type":"uint256"},{"internalType":"uint256","name":"reject","type":"uint256"},{"internalType":"uint256","name":"expire","type":"uint256"},{"internalType":"bool","name":"checked","type":"bool"}],"stateMutability":"view","type":"function"},{"inputs":[{"internalType":"uint256","name":"","type":"uint256"},{"internalType":"address","name":"","type":"address"}],"name":"partnerVoted","outputs":[{"internalType":"bool","name":"","type":"bool"}],"stateMutability":"view","type":"function"},{"inputs":[{"internalType":"uint256","name":"_id","type":"uint256"}],"name":"rejectGoal","outputs":[],"stateMutability":"nonpayable","type":"function"},{"inputs":[{"internalType":"uint256","name":"_id","type":"uint256"}],"name":"rejectPartner","outputs":[],"stateMutability":"nonpayable","type":"function"},{"inputs":[{"internalType":"address","name":"","type":"address"}],"name":"reputation","outputs":[{"internalType":"uint256","name":"","type":"uint256"}],"stateMutability":"view","type":"function"},{"inputs":[{"internalType":"uint256","name":"_id","type":"uint256"},{"internalType":"bool","name":"boolean","type":"bool"}],"name":"setGoalCheck","outputs":[],"stateMutability":"nonpayable","type":"function"},{"inputs":[{"internalType":"uint256","name":"_id","type":"uint256"},{"internalType":"uint256","name":"time","type":"uint256"}],"name":"setGoalExpire","outputs":[],"stateMutability":"nonpayable","type":"function"},{"inputs":[{"internalType":"uint256","name":"_id","type":"uint256"},{"internalType":"bool","name":"boolean","type":"bool"}],"name":"setPartnerCheck","outputs":[],"stateMutability":"nonpayable","type":"function"},{"inputs":[{"internalType":"uint256","name":"_id","type":"uint256"},{"internalType":"uint256","name":"time","type":"uint256"}],"name":"setPartnerExpire","outputs":[],"stateMutability":"nonpayable","type":"function"},{"inputs":[{"internalType":"address","name":"caller","type":"address"},{"internalType":"uint256","name":"number","type":"uint256"}],"name":"setReputation","outputs":[],"stateMutability":"nonpayable","type":"function"},{"inputs":[{"internalType":"uint256","name":"","type":"uint256"}],"name":"vote","outputs":[{"internalType":"uint256","name":"approve","type":"uint256"},{"internalType":"uint256","name":"reject","type":"uint256"},{"internalType":"uint256","name":"expire","type":"uint256"},{"internalType":"bool","name":"checked","type":"bool"}],"stateMutability":"view","type":"function"},{"inputs":[{"internalType":"uint256","name":"","type":"uint256"},{"internalType":"address","name":"","type":"address"}],"name":"voted","outputs":[{"internalType":"bool","name":"","type":"bool"}],"stateMutability":"view","type":"function"}],"evm":{"bytecode":{"linkReferences":{},"object":"608060405234801561001057600080fd5b506109ee806100206000396000f3fe608060405234801561001057600080fd5b50600436106100e65760003560e01c80630121b93f146100eb5780630a1f548a1461014a57806326f39058146101885780633ca4bc5e1461019d5780635277b4ae146101e557806365410fe8146102135780637746036014610226578063919685281461023957806397dd799f1461026a5780639da9c5931461027d578063b120c16a146102a2578063b23e33dd146102b5578063b803a58d146102e6578063b97ff4a214610309578063b9df883e14610343578063b9f7945114610371578063bbf3fb781461039f578063bc143c96146103cd575b600080fd5b6101236100f93660046107b8565b60006020819052908152604090208054600182015460028301546003909301549192909160ff1684565b60408051948552602085019390935291830152151560608201526080015b60405180910390f35b6101786101583660046107ed565b600360209081526000928352604080842090915290825290205460ff1681565b6040519015158152602001610141565b61019b6101963660046107b8565b6103e0565b005b6101b06101ab3660046107b8565b6104d2565b604051610141919081518152602080830151908201526040808301519082015260609182015115159181019190915260800190565b6101786101f33660046107ed565b600160209081526000928352604080842090915290825290205460ff1681565b6101b06102213660046107b8565b610522565b61019b6102343660046107b8565b610571565b61019b610247366004610819565b600091825260208290526040909120600301805460ff1916911515919091179055565b61019b6102783660046107b8565b610662565b61019b61028b36600461084e565b600091825260026020819052604090922090910155565b61019b6102b0366004610870565b6106d0565b61019b6102c3366004610819565b600091825260026020526040909120600301805460ff1916911515919091179055565b61019b6102f436600461084e565b60009182526020829052604090912060020155565b6101236103173660046107b8565b600260208190526000918252604090912080546001820154928201546003909201549092919060ff1684565b6101786103513660046107b8565b600090815260036020908152604080832033845290915290205460ff1690565b61039161037f36600461089a565b60046020526000908152604090205481565b604051908152602001610141565b6101786103ad3660046107b8565b600090815260016020908152604080832033845290915290205460ff1690565b61019b6103db3660046107b8565b610701565b6000818152600360209081526040808320338452909152902054819060ff16156104255760405162461bcd60e51b815260040161041c906108bc565b60405180910390fd5b336000908152600460205260409020546002106104545760405162461bcd60e51b815260040161041c906108ec565b600082815260208190526040902060020154829042106104865760405162461bcd60e51b815260040161041c90610930565b60008381526002602052604081208054600192906104a5908490610962565b9091555050506000918252506003602090815260408083203384529091529020805460ff19166001179055565b6104da61078e565b506000908152602081815260409182902082516080810184528154815260018201549281019290925260028101549282019290925260039091015460ff161515606082015290565b61052a61078e565b5060009081526002602081815260409283902083516080810185528154815260018201549281019290925291820154928101929092526003015460ff161515606082015290565b6000818152600360209081526040808320338452909152902054819060ff16156105ad5760405162461bcd60e51b815260040161041c906108bc565b336000908152600460205260409020546002106105dc5760405162461bcd60e51b815260040161041c906108ec565b6000828152602081905260409020600201548290421061060e5760405162461bcd60e51b815260040161041c90610930565b600160008085815260200190815260200160002060010160008282546106349190610962565b909155505050600091825250600160208181526040808420338552909152909120805460ff19169091179055565b6000818152600160209081526040808320338452909152902054819060ff161561069e5760405162461bcd60e51b815260040161041c906108bc565b6000828152602081905260409020600201548290421061060e5760405162461bcd60e51b815260040161041c90610989565b6001600160a01b038216600090815260046020526040812080548392906106f8908490610962565b90915550505050565b6000818152600160209081526040808320338452909152902054819060ff161561073d5760405162461bcd60e51b815260040161041c906108bc565b6000828152602081905260409020600201548290421061076f5760405162461bcd60e51b815260040161041c90610989565b6000838152602081905260408120805460019290610634908490610962565b60405180608001604052806000815260200160008152602001600081526020016000151581525090565b6000602082840312156107ca57600080fd5b5035919050565b80356001600160a01b03811681146107e857600080fd5b919050565b6000806040838503121561080057600080fd5b82359150610810602084016107d1565b90509250929050565b6000806040838503121561082c57600080fd5b823591506020830135801515811461084357600080fd5b809150509250929050565b6000806040838503121561086157600080fd5b50508035926020909101359150565b6000806040838503121561088357600080fd5b61088c836107d1565b946020939093013593505050565b6000602082840312156108ac57600080fd5b6108b5826107d1565b9392505050565b602080825260169082015275557365722068617320766f74656420616c726561647960501b604082015260600190565b60208082526024908201527f5573657220646f6573206e6f74206861766520656e6f756768207265707574616040820152633a34b7b760e11b606082015260800190565b60208082526018908201527714185c9d1b995c88159bdd19481a185cc8195e1c1a5c995960421b604082015260600190565b8082018082111561098357634e487b7160e01b600052601160045260246000fd5b92915050565b60208082526015908201527411dbd85b08159bdd19481a185cc8195e1c1a5c9959605a1b60408201526060019056fea26469706673582212201729ad6a54df25b99a59464885c62a4400ee2f79ec4b568e86675e4971801c4b64736f6c63430008180033","opcodes":"PUSH1 0x80 PUSH1 0x40 MSTORE CALLVALUE DUP1 ISZERO PUSH2 0x10 JUMPI PUSH1 0x0 DUP1 REVERT JUMPDEST POP PUSH2 0x9EE DUP1 PUSH2 0x20 PUSH1 0x0 CODECOPY PUSH1 0x0 RETURN INVALID PUSH1 0x80 PUSH1 0x40 MSTORE CALLVALUE DUP1 ISZERO PUSH2 0x10 JUMPI PUSH1 0x0 DUP1 REVERT JUMPDEST POP PUSH1 0x4 CALLDATASIZE LT PUSH2 0xE6 JUMPI PUSH1 0x0 CALLDATALOAD PUSH1 0xE0 SHR DUP1 PUSH4 0x121B93F EQ PUSH2 0xEB JUMPI DUP1 PUSH4 0xA1F548A EQ PUSH2 0x14A JUMPI DUP1 PUSH4 0x26F39058 EQ PUSH2 0x188 JUMPI DUP1 PUSH4 0x3CA4BC5E EQ PUSH2 0x19D JUMPI DUP1 PUSH4 0x5277B4AE EQ PUSH2 0x1E5 JUMPI DUP1 PUSH4 0x65410FE8 EQ PUSH2 0x213 JUMPI DUP1 PUSH4 0x77460360 EQ PUSH2 0x226 JUMPI DUP1 PUSH4 0x91968528 EQ PUSH2 0x239 JUMPI DUP1 PUSH4 0x97DD799F EQ PUSH2 0x26A JUMPI DUP1 PUSH4 0x9DA9C593 EQ PUSH2 0x27D JUMPI DUP1 PUSH4 0xB120C16A EQ PUSH2 0x2A2 JUMPI DUP1 PUSH4 0xB23E33DD EQ PUSH2 0x2B5 JUMPI DUP1 PUSH4 0xB803A58D EQ PUSH2 0x2E6 JUMPI DUP1 PUSH4 0xB97FF4A2 EQ PUSH2 0x309 JUMPI DUP1 PUSH4 0xB9DF883E EQ PUSH2 0x343 JUMPI DUP1 PUSH4 0xB9F79451 EQ PUSH2 0x371 JUMPI DUP1 PUSH4 0xBBF3FB78 EQ PUSH2 0x39F JUMPI DUP1 PUSH4 0xBC143C96 EQ PUSH2 0x3CD JUMPI JUMPDEST PUSH1 0x0 DUP1 REVERT JUMPDEST PUSH2 0x123 PUSH2 0xF9 CALLDATASIZE PUSH1 0x4 PUSH2 0x7B8 JUMP JUMPDEST PUSH1 0x0 PUSH1 0x20 DUP2 SWAP1 MSTORE SWAP1 DUP2 MSTORE PUSH1 0x40 SWAP1 KECCAK256 DUP1 SLOAD PUSH1 0x1 DUP3 ADD SLOAD PUSH1 0x2 DUP4 ADD SLOAD PUSH1 0x3 SWAP1 SWAP4 ADD SLOAD SWAP2 SWAP3 SWAP1 SWAP2 PUSH1 0xFF AND DUP5 JUMP JUMPDEST PUSH1 0x40 DUP1 MLOAD SWAP5 DUP6 MSTORE PUSH1 0x20 DUP6 ADD SWAP4 SWAP1 SWAP4 MSTORE SWAP2 DUP4 ADD MSTORE ISZERO ISZERO PUSH1 0x60 DUP3 ADD MSTORE PUSH1 0x80 ADD JUMPDEST PUSH1 0x40 MLOAD DUP1 SWAP2 SUB SWAP1 RETURN JUMPDEST PUSH2 0x178 PUSH2 0x158 CALLDATASIZE PUSH1 0x4 PUSH2 0x7ED JUMP JUMPDEST PUSH1 0x3 PUSH1 0x20 SWAP1 DUP2 MSTORE PUSH1 0x0 SWAP3 DUP4 MSTORE PUSH1 0x40 DUP1 DUP5 KECCAK256 SWAP1 SWAP2 MSTORE SWAP1 DUP3 MSTORE SWAP1 KECCAK256 SLOAD PUSH1 0xFF AND DUP2 JUMP JUMPDEST PUSH1 0x40 MLOAD SWAP1 ISZERO ISZERO DUP2 MSTORE PUSH1 0x20 ADD PUSH2 0x141 JUMP JUMPDEST PUSH2 0x19B PUSH2 0x196 CALLDATASIZE PUSH1 0x4 PUSH2 0x7B8 JUMP JUMPDEST PUSH2 0x3E0 JUMP JUMPDEST STOP JUMPDEST PUSH2 0x1B0 PUSH2 0x1AB CALLDATASIZE PUSH1 0x4 PUSH2 0x7B8 JUMP JUMPDEST PUSH2 0x4D2 JUMP JUMPDEST PUSH1 0x40 MLOAD PUSH2 0x141 SWAP2 SWAP1 DUP2 MLOAD DUP2 MSTORE PUSH1 0x20 DUP1 DUP4 ADD MLOAD SWAP1 DUP3 ADD MSTORE PUSH1 0x40 DUP1 DUP4 ADD MLOAD SWAP1 DUP3 ADD MSTORE PUSH1 0x60 SWAP2 DUP3 ADD MLOAD ISZERO ISZERO SWAP2 DUP2 ADD SWAP2 SWAP1 SWAP2 MSTORE PUSH1 0x80 ADD SWAP1 JUMP JUMPDEST PUSH2 0x178 PUSH2 0x1F3 CALLDATASIZE PUSH1 0x4 PUSH2 0x7ED JUMP JUMPDEST PUSH1 0x1 PUSH1 0x20 SWAP1 DUP2 MSTORE PUSH1 0x0 SWAP3 DUP4 MSTORE PUSH1 0x40 DUP1 DUP5 KECCAK256 SWAP1 SWAP2 MSTORE SWAP1 DUP3 MSTORE SWAP1 KECCAK256 SLOAD PUSH1 0xFF AND DUP2 JUMP JUMPDEST PUSH2 0x1B0 PUSH2 0x221 CALLDATASIZE PUSH1 0x4 PUSH2 0x7B8 JUMP JUMPDEST PUSH2 0x522 JUMP JUMPDEST PUSH2 0x19B PUSH2 0x234 CALLDATASIZE PUSH1 0x4 PUSH2 0x7B8 JUMP JUMPDEST PUSH2 0x571 JUMP JUMPDEST PUSH2 0x19B PUSH2 0x247 CALLDATASIZE PUSH1 0x4 PUSH2 0x819 JUMP JUMPDEST PUSH1 0x0 SWAP2 DUP3 MSTORE PUSH1 0x20 DUP3 SWAP1 MSTORE PUSH1 0x40 SWAP1 SWAP2 KECCAK256 PUSH1 0x3 ADD DUP1 SLOAD PUSH1 0xFF NOT AND SWAP2 ISZERO ISZERO SWAP2 SWAP1 SWAP2 OR SWAP1 SSTORE JUMP JUMPDEST PUSH2 0x19B PUSH2 0x278 CALLDATASIZE PUSH1 0x4 PUSH2 0x7B8 JUMP JUMPDEST PUSH2 0x662 JUMP JUMPDEST PUSH2 0x19B PUSH2 0x28B CALLDATASIZE PUSH1 0x4 PUSH2 0x84E JUMP JUMPDEST PUSH1 0x0 SWAP2 DUP3 MSTORE PUSH1 0x2 PUSH1 0x20 DUP2 SWAP1 MSTORE PUSH1 0x40 SWAP1 SWAP3 KECCAK256 SWAP1 SWAP2 ADD SSTORE JUMP JUMPDEST PUSH2 0x19B PUSH2 0x2B0 CALLDATASIZE PUSH1 0x4 PUSH2 0x870 JUMP JUMPDEST PUSH2 0x6D0 JUMP JUMPDEST PUSH2 0x19B PUSH2 0x2C3 CALLDATASIZE PUSH1 0x4 PUSH2 0x819 JUMP JUMPDEST PUSH1 0x0 SWAP2 DUP3 MSTORE PUSH1 0x2 PUSH1 0x20 MSTORE PUSH1 0x40 SWAP1 SWAP2 KECCAK256 PUSH1 0x3 ADD DUP1 SLOAD PUSH1 0xFF NOT AND SWAP2 ISZERO ISZERO SWAP2 SWAP1 SWAP2 OR SWAP1 SSTORE JUMP JUMPDEST PUSH2 0x19B PUSH2 0x2F4 CALLDATASIZE PUSH1 0x4 PUSH2 0x84E JUMP JUMPDEST PUSH1 0x0 SWAP2 DUP3 MSTORE PUSH1 0x20 DUP3 SWAP1 MSTORE PUSH1 0x40 SWAP1 SWAP2 KECCAK256 PUSH1 0x2 ADD SSTORE JUMP JUMPDEST PUSH2 0x123 PUSH2 0x317 CALLDATASIZE PUSH1 0x4 PUSH2 0x7B8 JUMP JUMPDEST PUSH1 0x2 PUSH1 0x20 DUP2 SWAP1 MSTORE PUSH1 0x0 SWAP2 DUP3 MSTORE PUSH1 0x40 SWAP1 SWAP2 KECCAK256 DUP1 SLOAD PUSH1 0x1 DUP3 ADD SLOAD SWAP3 DUP3 ADD SLOAD PUSH1 0x3 SWAP1 SWAP3 ADD SLOAD SWAP1 SWAP3 SWAP2 SWAP1 PUSH1 0xFF AND DUP5 JUMP JUMPDEST PUSH2 0x178 PUSH2 0x351 CALLDATASIZE PUSH1 0x4 PUSH2 0x7B8 JUMP JUMPDEST PUSH1 0x0 SWAP1 DUP2 MSTORE PUSH1 0x3 PUSH1 0x20 SWAP1 DUP2 MSTORE PUSH1 0x40 DUP1 DUP4 KECCAK256 CALLER DUP5 MSTORE SWAP1 SWAP2 MSTORE SWAP1 KECCAK256 SLOAD PUSH1 0xFF AND SWAP1 JUMP JUMPDEST PUSH2 0x391 PUSH2 0x37F CALLDATASIZE PUSH1 0x4 PUSH2 0x89A JUMP JUMPDEST PUSH1 0x4 PUSH1 0x20 MSTORE PUSH1 0x0 SWAP1 DUP2 MSTORE PUSH1 0x40 SWAP1 KECCAK256 SLOAD DUP2 JUMP JUMPDEST PUSH1 0x40 MLOAD SWAP1 DUP2 MSTORE PUSH1 0x20 ADD PUSH2 0x141 JUMP JUMPDEST PUSH2 0x178 PUSH2 0x3AD CALLDATASIZE PUSH1 0x4 PUSH2 0x7B8 JUMP JUMPDEST PUSH1 0x0 SWAP1 DUP2 MSTORE PUSH1 0x1 PUSH1 0x20 SWAP1 DUP2 MSTORE PUSH1 0x40 DUP1 DUP4 KECCAK256 CALLER DUP5 MSTORE SWAP1 SWAP2 MSTORE SWAP1 KECCAK256 SLOAD PUSH1 0xFF AND SWAP1 JUMP JUMPDEST PUSH2 0x19B PUSH2 0x3DB CALLDATASIZE PUSH1 0x4 PUSH2 0x7B8 JUMP JUMPDEST PUSH2 0x701 JUMP JUMPDEST PUSH1 0x0 DUP2 DUP2 MSTORE PUSH1 0x3 PUSH1 0x20 SWAP1 DUP2 MSTORE PUSH1 0x40 DUP1 DUP4 KECCAK256 CALLER DUP5 MSTORE SWAP1 SWAP2 MSTORE SWAP1 KECCAK256 SLOAD DUP2 SWAP1 PUSH1 0xFF AND ISZERO PUSH2 0x425 JUMPI PUSH1 0x40 MLOAD PUSH3 0x461BCD PUSH1 0xE5 SHL DUP2 MSTORE PUSH1 0x4 ADD PUSH2 0x41C SWAP1 PUSH2 0x8BC JUMP JUMPDEST PUSH1 0x40 MLOAD DUP1 SWAP2 SUB SWAP1 REVERT JUMPDEST CALLER PUSH1 0x0 SWAP1 DUP2 MSTORE PUSH1 0x4 PUSH1 0x20 MSTORE PUSH1 0x40 SWAP1 KECCAK256 SLOAD PUSH1 0x2 LT PUSH2 0x454 JUMPI PUSH1 0x40 MLOAD PUSH3 0x461BCD PUSH1 0xE5 SHL DUP2 MSTORE PUSH1 0x4 ADD PUSH2 0x41C SWAP1 PUSH2 0x8EC JUMP JUMPDEST PUSH1 0x0 DUP3 DUP2 MSTORE PUSH1 0x20 DUP2 SWAP1 MSTORE PUSH1 0x40 SWAP1 KECCAK256 PUSH1 0x2 ADD SLOAD DUP3 SWAP1 TIMESTAMP LT PUSH2 0x486 JUMPI PUSH1 0x40 MLOAD PUSH3 0x461BCD PUSH1 0xE5 SHL DUP2 MSTORE PUSH1 0x4 ADD PUSH2 0x41C SWAP1 PUSH2 0x930 JUMP JUMPDEST PUSH1 0x0 DUP4 DUP2 MSTORE PUSH1 0x2 PUSH1 0x20 MSTORE PUSH1 0x40 DUP2 KECCAK256 DUP1 SLOAD PUSH1 0x1 SWAP3 SWAP1 PUSH2 0x4A5 SWAP1 DUP5 SWAP1 PUSH2 0x962 JUMP JUMPDEST SWAP1 SWAP2 SSTORE POP POP POP PUSH1 0x0 SWAP2 DUP3 MSTORE POP PUSH1 0x3 PUSH1 0x20 SWAP1 DUP2 MSTORE PUSH1 0x40 DUP1 DUP4 KECCAK256 CALLER DUP5 MSTORE SWAP1 SWAP2 MSTORE SWAP1 KECCAK256 DUP1 SLOAD PUSH1 0xFF NOT AND PUSH1 0x1 OR SWAP1 SSTORE JUMP JUMPDEST PUSH2 0x4DA PUSH2 0x78E JUMP JUMPDEST POP PUSH1 0x0 SWAP1 DUP2 MSTORE PUSH1 0x20 DUP2 DUP2 MSTORE PUSH1 0x40 SWAP2 DUP3 SWAP1 KECCAK256 DUP3 MLOAD PUSH1 0x80 DUP2 ADD DUP5 MSTORE DUP2 SLOAD DUP2 MSTORE PUSH1 0x1 DUP3 ADD SLOAD SWAP3 DUP2 ADD SWAP3 SWAP1 SWAP3 MSTORE PUSH1 0x2 DUP2 ADD SLOAD SWAP3 DUP3 ADD SWAP3 SWAP1 SWAP3 MSTORE PUSH1 0x3 SWAP1 SWAP2 ADD SLOAD PUSH1 0xFF AND ISZERO ISZERO PUSH1 0x60 DUP3 ADD MSTORE SWAP1 JUMP JUMPDEST PUSH2 0x52A PUSH2 0x78E JUMP JUMPDEST POP PUSH1 0x0 SWAP1 DUP2 MSTORE PUSH1 0x2 PUSH1 0x20 DUP2 DUP2 MSTORE PUSH1 0x40 SWAP3 DUP4 SWAP1 KECCAK256 DUP4 MLOAD PUSH1 0x80 DUP2 ADD DUP6 MSTORE DUP2 SLOAD DUP2 MSTORE PUSH1 0x1 DUP3 ADD SLOAD SWAP3 DUP2 ADD SWAP3 SWAP1 SWAP3 MSTORE SWAP2 DUP3 ADD SLOAD SWAP3 DUP2 ADD SWAP3 SWAP1 SWAP3 MSTORE PUSH1 0x3 ADD SLOAD PUSH1 0xFF AND ISZERO ISZERO PUSH1 0x60 DUP3 ADD MSTORE SWAP1 JUMP JUMPDEST PUSH1 0x0 DUP2 DUP2 MSTORE PUSH1 0x3 PUSH1 0x20 SWAP1 DUP2 MSTORE PUSH1 0x40 DUP1 DUP4 KECCAK256 CALLER DUP5 MSTORE SWAP1 SWAP2 MSTORE SWAP1 KECCAK256 SLOAD DUP2 SWAP1 PUSH1 0xFF AND ISZERO PUSH2 0x5AD JUMPI PUSH1 0x40 MLOAD PUSH3 0x461BCD PUSH1 0xE5 SHL DUP2 MSTORE PUSH1 0x4 ADD PUSH2 0x41C SWAP1 PUSH2 0x8BC JUMP JUMPDEST CALLER PUSH1 0x0 SWAP1 DUP2 MSTORE PUSH1 0x4 PUSH1 0x20 MSTORE PUSH1 0x40 SWAP1 KECCAK256 SLOAD PUSH1 0x2 LT PUSH2 0x5DC JUMPI PUSH1 0x40 MLOAD PUSH3 0x461BCD PUSH1 0xE5 SHL DUP2 MSTORE PUSH1 0x4 ADD PUSH2 0x41C SWAP1 PUSH2 0x8EC JUMP JUMPDEST PUSH1 0x0 DUP3 DUP2 MSTORE PUSH1 0x20 DUP2 SWAP1 MSTORE PUSH1 0x40 SWAP1 KECCAK256 PUSH1 0x2 ADD SLOAD DUP3 SWAP1 TIMESTAMP LT PUSH2 0x60E JUMPI PUSH1 0x40 MLOAD PUSH3 0x461BCD PUSH1 0xE5 SHL DUP2 MSTORE PUSH1 0x4 ADD PUSH2 0x41C SWAP1 PUSH2 0x930 JUMP JUMPDEST PUSH1 0x1 PUSH1 0x0 DUP1 DUP6 DUP2 MSTORE PUSH1 0x20 ADD SWAP1 DUP2 MSTORE PUSH1 0x20 ADD PUSH1 0x0 KECCAK256 PUSH1 0x1 ADD PUSH1 0x0 DUP3 DUP3 SLOAD PUSH2 0x634 SWAP2 SWAP1 PUSH2 0x962 JUMP JUMPDEST SWAP1 SWAP2 SSTORE POP POP POP PUSH1 0x0 SWAP2 DUP3 MSTORE POP PUSH1 0x1 PUSH1 0x20 DUP2 DUP2 MSTORE PUSH1 0x40 DUP1 DUP5 KECCAK256 CALLER DUP6 MSTORE SWAP1 SWAP2 MSTORE SWAP1 SWAP2 KECCAK256 DUP1 SLOAD PUSH1 0xFF NOT AND SWAP1 SWAP2 OR SWAP1 SSTORE JUMP JUMPDEST PUSH1 0x0 DUP2 DUP2 MSTORE PUSH1 0x1 PUSH1 0x20 SWAP1 DUP2 MSTORE PUSH1 0x40 DUP1 DUP4 KECCAK256 CALLER DUP5 MSTORE SWAP1 SWAP2 MSTORE SWAP1 KECCAK256 SLOAD DUP2 SWAP1 PUSH1 0xFF AND ISZERO PUSH2 0x69E JUMPI PUSH1 0x40 MLOAD PUSH3 0x461BCD PUSH1 0xE5 SHL DUP2 MSTORE PUSH1 0x4 ADD PUSH2 0x41C SWAP1 PUSH2 0x8BC JUMP JUMPDEST PUSH1 0x0 DUP3 DUP2 MSTORE PUSH1 0x20 DUP2 SWAP1 MSTORE PUSH1 0x40 SWAP1 KECCAK256 PUSH1 0x2 ADD SLOAD DUP3 SWAP1 TIMESTAMP LT PUSH2 0x60E JUMPI PUSH1 0x40 MLOAD PUSH3 0x461BCD PUSH1 0xE5 SHL DUP2 MSTORE PUSH1 0x4 ADD PUSH2 0x41C SWAP1 PUSH2 0x989 JUMP JUMPDEST PUSH1 0x1 PUSH1 0x1 PUSH1 0xA0 SHL SUB DUP3 AND PUSH1 0x0 SWAP1 DUP2 MSTORE PUSH1 0x4 PUSH1 0x20 MSTORE PUSH1 0x40 DUP2 KECCAK256 DUP1 SLOAD DUP4 SWAP3 SWAP1 PUSH2 0x6F8 SWAP1 DUP5 SWAP1 PUSH2 0x962 JUMP JUMPDEST SWAP1 SWAP2 SSTORE POP POP POP POP JUMP JUMPDEST PUSH1 0x0 DUP2 DUP2 MSTORE PUSH1 0x1 PUSH1 0x20 SWAP1 DUP2 MSTORE PUSH1 0x40 DUP1 DUP4 KECCAK256 CALLER DUP5 MSTORE SWAP1 SWAP2 MSTORE SWAP1 KECCAK256 SLOAD DUP2 SWAP1 PUSH1 0xFF AND ISZERO PUSH2 0x73D JUMPI PUSH1 0x40 MLOAD PUSH3 0x461BCD PUSH1 0xE5 SHL DUP2 MSTORE PUSH1 0x4 ADD PUSH2 0x41C SWAP1 PUSH2 0x8BC JUMP JUMPDEST PUSH1 0x0 DUP3 DUP2 MSTORE PUSH1 0x20 DUP2 SWAP1 MSTORE PUSH1 0x40 SWAP1 KECCAK256 PUSH1 0x2 ADD SLOAD DUP3 SWAP1 TIMESTAMP LT PUSH2 0x76F JUMPI PUSH1 0x40 MLOAD PUSH3 0x461BCD PUSH1 0xE5 SHL DUP2 MSTORE PUSH1 0x4 ADD PUSH2 0x41C SWAP1 PUSH2 0x989 JUMP JUMPDEST PUSH1 0x0 DUP4 DUP2 MSTORE PUSH1 0x20 DUP2 SWAP1 MSTORE PUSH1 0x40 DUP2 KECCAK256 DUP1 SLOAD PUSH1 0x1 SWAP3 SWAP1 PUSH2 0x634 SWAP1 DUP5 SWAP1 PUSH2 0x962 JUMP JUMPDEST PUSH1 0x40 MLOAD DUP1 PUSH1 0x80 ADD PUSH1 0x40 MSTORE DUP1 PUSH1 0x0 DUP2 MSTORE PUSH1 0x20 ADD PUSH1 0x0 DUP2 MSTORE PUSH1 0x20 ADD PUSH1 0x0 DUP2 MSTORE PUSH1 0x20 ADD PUSH1 0x0 ISZERO ISZERO DUP2 MSTORE POP SWAP1 JUMP JUMPDEST PUSH1 0x0 PUSH1 0x20 DUP3 DUP5 SUB SLT ISZERO PUSH2 0x7CA JUMPI PUSH1 0x0 DUP1 REVERT JUMPDEST POP CALLDATALOAD SWAP2 SWAP1 POP JUMP JUMPDEST DUP1 CALLDATALOAD PUSH1 0x1 PUSH1 0x1 PUSH1 0xA0 SHL SUB DUP2 AND DUP2 EQ PUSH2 0x7E8 JUMPI PUSH1 0x0 DUP1 REVERT JUMPDEST SWAP2 SWAP1 POP JUMP JUMPDEST PUSH1 0x0 DUP1 PUSH1 0x40 DUP4 DUP6 SUB SLT ISZERO PUSH2 0x800 JUMPI PUSH1 0x0 DUP1 REVERT JUMPDEST DUP3 CALLDATALOAD SWAP2 POP PUSH2 0x810 PUSH1 0x20 DUP5 ADD PUSH2 0x7D1 JUMP JUMPDEST SWAP1 POP SWAP3 POP SWAP3 SWAP1 POP JUMP JUMPDEST PUSH1 0x0 DUP1 PUSH1 0x40 DUP4 DUP6 SUB SLT ISZERO PUSH2 0x82C JUMPI PUSH1 0x0 DUP1 REVERT JUMPDEST DUP3 CALLDATALOAD SWAP2 POP PUSH1 0x20 DUP4 ADD CALLDATALOAD DUP1 ISZERO ISZERO DUP2 EQ PUSH2 0x843 JUMPI PUSH1 0x0 DUP1 REVERT JUMPDEST DUP1 SWAP2 POP POP SWAP3 POP SWAP3 SWAP1 POP JUMP JUMPDEST PUSH1 0x0 DUP1 PUSH1 0x40 DUP4 DUP6 SUB SLT ISZERO PUSH2 0x861 JUMPI PUSH1 0x0 DUP1 REVERT JUMPDEST POP POP DUP1 CALLDATALOAD SWAP3 PUSH1 0x20 SWAP1 SWAP2 ADD CALLDATALOAD SWAP2 POP JUMP JUMPDEST PUSH1 0x0 DUP1 PUSH1 0x40 DUP4 DUP6 SUB SLT ISZERO PUSH2 0x883 JUMPI PUSH1 0x0 DUP1 REVERT JUMPDEST PUSH2 0x88C DUP4 PUSH2 0x7D1 JUMP JUMPDEST SWAP5 PUSH1 0x20 SWAP4 SWAP1 SWAP4 ADD CALLDATALOAD SWAP4 POP POP POP JUMP JUMPDEST PUSH1 0x0 PUSH1 0x20 DUP3 DUP5 SUB SLT ISZERO PUSH2 0x8AC JUMPI PUSH1 0x0 DUP1 REVERT JUMPDEST PUSH2 0x8B5 DUP3 PUSH2 0x7D1 JUMP JUMPDEST SWAP4 SWAP3 POP POP POP JUMP JUMPDEST PUSH1 0x20 DUP1 DUP3 MSTORE PUSH1 0x16 SWAP1 DUP3 ADD MSTORE PUSH22 0x557365722068617320766F74656420616C7265616479 PUSH1 0x50 SHL PUSH1 0x40 DUP3 ADD MSTORE PUSH1 0x60 ADD SWAP1 JUMP JUMPDEST PUSH1 0x20 DUP1 DUP3 MSTORE PUSH1 0x24 SWAP1 DUP3 ADD MSTORE PUSH32 0x5573657220646F6573206E6F74206861766520656E6F75676820726570757461 PUSH1 0x40 DUP3 ADD MSTORE PUSH4 0x3A34B7B7 PUSH1 0xE1 SHL PUSH1 0x60 DUP3 ADD MSTORE PUSH1 0x80 ADD SWAP1 JUMP JUMPDEST PUSH1 0x20 DUP1 DUP3 MSTORE PUSH1 0x18 SWAP1 DUP3 ADD MSTORE PUSH24 0x14185C9D1B995C88159BDD19481A185CC8195E1C1A5C9959 PUSH1 0x42 SHL PUSH1 0x40 DUP3 ADD MSTORE PUSH1 0x60 ADD SWAP1 JUMP JUMPDEST DUP1 DUP3 ADD DUP1 DUP3 GT ISZERO PUSH2 0x983 JUMPI PUSH4 0x4E487B71 PUSH1 0xE0 SHL PUSH1 0x0 MSTORE PUSH1 0x11 PUSH1 0x4 MSTORE PUSH1 0x24 PUSH1 0x0 REVERT JUMPDEST SWAP3 SWAP2 POP POP JUMP JUMPDEST PUSH1 0x20 DUP1 DUP3 MSTORE PUSH1 0x15 SWAP1 DUP3 ADD MSTORE PUSH21 0x11DBD85B08159BDD19481A185CC8195E1C1A5C9959 PUSH1 0x5A SHL PUSH1 0x40 DUP3 ADD MSTORE PUSH1 0x60 ADD SWAP1 JUMP INVALID LOG2 PUSH5 0x6970667358 0x22 SLT KECCAK256 OR 0x29 0xAD PUSH11 0x54DF25B99A59464885C62A PREVRANDAO STOP 0xEE 0x2F PUSH26 0xEC4B568E86675E4971801C4B64736F6C63430008180033000000 "},"methodIdentifiers":{"approveGoal(uint256)":"bc143c96","approvePartner(uint256)":"26f39058","getGoalVote(uint256)":"3ca4bc5e","getPartnerVote(uint256)":"65410fe8","hasVotedOnGoal(uint256)":"bbf3fb78","hasVotedOnPartner(uint256)":"b9df883e","partnerVote(uint256)":"b97ff4a2","partnerVoted(uint256,address)":"0a1f548a","rejectGoal(uint256)":"97dd799f","rejectPartner(uint256)":"77460360","reputation(address)":"b9f79451","setGoalCheck(uint256,bool)":"91968528","setGoalExpire(uint256,uint256)":"b803a58d","setPartnerCheck(uint256,bool)":"b23e33dd","setPartnerExpire(uint256,uint256)":"9da9c593","setReputation(address,uint256)":"b120c16a","vote(uint256)":"0121b93f","voted(uint256,address)":"5277b4ae"}}}}}